{
  "contracts/YutengV2.sol": {
    "YutengV2": {
      "abi": [
        {
          "anonymous": false,
          "inputs": [
            {
              "indexed": false,
              "internalType": "address",
              "name": "from",
              "type": "address"
            },
            {
              "indexed": false,
              "internalType": "address",
              "name": "to",
              "type": "address"
            },
            {
              "indexed": false,
              "internalType": "uint256",
              "name": "value",
              "type": "uint256"
            },
            {
              "indexed": false,
              "internalType": "uint256",
              "name": "number",
              "type": "uint256"
            }
          ],
          "name": "SendBalance",
          "type": "event"
        },
        {
          "stateMutability": "payable",
          "type": "fallback"
        },
        {
          "inputs": [],
          "name": "score",
          "outputs": [
            {
              "internalType": "uint256",
              "name": "",
              "type": "uint256"
            }
          ],
          "stateMutability": "view",
          "type": "function"
        },
        {
          "inputs": [
            {
              "internalType": "uint256",
              "name": "newScore",
              "type": "uint256"
            }
          ],
          "name": "setsCcore",
          "outputs": [],
          "stateMutability": "nonpayable",
          "type": "function"
        },
        {
          "stateMutability": "payable",
          "type": "receive"
        }
      ],
      "evm": {
        "bytecode": {
          "linkReferences": {},
          "object": "608060405234801561001057600080fd5b506102e2806100206000396000f3fe60806040526004361061002d5760003560e01c806330a82a7f146100b2578063efedc669146100db57610072565b36610072577f70ee46485b987eaf472c55908dc22ab5db176b6125c52401cb86bbfc91cb5c5f333034606660405161006894939291906101d5565b60405180910390a1005b7f70ee46485b987eaf472c55908dc22ab5db176b6125c52401cb86bbfc91cb5c5f33303460656040516100a89493929190610190565b60405180910390a1005b3480156100be57600080fd5b506100d960048036038101906100d4919061012b565b610106565b005b3480156100e757600080fd5b506100f0610110565b6040516100fd919061021a565b60405180910390f35b8060008190555050565b60005481565b60008135905061012581610295565b92915050565b60006020828403121561013d57600080fd5b600061014b84828501610116565b91505092915050565b61015d81610235565b82525050565b61016c81610271565b82525050565b61017b81610283565b82525050565b61018a81610267565b82525050565b60006080820190506101a56000830187610154565b6101b26020830186610154565b6101bf6040830185610181565b6101cc6060830184610163565b95945050505050565b60006080820190506101ea6000830187610154565b6101f76020830186610154565b6102046040830185610181565b6102116060830184610172565b95945050505050565b600060208201905061022f6000830184610181565b92915050565b600061024082610247565b9050919050565b600073ffffffffffffffffffffffffffffffffffffffff82169050919050565b6000819050919050565b600061027c82610267565b9050919050565b600061028e82610267565b9050919050565b61029e81610267565b81146102a957600080fd5b5056fea2646970667358221220d5f39d1946b41fbc5c1e2b09f44f54ee40b8331054c8e035be2454fc630fbd7264736f6c63430008040033",
          "opcodes": "PUSH1 0x80 PUSH1 0x40 MSTORE CALLVALUE DUP1 ISZERO PUSH2 0x10 JUMPI PUSH1 0x0 DUP1 REVERT JUMPDEST POP PUSH2 0x2E2 DUP1 PUSH2 0x20 PUSH1 0x0 CODECOPY PUSH1 0x0 RETURN INVALID PUSH1 0x80 PUSH1 0x40 MSTORE PUSH1 0x4 CALLDATASIZE LT PUSH2 0x2D JUMPI PUSH1 0x0 CALLDATALOAD PUSH1 0xE0 SHR DUP1 PUSH4 0x30A82A7F EQ PUSH2 0xB2 JUMPI DUP1 PUSH4 0xEFEDC669 EQ PUSH2 0xDB JUMPI PUSH2 0x72 JUMP JUMPDEST CALLDATASIZE PUSH2 0x72 JUMPI PUSH32 0x70EE46485B987EAF472C55908DC22AB5DB176B6125C52401CB86BBFC91CB5C5F CALLER ADDRESS CALLVALUE PUSH1 0x66 PUSH1 0x40 MLOAD PUSH2 0x68 SWAP5 SWAP4 SWAP3 SWAP2 SWAP1 PUSH2 0x1D5 JUMP JUMPDEST PUSH1 0x40 MLOAD DUP1 SWAP2 SUB SWAP1 LOG1 STOP JUMPDEST PUSH32 0x70EE46485B987EAF472C55908DC22AB5DB176B6125C52401CB86BBFC91CB5C5F CALLER ADDRESS CALLVALUE PUSH1 0x65 PUSH1 0x40 MLOAD PUSH2 0xA8 SWAP5 SWAP4 SWAP3 SWAP2 SWAP1 PUSH2 0x190 JUMP JUMPDEST PUSH1 0x40 MLOAD DUP1 SWAP2 SUB SWAP1 LOG1 STOP JUMPDEST CALLVALUE DUP1 ISZERO PUSH2 0xBE JUMPI PUSH1 0x0 DUP1 REVERT JUMPDEST POP PUSH2 0xD9 PUSH1 0x4 DUP1 CALLDATASIZE SUB DUP2 ADD SWAP1 PUSH2 0xD4 SWAP2 SWAP1 PUSH2 0x12B JUMP JUMPDEST PUSH2 0x106 JUMP JUMPDEST STOP JUMPDEST CALLVALUE DUP1 ISZERO PUSH2 0xE7 JUMPI PUSH1 0x0 DUP1 REVERT JUMPDEST POP PUSH2 0xF0 PUSH2 0x110 JUMP JUMPDEST PUSH1 0x40 MLOAD PUSH2 0xFD SWAP2 SWAP1 PUSH2 0x21A JUMP JUMPDEST PUSH1 0x40 MLOAD DUP1 SWAP2 SUB SWAP1 RETURN JUMPDEST DUP1 PUSH1 0x0 DUP2 SWAP1 SSTORE POP POP JUMP JUMPDEST PUSH1 0x0 SLOAD DUP2 JUMP JUMPDEST PUSH1 0x0 DUP2 CALLDATALOAD SWAP1 POP PUSH2 0x125 DUP2 PUSH2 0x295 JUMP JUMPDEST SWAP3 SWAP2 POP POP JUMP JUMPDEST PUSH1 0x0 PUSH1 0x20 DUP3 DUP5 SUB SLT ISZERO PUSH2 0x13D JUMPI PUSH1 0x0 DUP1 REVERT JUMPDEST PUSH1 0x0 PUSH2 0x14B DUP5 DUP3 DUP6 ADD PUSH2 0x116 JUMP JUMPDEST SWAP2 POP POP SWAP3 SWAP2 POP POP JUMP JUMPDEST PUSH2 0x15D DUP2 PUSH2 0x235 JUMP JUMPDEST DUP3 MSTORE POP POP JUMP JUMPDEST PUSH2 0x16C DUP2 PUSH2 0x271 JUMP JUMPDEST DUP3 MSTORE POP POP JUMP JUMPDEST PUSH2 0x17B DUP2 PUSH2 0x283 JUMP JUMPDEST DUP3 MSTORE POP POP JUMP JUMPDEST PUSH2 0x18A DUP2 PUSH2 0x267 JUMP JUMPDEST DUP3 MSTORE POP POP JUMP JUMPDEST PUSH1 0x0 PUSH1 0x80 DUP3 ADD SWAP1 POP PUSH2 0x1A5 PUSH1 0x0 DUP4 ADD DUP8 PUSH2 0x154 JUMP JUMPDEST PUSH2 0x1B2 PUSH1 0x20 DUP4 ADD DUP7 PUSH2 0x154 JUMP JUMPDEST PUSH2 0x1BF PUSH1 0x40 DUP4 ADD DUP6 PUSH2 0x181 JUMP JUMPDEST PUSH2 0x1CC PUSH1 0x60 DUP4 ADD DUP5 PUSH2 0x163 JUMP JUMPDEST SWAP6 SWAP5 POP POP POP POP POP JUMP JUMPDEST PUSH1 0x0 PUSH1 0x80 DUP3 ADD SWAP1 POP PUSH2 0x1EA PUSH1 0x0 DUP4 ADD DUP8 PUSH2 0x154 JUMP JUMPDEST PUSH2 0x1F7 PUSH1 0x20 DUP4 ADD DUP7 PUSH2 0x154 JUMP JUMPDEST PUSH2 0x204 PUSH1 0x40 DUP4 ADD DUP6 PUSH2 0x181 JUMP JUMPDEST PUSH2 0x211 PUSH1 0x60 DUP4 ADD DUP5 PUSH2 0x172 JUMP JUMPDEST SWAP6 SWAP5 POP POP POP POP POP JUMP JUMPDEST PUSH1 0x0 PUSH1 0x20 DUP3 ADD SWAP1 POP PUSH2 0x22F PUSH1 0x0 DUP4 ADD DUP5 PUSH2 0x181 JUMP JUMPDEST SWAP3 SWAP2 POP POP JUMP JUMPDEST PUSH1 0x0 PUSH2 0x240 DUP3 PUSH2 0x247 JUMP JUMPDEST SWAP1 POP SWAP2 SWAP1 POP JUMP JUMPDEST PUSH1 0x0 PUSH20 0xFFFFFFFFFFFFFFFFFFFFFFFFFFFFFFFFFFFFFFFF DUP3 AND SWAP1 POP SWAP2 SWAP1 POP JUMP JUMPDEST PUSH1 0x0 DUP2 SWAP1 POP SWAP2 SWAP1 POP JUMP JUMPDEST PUSH1 0x0 PUSH2 0x27C DUP3 PUSH2 0x267 JUMP JUMPDEST SWAP1 POP SWAP2 SWAP1 POP JUMP JUMPDEST PUSH1 0x0 PUSH2 0x28E DUP3 PUSH2 0x267 JUMP JUMPDEST SWAP1 POP SWAP2 SWAP1 POP JUMP JUMPDEST PUSH2 0x29E DUP2 PUSH2 0x267 JUMP JUMPDEST DUP2 EQ PUSH2 0x2A9 JUMPI PUSH1 0x0 DUP1 REVERT JUMPDEST POP JUMP INVALID LOG2 PUSH5 0x6970667358 0x22 SLT KECCAK256 0xD5 RETURN SWAP14 NOT CHAINID 0xB4 0x1F 0xBC 0x5C 0x1E 0x2B MULMOD DELEGATECALL 0x4F SLOAD 0xEE BLOCKHASH 0xB8 CALLER LT SLOAD 0xC8 0xE0 CALLDATALOAD 0xBE 0x24 SLOAD 0xFC PUSH4 0xFBD7264 PUSH20 0x6F6C634300080400330000000000000000000000 "
        },
        "methodIdentifiers": {
          "score()": "efedc669",
          "setsCcore(uint256)": "30a82a7f"
        }
      }
    }
  }
}