{
  "_format": "hh-sol-artifact-1",
  "contractName": "SwapToken",
  "sourceName": "contracts/SwapToken.sol",
  "abi": [
    {
      "inputs": [
        {
          "internalType": "address",
          "name": "contractAddress",
          "type": "address"
        }
      ],
      "stateMutability": "payable",
      "type": "constructor"
    },
    {
      "inputs": [
        {
          "internalType": "address",
          "name": "owner",
          "type": "address"
        },
        {
          "internalType": "address",
          "name": "spender",
          "type": "address"
        }
      ],
      "name": "allowance",
      "outputs": [
        {
          "internalType": "uint256",
          "name": "",
          "type": "uint256"
        }
      ],
      "stateMutability": "nonpayable",
      "type": "function"
    },
    {
      "inputs": [
        {
          "internalType": "address",
          "name": "spender",
          "type": "address"
        },
        {
          "internalType": "uint256",
          "name": "amount",
          "type": "uint256"
        }
      ],
      "name": "approve",
      "outputs": [
        {
          "internalType": "bool",
          "name": "",
          "type": "bool"
        }
      ],
      "stateMutability": "nonpayable",
      "type": "function"
    },
    {
      "inputs": [
        {
          "internalType": "address",
          "name": "addr",
          "type": "address"
        }
      ],
      "name": "balanceOf",
      "outputs": [
        {
          "internalType": "uint256",
          "name": "",
          "type": "uint256"
        }
      ],
      "stateMutability": "view",
      "type": "function"
    },
    {
      "inputs": [],
      "name": "exchangeToken",
      "outputs": [],
      "stateMutability": "payable",
      "type": "function"
    },
    {
      "inputs": [],
      "name": "test",
      "outputs": [
        {
          "internalType": "address",
          "name": "",
          "type": "address"
        }
      ],
      "stateMutability": "view",
      "type": "function"
    },
    {
      "inputs": [
        {
          "internalType": "address",
          "name": "sender",
          "type": "address"
        },
        {
          "internalType": "address",
          "name": "spender",
          "type": "address"
        },
        {
          "internalType": "uint256",
          "name": "amount",
          "type": "uint256"
        }
      ],
      "name": "transferToContract",
      "outputs": [
        {
          "internalType": "bool",
          "name": "",
          "type": "bool"
        }
      ],
      "stateMutability": "nonpayable",
      "type": "function"
    },
    {
      "inputs": [
        {
          "internalType": "address",
          "name": "owner",
          "type": "address"
        },
        {
          "internalType": "address",
          "name": "user",
          "type": "address"
        },
        {
          "internalType": "uint256",
          "name": "amount",
          "type": "uint256"
        }
      ],
      "name": "transferToContractTest",
      "outputs": [
        {
          "internalType": "bool",
          "name": "",
          "type": "bool"
        }
      ],
      "stateMutability": "nonpayable",
      "type": "function"
    }
  ],
  "bytecode": "0x6080604052604051611028380380611028833981810160405281019061002591906100c2565b80600260006101000a81548173ffffffffffffffffffffffffffffffffffffffff021916908373ffffffffffffffffffffffffffffffffffffffff16021790555080600360006101000a81548173ffffffffffffffffffffffffffffffffffffffff021916908373ffffffffffffffffffffffffffffffffffffffff16021790555050610134565b6000815190506100bc8161011d565b92915050565b6000602082840312156100d457600080fd5b60006100e2848285016100ad565b91505092915050565b60006100f6826100fd565b9050919050565b600073ffffffffffffffffffffffffffffffffffffffff82169050919050565b610126816100eb565b811461013157600080fd5b50565b610ee5806101436000396000f3fe6080604052600436106100705760003560e01c806370a082311161004e57806370a082311461012c578063a25eb5d914610169578063dd62ed3e14610173578063f8a8fd6d146101b057610070565b806302ff9e6e14610075578063095ea7b3146100b257806315c71586146100ef575b600080fd5b34801561008157600080fd5b5061009c60048036038101906100979190610ac4565b6101db565b6040516100a99190610d00565b60405180910390f35b3480156100be57600080fd5b506100d960048036038101906100d49190610b13565b61029a565b6040516100e69190610d00565b60405180910390f35b3480156100fb57600080fd5b5061011660048036038101906101119190610ac4565b610418565b6040516101239190610d00565b60405180910390f35b34801561013857600080fd5b50610153600480360381019061014e9190610a36565b6104e2565b6040516101609190610d5b565b60405180910390f35b610171610596565b005b34801561017f57600080fd5b5061019a60048036038101906101959190610a88565b610598565b6040516101a79190610d5b565b60405180910390f35b3480156101bc57600080fd5b506101c5610729565b6040516101d29190610c5c565b60405180910390f35b6000600260009054906101000a900473ffffffffffffffffffffffffffffffffffffffff1673ffffffffffffffffffffffffffffffffffffffff166323b872dd8585856040518463ffffffff1660e01b815260040161023c93929190610ca0565b602060405180830381600087803b15801561025657600080fd5b505af115801561026a573d6000803e3d6000fd5b505050506040513d601f19601f8201168201806040525081019061028e9190610b4f565b50600190509392505050565b6000806000600360009054906101000a900473ffffffffffffffffffffffffffffffffffffffff1673ffffffffffffffffffffffffffffffffffffffff1685856040516024016102eb929190610cd7565b6040516020818303038152906040527f095ea7b3000000000000000000000000000000000000000000000000000000007bffffffffffffffffffffffffffffffffffffffffffffffffffffffff19166020820180517bffffffffffffffffffffffffffffffffffffffffffffffffffffffff83818316178352505050506040516103759190610c45565b600060405180830381855af49150503d80600081146103b0576040519150601f19603f3d011682016040523d82523d6000602084013e6103b5565b606091505b5091509150816103fa576040517f08c379a00000000000000000000000000000000000000000000000000000000081526004016103f190610d3b565b60405180910390fd5b8080602001905181019061040e9190610b4f565b9250505092915050565b60006104258484846107d0565b600260009054906101000a900473ffffffffffffffffffffffffffffffffffffffff1673ffffffffffffffffffffffffffffffffffffffff166323b872dd8585856040518463ffffffff1660e01b815260040161048493929190610ca0565b602060405180830381600087803b15801561049e57600080fd5b505af11580156104b2573d6000803e3d6000fd5b505050506040513d601f19601f820116820180604052508101906104d69190610b4f565b50600190509392505050565b6000600260009054906101000a900473ffffffffffffffffffffffffffffffffffffffff1673ffffffffffffffffffffffffffffffffffffffff166370a08231836040518263ffffffff1660e01b815260040161053f9190610c5c565b60206040518083038186803b15801561055757600080fd5b505afa15801561056b573d6000803e3d6000fd5b505050506040513d601f19601f8201168201806040525081019061058f9190610b78565b9050919050565b565b60006105a4838361086f565b600080600360009054906101000a900473ffffffffffffffffffffffffffffffffffffffff1673ffffffffffffffffffffffffffffffffffffffff1685866040516024016105f3929190610c77565b6040516020818303038152906040527fdd62ed3e000000000000000000000000000000000000000000000000000000007bffffffffffffffffffffffffffffffffffffffffffffffffffffffff19166020820180517bffffffffffffffffffffffffffffffffffffffffffffffffffffffff838183161783525050505060405161067d9190610c45565b600060405180830381855af49150503d80600081146106b8576040519150601f19603f3d011682016040523d82523d6000602084013e6106bd565b606091505b50915091506106cb8261090b565b8161070b576040517f08c379a000000000000000000000000000000000000000000000000000000000815260040161070290610d1b565b60405180910390fd5b8080602001905181019061071f9190610b78565b9250505092915050565b6000600260009054906101000a900473ffffffffffffffffffffffffffffffffffffffff1673ffffffffffffffffffffffffffffffffffffffff1663f8a8fd6d6040518163ffffffff1660e01b815260040160206040518083038186803b15801561079357600080fd5b505afa1580156107a7573d6000803e3d6000fd5b505050506040513d601f19601f820116820180604052508101906107cb9190610a5f565b905090565b61086a8383836040516024016107e893929190610ca0565b6040516020818303038152906040527f6c366d72000000000000000000000000000000000000000000000000000000007bffffffffffffffffffffffffffffffffffffffffffffffffffffffff19166020820180517bffffffffffffffffffffffffffffffffffffffffffffffffffffffff83818316178352505050506109a4565b505050565b6109078282604051602401610885929190610c77565b6040516020818303038152906040527fdaf0d4aa000000000000000000000000000000000000000000000000000000007bffffffffffffffffffffffffffffffffffffffffffffffffffffffff19166020820180517bffffffffffffffffffffffffffffffffffffffffffffffffffffffff83818316178352505050506109a4565b5050565b6109a18160405160240161091f9190610d00565b6040516020818303038152906040527f32458eed000000000000000000000000000000000000000000000000000000007bffffffffffffffffffffffffffffffffffffffffffffffffffffffff19166020820180517bffffffffffffffffffffffffffffffffffffffffffffffffffffffff83818316178352505050506109a4565b50565b60008151905060006a636f6e736f6c652e6c6f679050602083016000808483855afa5050505050565b6000813590506109dc81610e6a565b92915050565b6000815190506109f181610e6a565b92915050565b600081519050610a0681610e81565b92915050565b600081359050610a1b81610e98565b92915050565b600081519050610a3081610e98565b92915050565b600060208284031215610a4857600080fd5b6000610a56848285016109cd565b91505092915050565b600060208284031215610a7157600080fd5b6000610a7f848285016109e2565b91505092915050565b60008060408385031215610a9b57600080fd5b6000610aa9858286016109cd565b9250506020610aba858286016109cd565b9150509250929050565b600080600060608486031215610ad957600080fd5b6000610ae7868287016109cd565b9350506020610af8868287016109cd565b9250506040610b0986828701610a0c565b9150509250925092565b60008060408385031215610b2657600080fd5b6000610b34858286016109cd565b9250506020610b4585828601610a0c565b9150509250929050565b600060208284031215610b6157600080fd5b6000610b6f848285016109f7565b91505092915050565b600060208284031215610b8a57600080fd5b6000610b9884828501610a21565b91505092915050565b610baa81610d9d565b82525050565b610bb981610daf565b82525050565b6000610bca82610d76565b610bd48185610d81565b9350610be4818560208601610de5565b80840191505092915050565b6000610bfd601583610d8c565b9150610c0882610e18565b602082019050919050565b6000610c20601483610d8c565b9150610c2b82610e41565b602082019050919050565b610c3f81610ddb565b82525050565b6000610c518284610bbf565b915081905092915050565b6000602082019050610c716000830184610ba1565b92915050565b6000604082019050610c8c6000830185610ba1565b610c996020830184610ba1565b9392505050565b6000606082019050610cb56000830186610ba1565b610cc26020830185610ba1565b610ccf6040830184610c36565b949350505050565b6000604082019050610cec6000830185610ba1565b610cf96020830184610c36565b9392505050565b6000602082019050610d156000830184610bb0565b92915050565b60006020820190508181036000830152610d3481610bf0565b9050919050565b60006020820190508181036000830152610d5481610c13565b9050919050565b6000602082019050610d706000830184610c36565b92915050565b600081519050919050565b600081905092915050565b600082825260208201905092915050565b6000610da882610dbb565b9050919050565b60008115159050919050565b600073ffffffffffffffffffffffffffffffffffffffff82169050919050565b6000819050919050565b60005b83811015610e03578082015181840152602081019050610de8565b83811115610e12576000848401525b50505050565b7f44656c65676174652043616c6c206661696c6564320000000000000000000000600082015250565b7f44656c65676174652043616c6c206661696c6564000000000000000000000000600082015250565b610e7381610d9d565b8114610e7e57600080fd5b50565b610e8a81610daf565b8114610e9557600080fd5b50565b610ea181610ddb565b8114610eac57600080fd5b5056fea26469706673582212201586e0ad39b714a253fa6054d107ed5d442ccba3fb0ff6a6f75748adc804613b64736f6c63430008040033",
  "linkReferences": {},
  "deployedLinkReferences": {}
}