{
  "_format": "hh-sol-artifact-1",
  "contractName": "SwapToken",
  "sourceName": "contracts/SwapToken.sol",
  "abi": [
    {
      "inputs": [
        {
          "internalType": "address",
          "name": "contractAddress",
          "type": "address"
        }
      ],
      "stateMutability": "payable",
      "type": "constructor"
    },
    {
      "inputs": [],
      "name": "allowance",
      "outputs": [
        {
          "internalType": "uint256",
          "name": "",
          "type": "uint256"
        }
      ],
      "stateMutability": "view",
      "type": "function"
    },
    {
      "inputs": [
        {
          "internalType": "uint256",
          "name": "amount",
          "type": "uint256"
        }
      ],
      "name": "approve",
      "outputs": [
        {
          "internalType": "bool",
          "name": "",
          "type": "bool"
        }
      ],
      "stateMutability": "nonpayable",
      "type": "function"
    },
    {
      "inputs": [
        {
          "internalType": "address",
          "name": "addr",
          "type": "address"
        }
      ],
      "name": "balanceOf",
      "outputs": [
        {
          "internalType": "uint256",
          "name": "",
          "type": "uint256"
        }
      ],
      "stateMutability": "view",
      "type": "function"
    },
    {
      "inputs": [],
      "name": "exchangeToken",
      "outputs": [],
      "stateMutability": "payable",
      "type": "function"
    },
    {
      "inputs": [],
      "name": "test",
      "outputs": [
        {
          "internalType": "address",
          "name": "",
          "type": "address"
        }
      ],
      "stateMutability": "view",
      "type": "function"
    },
    {
      "inputs": [
        {
          "internalType": "uint256",
          "name": "amount",
          "type": "uint256"
        }
      ],
      "name": "transferToContract",
      "outputs": [
        {
          "internalType": "bool",
          "name": "",
          "type": "bool"
        }
      ],
      "stateMutability": "nonpayable",
      "type": "function"
    },
    {
      "inputs": [
        {
          "internalType": "address",
          "name": "owner",
          "type": "address"
        },
        {
          "internalType": "address",
          "name": "user",
          "type": "address"
        },
        {
          "internalType": "uint256",
          "name": "amount",
          "type": "uint256"
        }
      ],
      "name": "transferToContractTest",
      "outputs": [
        {
          "internalType": "bool",
          "name": "",
          "type": "bool"
        }
      ],
      "stateMutability": "nonpayable",
      "type": "function"
    }
  ],
  "bytecode": "0x6080604052604051610a75380380610a75833981810160405281019061002591906100c1565b806000806101000a81548173ffffffffffffffffffffffffffffffffffffffff021916908373ffffffffffffffffffffffffffffffffffffffff16021790555080600160006101000a81548173ffffffffffffffffffffffffffffffffffffffff021916908373ffffffffffffffffffffffffffffffffffffffff16021790555050610133565b6000815190506100bb8161011c565b92915050565b6000602082840312156100d357600080fd5b60006100e1848285016100ac565b91505092915050565b60006100f5826100fc565b9050919050565b600073ffffffffffffffffffffffffffffffffffffffff82169050919050565b610125816100ea565b811461013057600080fd5b50565b610933806101426000396000f3fe6080604052600436106100705760003560e01c8063b759f9541161004e578063b759f954146100f9578063d555d47314610136578063de242ff414610173578063f8a8fd6d1461019e57610070565b806302ff9e6e1461007557806370a08231146100b2578063a25eb5d9146100ef575b600080fd5b34801561008157600080fd5b5061009c600480360381019061009791906106c8565b6101c9565b6040516100a9919061083a565b60405180910390f35b3480156100be57600080fd5b506100d960048036038101906100d49190610676565b610287565b6040516100e69190610855565b60405180910390f35b6100f761033a565b005b34801561010557600080fd5b50610120600480360381019061011b9190610740565b61033c565b60405161012d919061083a565b60405180910390f35b34801561014257600080fd5b5061015d60048036038101906101589190610740565b6103f8565b60405161016a919061083a565b60405180910390f35b34801561017f57600080fd5b506101886104b4565b6040516101959190610855565b60405180910390f35b3480156101aa57600080fd5b506101b3610567565b6040516101c091906107bf565b60405180910390f35b60008060009054906101000a900473ffffffffffffffffffffffffffffffffffffffff1673ffffffffffffffffffffffffffffffffffffffff166323b872dd8585856040518463ffffffff1660e01b815260040161022993929190610803565b602060405180830381600087803b15801561024357600080fd5b505af1158015610257573d6000803e3d6000fd5b505050506040513d601f19601f8201168201806040525081019061027b9190610717565b50600190509392505050565b60008060009054906101000a900473ffffffffffffffffffffffffffffffffffffffff1673ffffffffffffffffffffffffffffffffffffffff166370a08231836040518263ffffffff1660e01b81526004016102e391906107bf565b60206040518083038186803b1580156102fb57600080fd5b505afa15801561030f573d6000803e3d6000fd5b505050506040513d601f19601f820116820180604052508101906103339190610769565b9050919050565b565b60008060009054906101000a900473ffffffffffffffffffffffffffffffffffffffff1673ffffffffffffffffffffffffffffffffffffffff1663e1f21c673330856040518463ffffffff1660e01b815260040161039c93929190610803565b602060405180830381600087803b1580156103b657600080fd5b505af11580156103ca573d6000803e3d6000fd5b505050506040513d601f19601f820116820180604052508101906103ee9190610717565b5060019050919050565b60008060009054906101000a900473ffffffffffffffffffffffffffffffffffffffff1673ffffffffffffffffffffffffffffffffffffffff166323b872dd3330856040518463ffffffff1660e01b815260040161045893929190610803565b602060405180830381600087803b15801561047257600080fd5b505af1158015610486573d6000803e3d6000fd5b505050506040513d601f19601f820116820180604052508101906104aa9190610717565b5060019050919050565b60008060009054906101000a900473ffffffffffffffffffffffffffffffffffffffff1673ffffffffffffffffffffffffffffffffffffffff1663dd62ed3e33306040518363ffffffff1660e01b81526004016105129291906107da565b60206040518083038186803b15801561052a57600080fd5b505afa15801561053e573d6000803e3d6000fd5b505050506040513d601f19601f820116820180604052508101906105629190610769565b905090565b60008060009054906101000a900473ffffffffffffffffffffffffffffffffffffffff1673ffffffffffffffffffffffffffffffffffffffff1663f8a8fd6d6040518163ffffffff1660e01b815260040160206040518083038186803b1580156105d057600080fd5b505afa1580156105e4573d6000803e3d6000fd5b505050506040513d601f19601f82011682018060405250810190610608919061069f565b905090565b60008135905061061c816108b8565b92915050565b600081519050610631816108b8565b92915050565b600081519050610646816108cf565b92915050565b60008135905061065b816108e6565b92915050565b600081519050610670816108e6565b92915050565b60006020828403121561068857600080fd5b60006106968482850161060d565b91505092915050565b6000602082840312156106b157600080fd5b60006106bf84828501610622565b91505092915050565b6000806000606084860312156106dd57600080fd5b60006106eb8682870161060d565b93505060206106fc8682870161060d565b925050604061070d8682870161064c565b9150509250925092565b60006020828403121561072957600080fd5b600061073784828501610637565b91505092915050565b60006020828403121561075257600080fd5b60006107608482850161064c565b91505092915050565b60006020828403121561077b57600080fd5b600061078984828501610661565b91505092915050565b61079b81610870565b82525050565b6107aa81610882565b82525050565b6107b9816108ae565b82525050565b60006020820190506107d46000830184610792565b92915050565b60006040820190506107ef6000830185610792565b6107fc6020830184610792565b9392505050565b60006060820190506108186000830186610792565b6108256020830185610792565b61083260408301846107b0565b949350505050565b600060208201905061084f60008301846107a1565b92915050565b600060208201905061086a60008301846107b0565b92915050565b600061087b8261088e565b9050919050565b60008115159050919050565b600073ffffffffffffffffffffffffffffffffffffffff82169050919050565b6000819050919050565b6108c181610870565b81146108cc57600080fd5b50565b6108d881610882565b81146108e357600080fd5b50565b6108ef816108ae565b81146108fa57600080fd5b5056fea264697066735822122086d31cb91a54a7c9fe222475659ee38c47b071ce04a8ef8125e89080bd55763364736f6c63430008040033",
  "linkReferences": {},
  "deployedLinkReferences": {}
}