{
  "_format": "hh-sol-artifact-1",
  "contractName": "SwapToken",
  "sourceName": "contracts/SwapToken.sol",
  "abi": [
    {
      "inputs": [
        {
          "internalType": "address",
          "name": "owner",
          "type": "address"
        },
        {
          "internalType": "address[]",
          "name": "contracts",
          "type": "address[]"
        }
      ],
      "stateMutability": "payable",
      "type": "constructor"
    },
    {
      "inputs": [
        {
          "internalType": "address",
          "name": "contractAddress",
          "type": "address"
        },
        {
          "internalType": "uint256",
          "name": "amount",
          "type": "uint256"
        }
      ],
      "name": "approve",
      "outputs": [
        {
          "internalType": "bool",
          "name": "",
          "type": "bool"
        }
      ],
      "stateMutability": "nonpayable",
      "type": "function"
    },
    {
      "inputs": [
        {
          "internalType": "address",
          "name": "contractAddress",
          "type": "address"
        },
        {
          "internalType": "uint256",
          "name": "amount",
          "type": "uint256"
        }
      ],
      "name": "ethToToken",
      "outputs": [
        {
          "internalType": "bool",
          "name": "",
          "type": "bool"
        }
      ],
      "stateMutability": "payable",
      "type": "function"
    },
    {
      "inputs": [
        {
          "internalType": "address",
          "name": "from",
          "type": "address"
        },
        {
          "internalType": "uint256",
          "name": "_amount",
          "type": "uint256"
        },
        {
          "internalType": "bytes",
          "name": "_data",
          "type": "bytes"
        }
      ],
      "name": "receiveApproval",
      "outputs": [
        {
          "internalType": "bool",
          "name": "",
          "type": "bool"
        }
      ],
      "stateMutability": "nonpayable",
      "type": "function"
    },
    {
      "inputs": [
        {
          "internalType": "address",
          "name": "from",
          "type": "address"
        },
        {
          "internalType": "uint256",
          "name": "_amount",
          "type": "uint256"
        },
        {
          "internalType": "bytes",
          "name": "_data",
          "type": "bytes"
        }
      ],
      "name": "receiveToken",
      "outputs": [
        {
          "internalType": "bool",
          "name": "",
          "type": "bool"
        }
      ],
      "stateMutability": "nonpayable",
      "type": "function"
    },
    {
      "inputs": [
        {
          "internalType": "address",
          "name": "contractAddress",
          "type": "address"
        },
        {
          "internalType": "bool",
          "name": "state",
          "type": "bool"
        }
      ],
      "name": "saveContract",
      "outputs": [
        {
          "internalType": "bool",
          "name": "",
          "type": "bool"
        }
      ],
      "stateMutability": "nonpayable",
      "type": "function"
    },
    {
      "inputs": [
        {
          "internalType": "address",
          "name": "contractAddress",
          "type": "address"
        },
        {
          "internalType": "uint56",
          "name": "amount",
          "type": "uint56"
        }
      ],
      "name": "tokenToEth",
      "outputs": [
        {
          "internalType": "bool",
          "name": "",
          "type": "bool"
        }
      ],
      "stateMutability": "nonpayable",
      "type": "function"
    },
    {
      "inputs": [
        {
          "internalType": "address",
          "name": "contractA",
          "type": "address"
        },
        {
          "internalType": "uint256",
          "name": "amountA",
          "type": "uint256"
        },
        {
          "internalType": "address",
          "name": "contractB",
          "type": "address"
        },
        {
          "internalType": "uint256",
          "name": "amountB",
          "type": "uint256"
        },
        {
          "internalType": "address",
          "name": "target",
          "type": "address"
        }
      ],
      "name": "tokenToToken",
      "outputs": [
        {
          "internalType": "bool",
          "name": "",
          "type": "bool"
        }
      ],
      "stateMutability": "nonpayable",
      "type": "function"
    }
  ],
  "bytecode": "0x60806040526000600560006101000a81548160ff0219169083151502179055506000600560016101000a81548160ff02191690831515021790555060405162001caa38038062001caa83398181016040528101906200005f919062000205565b60005b8151811015620000f6576001806000848481518110620000875762000086620003b4565b5b602002602001015173ffffffffffffffffffffffffffffffffffffffff1673ffffffffffffffffffffffffffffffffffffffff16815260200190815260200160002060006101000a81548160ff0219169083151502179055508080620000ed9062000337565b91505062000062565b5081600260006101000a81548173ffffffffffffffffffffffffffffffffffffffff021916908373ffffffffffffffffffffffffffffffffffffffff160217905550505062000451565b600062000157620001518462000294565b6200026b565b905080838252602082019050828560208602820111156200017d576200017c62000417565b5b60005b85811015620001b15781620001968882620001bb565b84526020840193506020830192505060018101905062000180565b5050509392505050565b600081519050620001cc8162000437565b92915050565b600082601f830112620001ea57620001e962000412565b5b8151620001fc84826020860162000140565b91505092915050565b600080604083850312156200021f576200021e62000421565b5b60006200022f85828601620001bb565b925050602083015167ffffffffffffffff8111156200025357620002526200041c565b5b6200026185828601620001d2565b9150509250929050565b6000620002776200028a565b905062000285828262000301565b919050565b6000604051905090565b600067ffffffffffffffff821115620002b257620002b1620003e3565b5b602082029050602081019050919050565b6000620002d082620002d7565b9050919050565b600073ffffffffffffffffffffffffffffffffffffffff82169050919050565b6000819050919050565b6200030c8262000426565b810181811067ffffffffffffffff821117156200032e576200032d620003e3565b5b80604052505050565b60006200034482620002f7565b91507fffffffffffffffffffffffffffffffffffffffffffffffffffffffffffffffff8214156200037a576200037962000385565b5b600182019050919050565b7f4e487b7100000000000000000000000000000000000000000000000000000000600052601160045260246000fd5b7f4e487b7100000000000000000000000000000000000000000000000000000000600052603260045260246000fd5b7f4e487b7100000000000000000000000000000000000000000000000000000000600052604160045260246000fd5b600080fd5b600080fd5b600080fd5b600080fd5b6000601f19601f8301169050919050565b6200044281620002c3565b81146200044e57600080fd5b50565b61184980620004616000396000f3fe6080604052600436106100705760003560e01c8063846a490f1161004e578063846a490f1461012c578063a2d5785314610169578063d91efc3b146101a6578063e418f592146101d657610070565b8063095ea7b31461007557806329522520146100b257806347cf372b146100ef575b600080fd5b34801561008157600080fd5b5061009c60048036038101906100979190610f38565b610213565b6040516100a991906112cf565b60405180910390f35b3480156100be57600080fd5b506100d960048036038101906100d49190610ef8565b61030a565b6040516100e691906112cf565b60405180910390f35b3480156100fb57600080fd5b5061011660048036038101906101119190611062565b6103fd565b60405161012391906112cf565b60405180910390f35b34801561013857600080fd5b50610153600480360381019061014e9190610f78565b61067e565b60405161016091906112cf565b60405180910390f35b34801561017557600080fd5b50610190600480360381019061018b9190610ff3565b6108e3565b60405161019d91906112cf565b60405180910390f35b6101c060048036038101906101bb9190610f38565b6109a8565b6040516101cd91906112cf565b60405180910390f35b3480156101e257600080fd5b506101fd60048036038101906101f89190610ff3565b610a97565b60405161020a91906112cf565b60405180910390f35b6000826000806101000a81548173ffffffffffffffffffffffffffffffffffffffff021916908373ffffffffffffffffffffffffffffffffffffffff16021790555060008054906101000a900473ffffffffffffffffffffffffffffffffffffffff1673ffffffffffffffffffffffffffffffffffffffff1663095ea7b330846040518363ffffffff1660e01b81526004016102b09291906112a6565b602060405180830381600087803b1580156102ca57600080fd5b505af11580156102de573d6000803e3d6000fd5b505050506040513d601f19601f8201168201806040525081019061030291906110a2565b905092915050565b6000600260009054906101000a900473ffffffffffffffffffffffffffffffffffffffff1673ffffffffffffffffffffffffffffffffffffffff163373ffffffffffffffffffffffffffffffffffffffff161461039c576040517f08c379a00000000000000000000000000000000000000000000000000000000081526004016103939061130a565b60405180910390fd5b81600160008573ffffffffffffffffffffffffffffffffffffffff1673ffffffffffffffffffffffffffffffffffffffff16815260200190815260200160002060006101000a81548160ff0219169083151502179055506001905092915050565b600060011515600160008573ffffffffffffffffffffffffffffffffffffffff1673ffffffffffffffffffffffffffffffffffffffff16815260200190815260200160002060009054906101000a900460ff16151514610492576040517f08c379a00000000000000000000000000000000000000000000000000000000081526004016104899061132a565b60405180910390fd5b8166ffffffffffffff164710156104de576040517f08c379a00000000000000000000000000000000000000000000000000000000081526004016104d59061138a565b60405180910390fd5b600560009054906101000a900460ff161561052e576040517f08c379a0000000000000000000000000000000000000000000000000000000008152600401610525906112ea565b60405180910390fd5b6001600560006101000a81548160ff02191690831515021790555060006105608433308666ffffffffffffff16610b5c565b9050806105a2576040517f08c379a0000000000000000000000000000000000000000000000000000000008152600401610599906113ea565b60405180910390fd5b60003373ffffffffffffffffffffffffffffffffffffffff168466ffffffffffffff166040516105d19061125a565b60006040518083038185875af1925050503d806000811461060e576040519150601f19603f3d011682016040523d82523d6000602084013e610613565b606091505b5050905080610657576040517f08c379a000000000000000000000000000000000000000000000000000000000815260040161064e906113ea565b60405180910390fd5b6000600560006101000a81548160ff02191690831515021790555060019250505092915050565b600060011515600160008873ffffffffffffffffffffffffffffffffffffffff1673ffffffffffffffffffffffffffffffffffffffff16815260200190815260200160002060009054906101000a900460ff16151514610713576040517f08c379a000000000000000000000000000000000000000000000000000000000815260040161070a9061136a565b60405180910390fd5b60011515600160008673ffffffffffffffffffffffffffffffffffffffff1673ffffffffffffffffffffffffffffffffffffffff16815260200190815260200160002060009054906101000a900460ff161515146107a6576040517f08c379a000000000000000000000000000000000000000000000000000000000815260040161079d9061134a565b60405180910390fd5b600560009054906101000a900460ff16156107f6576040517f08c379a00000000000000000000000000000000000000000000000000000000081526004016107ed906112ea565b60405180910390fd5b6001600560016101000a81548160ff021916908315150217905550600061081f87338589610b5c565b9050600061082f86853388610b5c565b90506001915081610875576040517f08c379a000000000000000000000000000000000000000000000000000000000815260040161086c906113aa565b60405180910390fd5b60019050806108b9576040517f08c379a00000000000000000000000000000000000000000000000000000000081526004016108b0906113ca565b60405180910390fd5b6000600560016101000a81548160ff02191690831515021790555060019250505095945050505050565b600082600360003373ffffffffffffffffffffffffffffffffffffffff1673ffffffffffffffffffffffffffffffffffffffff16815260200190815260200160002060008673ffffffffffffffffffffffffffffffffffffffff1673ffffffffffffffffffffffffffffffffffffffff16815260200190815260200160002081905550600080835191506020840151905081602061098191906114f1565b600861098d9190611497565b81901c905061099b81610c5e565b6001925050509392505050565b600060011515600160008573ffffffffffffffffffffffffffffffffffffffff1673ffffffffffffffffffffffffffffffffffffffff16815260200190815260200160002060009054906101000a900460ff16151514610a3d576040517f08c379a0000000000000000000000000000000000000000000000000000000008152600401610a349061132a565b60405180910390fd5b6000610a4a843385610cf7565b905080610a8c576040517f08c379a0000000000000000000000000000000000000000000000000000000008152600401610a83906113ea565b60405180910390fd5b600191505092915050565b600082600460003373ffffffffffffffffffffffffffffffffffffffff1673ffffffffffffffffffffffffffffffffffffffff16815260200190815260200160002060008673ffffffffffffffffffffffffffffffffffffffff1673ffffffffffffffffffffffffffffffffffffffff168152602001908152602001600020819055506000808351915060208401519050816020610b3591906114f1565b6008610b419190611497565b81901c9050610b4f81610c5e565b6001925050509392505050565b6000846000806101000a81548173ffffffffffffffffffffffffffffffffffffffff021916908373ffffffffffffffffffffffffffffffffffffffff16021790555060008060009054906101000a900473ffffffffffffffffffffffffffffffffffffffff1673ffffffffffffffffffffffffffffffffffffffff166323b872dd8686866040518463ffffffff1660e01b8152600401610bfe9392919061126f565b602060405180830381600087803b158015610c1857600080fd5b505af1158015610c2c573d6000803e3d6000fd5b505050506040513d601f19601f82011682018060405250810190610c5091906110a2565b905080915050949350505050565b610cf481604051602401610c72919061140a565b6040516020818303038152906040527ff5b1bba9000000000000000000000000000000000000000000000000000000007bffffffffffffffffffffffffffffffffffffffffffffffffffffffff19166020820180517bffffffffffffffffffffffffffffffffffffffffffffffffffffffff8381831617835250505050610df6565b50565b6000836000806101000a81548173ffffffffffffffffffffffffffffffffffffffff021916908373ffffffffffffffffffffffffffffffffffffffff16021790555060008060009054906101000a900473ffffffffffffffffffffffffffffffffffffffff1673ffffffffffffffffffffffffffffffffffffffff1663a9059cbb85856040518363ffffffff1660e01b8152600401610d979291906112a6565b602060405180830381600087803b158015610db157600080fd5b505af1158015610dc5573d6000803e3d6000fd5b505050506040513d601f19601f82011682018060405250810190610de991906110a2565b9050809150509392505050565b60008151905060006a636f6e736f6c652e6c6f679050602083016000808483855afa5050505050565b6000610e32610e2d8461144a565b611425565b905082815260208101848484011115610e4e57610e4d611623565b5b610e59848285611580565b509392505050565b600081359050610e70816117b7565b92915050565b600081359050610e85816117ce565b92915050565b600081519050610e9a816117ce565b92915050565b600082601f830112610eb557610eb461161e565b5b8135610ec5848260208601610e1f565b91505092915050565b600081359050610edd816117e5565b92915050565b600081359050610ef2816117fc565b92915050565b60008060408385031215610f0f57610f0e61162d565b5b6000610f1d85828601610e61565b9250506020610f2e85828601610e76565b9150509250929050565b60008060408385031215610f4f57610f4e61162d565b5b6000610f5d85828601610e61565b9250506020610f6e85828601610ece565b9150509250929050565b600080600080600060a08688031215610f9457610f9361162d565b5b6000610fa288828901610e61565b9550506020610fb388828901610ece565b9450506040610fc488828901610e61565b9350506060610fd588828901610ece565b9250506080610fe688828901610e61565b9150509295509295909350565b60008060006060848603121561100c5761100b61162d565b5b600061101a86828701610e61565b935050602061102b86828701610ece565b925050604084013567ffffffffffffffff81111561104c5761104b611628565b5b61105886828701610ea0565b9150509250925092565b600080604083850312156110795761107861162d565b5b600061108785828601610e61565b925050602061109885828601610ee3565b9150509250929050565b6000602082840312156110b8576110b761162d565b5b60006110c684828501610e8b565b91505092915050565b6110d881611525565b82525050565b6110e781611537565b82525050565b60006110fa601883611486565b915061110582611643565b602082019050919050565b600061111d600783611486565b91506111288261166c565b602082019050919050565b6000611140601883611486565b915061114b82611695565b602082019050919050565b6000611163601a83611486565b915061116e826116be565b602082019050919050565b6000611186601a83611486565b9150611191826116e7565b602082019050919050565b60006111a9601583611486565b91506111b482611710565b602082019050919050565b60006111cc601483611486565b91506111d782611739565b602082019050919050565b60006111ef601483611486565b91506111fa82611762565b602082019050919050565b600061121260008361147b565b915061121d8261178b565b600082019050919050565b6000611235601283611486565b91506112408261178e565b602082019050919050565b61125481611563565b82525050565b600061126582611205565b9150819050919050565b600060608201905061128460008301866110cf565b61129160208301856110cf565b61129e604083018461124b565b949350505050565b60006040820190506112bb60008301856110cf565b6112c8602083018461124b565b9392505050565b60006020820190506112e460008301846110de565b92915050565b60006020820190508181036000830152611303816110ed565b9050919050565b6000602082019050818103600083015261132381611110565b9050919050565b6000602082019050818103600083015261134381611133565b9050919050565b6000602082019050818103600083015261136381611156565b9050919050565b6000602082019050818103600083015261138381611179565b9050919050565b600060208201905081810360008301526113a38161119c565b9050919050565b600060208201905081810360008301526113c3816111bf565b9050919050565b600060208201905081810360008301526113e3816111e2565b9050919050565b6000602082019050818103600083015261140381611228565b9050919050565b600060208201905061141f600083018461124b565b92915050565b600061142f611440565b905061143b828261158f565b919050565b6000604051905090565b600067ffffffffffffffff821115611465576114646115ef565b5b61146e82611632565b9050602081019050919050565b600081905092915050565b600082825260208201905092915050565b60006114a282611563565b91506114ad83611563565b9250817fffffffffffffffffffffffffffffffffffffffffffffffffffffffffffffffff04831182151516156114e6576114e56115c0565b5b828202905092915050565b60006114fc82611563565b915061150783611563565b92508282101561151a576115196115c0565b5b828203905092915050565b600061153082611543565b9050919050565b60008115159050919050565b600073ffffffffffffffffffffffffffffffffffffffff82169050919050565b6000819050919050565b600066ffffffffffffff82169050919050565b82818337600083830152505050565b61159882611632565b810181811067ffffffffffffffff821117156115b7576115b66115ef565b5b80604052505050565b7f4e487b7100000000000000000000000000000000000000000000000000000000600052601160045260246000fd5b7f4e487b7100000000000000000000000000000000000000000000000000000000600052604160045260246000fd5b600080fd5b600080fd5b600080fd5b600080fd5b6000601f19601f8301169050919050565b7f5265656e7472616e742063616c6c206465746563746564210000000000000000600082015250565b7f4e6f204175746800000000000000000000000000000000000000000000000000600082015250565b7f496e76616c696420636f6e747261637420616464726573730000000000000000600082015250565b7f496e76616c696420636f6e747261637420616464726573732062000000000000600082015250565b7f496e76616c696420636f6e747261637420616464726573732061000000000000600082015250565b7f42616c616e6365206f7574206f6620626f756e64730000000000000000000000600082015250565b7f53656e64696e6720657468206661696c65642061000000000000000000000000600082015250565b7f53656e64696e6720657468206661696c65642062000000000000000000000000600082015250565b50565b7f53656e64696e6720657468206661696c65640000000000000000000000000000600082015250565b6117c081611525565b81146117cb57600080fd5b50565b6117d781611537565b81146117e257600080fd5b50565b6117ee81611563565b81146117f957600080fd5b50565b6118058161156d565b811461181057600080fd5b5056fea2646970667358221220a4904aa9301e956c38fcbba430d9a7d1288fa580af25edae1725f45f5a5eeae564736f6c63430008070033",
  "linkReferences": {},
  "deployedLinkReferences": {}
}