{
  "_format": "hh-sol-artifact-1",
  "contractName": "SwapToken",
  "sourceName": "contracts/SwapToken.sol",
  "abi": [
    {
      "inputs": [
        {
          "internalType": "address",
          "name": "owner",
          "type": "address"
        },
        {
          "internalType": "address[]",
          "name": "contracts",
          "type": "address[]"
        }
      ],
      "stateMutability": "payable",
      "type": "constructor"
    },
    {
      "inputs": [
        {
          "internalType": "address",
          "name": "contractAddress",
          "type": "address"
        },
        {
          "internalType": "uint256",
          "name": "amount",
          "type": "uint256"
        }
      ],
      "name": "approve",
      "outputs": [
        {
          "internalType": "bool",
          "name": "",
          "type": "bool"
        }
      ],
      "stateMutability": "nonpayable",
      "type": "function"
    },
    {
      "inputs": [
        {
          "internalType": "address",
          "name": "contractAddress",
          "type": "address"
        },
        {
          "internalType": "uint256",
          "name": "amount",
          "type": "uint256"
        }
      ],
      "name": "ethToToken",
      "outputs": [
        {
          "internalType": "bool",
          "name": "",
          "type": "bool"
        }
      ],
      "stateMutability": "payable",
      "type": "function"
    },
    {
      "inputs": [
        {
          "internalType": "address",
          "name": "from",
          "type": "address"
        },
        {
          "internalType": "uint256",
          "name": "_amount",
          "type": "uint256"
        },
        {
          "internalType": "address",
          "name": "_token",
          "type": "address"
        },
        {
          "internalType": "bytes",
          "name": "_data",
          "type": "bytes"
        }
      ],
      "name": "receiveApproval",
      "outputs": [
        {
          "internalType": "bool",
          "name": "",
          "type": "bool"
        }
      ],
      "stateMutability": "nonpayable",
      "type": "function"
    },
    {
      "inputs": [
        {
          "internalType": "address",
          "name": "from",
          "type": "address"
        },
        {
          "internalType": "uint256",
          "name": "_amount",
          "type": "uint256"
        },
        {
          "internalType": "bytes",
          "name": "_data",
          "type": "bytes"
        }
      ],
      "name": "receiveToken",
      "outputs": [
        {
          "internalType": "bool",
          "name": "",
          "type": "bool"
        }
      ],
      "stateMutability": "nonpayable",
      "type": "function"
    },
    {
      "inputs": [
        {
          "internalType": "address",
          "name": "contractAddress",
          "type": "address"
        },
        {
          "internalType": "bool",
          "name": "state",
          "type": "bool"
        }
      ],
      "name": "saveContract",
      "outputs": [
        {
          "internalType": "bool",
          "name": "",
          "type": "bool"
        }
      ],
      "stateMutability": "nonpayable",
      "type": "function"
    },
    {
      "inputs": [
        {
          "internalType": "address",
          "name": "contractAddress",
          "type": "address"
        },
        {
          "internalType": "uint56",
          "name": "amount",
          "type": "uint56"
        }
      ],
      "name": "tokenToEth",
      "outputs": [
        {
          "internalType": "bool",
          "name": "",
          "type": "bool"
        }
      ],
      "stateMutability": "nonpayable",
      "type": "function"
    },
    {
      "inputs": [
        {
          "internalType": "address",
          "name": "contractA",
          "type": "address"
        },
        {
          "internalType": "uint256",
          "name": "amountA",
          "type": "uint256"
        },
        {
          "internalType": "address",
          "name": "contractB",
          "type": "address"
        },
        {
          "internalType": "uint256",
          "name": "amountB",
          "type": "uint256"
        },
        {
          "internalType": "address",
          "name": "target",
          "type": "address"
        }
      ],
      "name": "tokenToToken",
      "outputs": [
        {
          "internalType": "bool",
          "name": "",
          "type": "bool"
        }
      ],
      "stateMutability": "nonpayable",
      "type": "function"
    }
  ],
  "bytecode": "0x60806040526000600560006101000a81548160ff0219169083151502179055506000600560016101000a81548160ff02191690831515021790555060405162001e4138038062001e4183398181016040528101906200005f919062000205565b60005b8151811015620000f6576001806000848481518110620000875762000086620003b4565b5b602002602001015173ffffffffffffffffffffffffffffffffffffffff1673ffffffffffffffffffffffffffffffffffffffff16815260200190815260200160002060006101000a81548160ff0219169083151502179055508080620000ed9062000337565b91505062000062565b5081600260006101000a81548173ffffffffffffffffffffffffffffffffffffffff021916908373ffffffffffffffffffffffffffffffffffffffff160217905550505062000451565b600062000157620001518462000294565b6200026b565b905080838252602082019050828560208602820111156200017d576200017c62000417565b5b60005b85811015620001b15781620001968882620001bb565b84526020840193506020830192505060018101905062000180565b5050509392505050565b600081519050620001cc8162000437565b92915050565b600082601f830112620001ea57620001e962000412565b5b8151620001fc84826020860162000140565b91505092915050565b600080604083850312156200021f576200021e62000421565b5b60006200022f85828601620001bb565b925050602083015167ffffffffffffffff8111156200025357620002526200041c565b5b6200026185828601620001d2565b9150509250929050565b6000620002776200028a565b905062000285828262000301565b919050565b6000604051905090565b600067ffffffffffffffff821115620002b257620002b1620003e3565b5b602082029050602081019050919050565b6000620002d082620002d7565b9050919050565b600073ffffffffffffffffffffffffffffffffffffffff82169050919050565b6000819050919050565b6200030c8262000426565b810181811067ffffffffffffffff821117156200032e576200032d620003e3565b5b80604052505050565b60006200034482620002f7565b91507fffffffffffffffffffffffffffffffffffffffffffffffffffffffffffffffff8214156200037a576200037962000385565b5b600182019050919050565b7f4e487b7100000000000000000000000000000000000000000000000000000000600052601160045260246000fd5b7f4e487b7100000000000000000000000000000000000000000000000000000000600052603260045260246000fd5b7f4e487b7100000000000000000000000000000000000000000000000000000000600052604160045260246000fd5b600080fd5b600080fd5b600080fd5b600080fd5b6000601f19601f8301169050919050565b6200044281620002c3565b81146200044e57600080fd5b50565b6119e080620004616000396000f3fe6080604052600436106100705760003560e01c8063846a490f1161004e578063846a490f1461012c5780638f4ffcb114610169578063d91efc3b146101a6578063e418f592146101d657610070565b8063095ea7b31461007557806329522520146100b257806347cf372b146100ef575b600080fd5b34801561008157600080fd5b5061009c6004803603810190610097919061104c565b610213565b6040516100a99190611466565b60405180910390f35b3480156100be57600080fd5b506100d960048036038101906100d4919061100c565b61030a565b6040516100e69190611466565b60405180910390f35b3480156100fb57600080fd5b50610116600480360381019061011191906111f9565b6103fd565b6040516101239190611466565b60405180910390f35b34801561013857600080fd5b50610153600480360381019061014e919061110f565b61067e565b6040516101609190611466565b60405180910390f35b34801561017557600080fd5b50610190600480360381019061018b919061108c565b6108e3565b60405161019d9190611466565b60405180910390f35b6101c060048036038101906101bb919061104c565b610abc565b6040516101cd9190611466565b60405180910390f35b3480156101e257600080fd5b506101fd60048036038101906101f8919061118a565b610bab565b60405161020a9190611466565b60405180910390f35b6000826000806101000a81548173ffffffffffffffffffffffffffffffffffffffff021916908373ffffffffffffffffffffffffffffffffffffffff16021790555060008054906101000a900473ffffffffffffffffffffffffffffffffffffffff1673ffffffffffffffffffffffffffffffffffffffff1663095ea7b330846040518363ffffffff1660e01b81526004016102b092919061143d565b602060405180830381600087803b1580156102ca57600080fd5b505af11580156102de573d6000803e3d6000fd5b505050506040513d601f19601f820116820180604052508101906103029190611239565b905092915050565b6000600260009054906101000a900473ffffffffffffffffffffffffffffffffffffffff1673ffffffffffffffffffffffffffffffffffffffff163373ffffffffffffffffffffffffffffffffffffffff161461039c576040517f08c379a0000000000000000000000000000000000000000000000000000000008152600401610393906114a1565b60405180910390fd5b81600160008573ffffffffffffffffffffffffffffffffffffffff1673ffffffffffffffffffffffffffffffffffffffff16815260200190815260200160002060006101000a81548160ff0219169083151502179055506001905092915050565b600060011515600160008573ffffffffffffffffffffffffffffffffffffffff1673ffffffffffffffffffffffffffffffffffffffff16815260200190815260200160002060009054906101000a900460ff16151514610492576040517f08c379a0000000000000000000000000000000000000000000000000000000008152600401610489906114c1565b60405180910390fd5b8166ffffffffffffff164710156104de576040517f08c379a00000000000000000000000000000000000000000000000000000000081526004016104d590611521565b60405180910390fd5b600560009054906101000a900460ff161561052e576040517f08c379a000000000000000000000000000000000000000000000000000000000815260040161052590611481565b60405180910390fd5b6001600560006101000a81548160ff02191690831515021790555060006105608433308666ffffffffffffff16610c70565b9050806105a2576040517f08c379a000000000000000000000000000000000000000000000000000000000815260040161059990611581565b60405180910390fd5b60003373ffffffffffffffffffffffffffffffffffffffff168466ffffffffffffff166040516105d1906113f1565b60006040518083038185875af1925050503d806000811461060e576040519150601f19603f3d011682016040523d82523d6000602084013e610613565b606091505b5050905080610657576040517f08c379a000000000000000000000000000000000000000000000000000000000815260040161064e90611581565b60405180910390fd5b6000600560006101000a81548160ff02191690831515021790555060019250505092915050565b600060011515600160008873ffffffffffffffffffffffffffffffffffffffff1673ffffffffffffffffffffffffffffffffffffffff16815260200190815260200160002060009054906101000a900460ff16151514610713576040517f08c379a000000000000000000000000000000000000000000000000000000000815260040161070a90611501565b60405180910390fd5b60011515600160008673ffffffffffffffffffffffffffffffffffffffff1673ffffffffffffffffffffffffffffffffffffffff16815260200190815260200160002060009054906101000a900460ff161515146107a6576040517f08c379a000000000000000000000000000000000000000000000000000000000815260040161079d906114e1565b60405180910390fd5b600560009054906101000a900460ff16156107f6576040517f08c379a00000000000000000000000000000000000000000000000000000000081526004016107ed90611481565b60405180910390fd5b6001600560016101000a81548160ff021916908315150217905550600061081f87338589610c70565b9050600061082f86853388610c70565b90506001915081610875576040517f08c379a000000000000000000000000000000000000000000000000000000000815260040161086c90611541565b60405180910390fd5b60019050806108b9576040517f08c379a00000000000000000000000000000000000000000000000000000000081526004016108b090611561565b60405180910390fd5b6000600560016101000a81548160ff02191690831515021790555060019250505095945050505050565b6000600160008473ffffffffffffffffffffffffffffffffffffffff1673ffffffffffffffffffffffffffffffffffffffff16815260200190815260200160002060009054906101000a900460ff1661093f5760009050610ab4565b60008411156109e2576001600360008573ffffffffffffffffffffffffffffffffffffffff1673ffffffffffffffffffffffffffffffffffffffff16815260200190815260200160002060008773ffffffffffffffffffffffffffffffffffffffff1673ffffffffffffffffffffffffffffffffffffffff16815260200190815260200160002060006101000a81548160ff021916908315150217905550610a78565b6000600360008573ffffffffffffffffffffffffffffffffffffffff1673ffffffffffffffffffffffffffffffffffffffff16815260200190815260200160002060008773ffffffffffffffffffffffffffffffffffffffff1673ffffffffffffffffffffffffffffffffffffffff16815260200190815260200160002060006101000a81548160ff0219169083151502179055505b6000808351915060208401519050816020610a939190611688565b6008610a9f919061162e565b81901c9050610aad81610d72565b6001925050505b949350505050565b600060011515600160008573ffffffffffffffffffffffffffffffffffffffff1673ffffffffffffffffffffffffffffffffffffffff16815260200190815260200160002060009054906101000a900460ff16151514610b51576040517f08c379a0000000000000000000000000000000000000000000000000000000008152600401610b48906114c1565b60405180910390fd5b6000610b5e843385610e0b565b905080610ba0576040517f08c379a0000000000000000000000000000000000000000000000000000000008152600401610b9790611581565b60405180910390fd5b600191505092915050565b600082600460003373ffffffffffffffffffffffffffffffffffffffff1673ffffffffffffffffffffffffffffffffffffffff16815260200190815260200160002060008673ffffffffffffffffffffffffffffffffffffffff1673ffffffffffffffffffffffffffffffffffffffff168152602001908152602001600020819055506000808351915060208401519050816020610c499190611688565b6008610c55919061162e565b81901c9050610c6381610d72565b6001925050509392505050565b6000846000806101000a81548173ffffffffffffffffffffffffffffffffffffffff021916908373ffffffffffffffffffffffffffffffffffffffff16021790555060008060009054906101000a900473ffffffffffffffffffffffffffffffffffffffff1673ffffffffffffffffffffffffffffffffffffffff166323b872dd8686866040518463ffffffff1660e01b8152600401610d1293929190611406565b602060405180830381600087803b158015610d2c57600080fd5b505af1158015610d40573d6000803e3d6000fd5b505050506040513d601f19601f82011682018060405250810190610d649190611239565b905080915050949350505050565b610e0881604051602401610d8691906115a1565b6040516020818303038152906040527ff5b1bba9000000000000000000000000000000000000000000000000000000007bffffffffffffffffffffffffffffffffffffffffffffffffffffffff19166020820180517bffffffffffffffffffffffffffffffffffffffffffffffffffffffff8381831617835250505050610f0a565b50565b6000836000806101000a81548173ffffffffffffffffffffffffffffffffffffffff021916908373ffffffffffffffffffffffffffffffffffffffff16021790555060008060009054906101000a900473ffffffffffffffffffffffffffffffffffffffff1673ffffffffffffffffffffffffffffffffffffffff1663a9059cbb85856040518363ffffffff1660e01b8152600401610eab92919061143d565b602060405180830381600087803b158015610ec557600080fd5b505af1158015610ed9573d6000803e3d6000fd5b505050506040513d601f19601f82011682018060405250810190610efd9190611239565b9050809150509392505050565b60008151905060006a636f6e736f6c652e6c6f679050602083016000808483855afa5050505050565b6000610f46610f41846115e1565b6115bc565b905082815260208101848484011115610f6257610f616117ba565b5b610f6d848285611717565b509392505050565b600081359050610f848161194e565b92915050565b600081359050610f9981611965565b92915050565b600081519050610fae81611965565b92915050565b600082601f830112610fc957610fc86117b5565b5b8135610fd9848260208601610f33565b91505092915050565b600081359050610ff18161197c565b92915050565b60008135905061100681611993565b92915050565b60008060408385031215611023576110226117c4565b5b600061103185828601610f75565b925050602061104285828601610f8a565b9150509250929050565b60008060408385031215611063576110626117c4565b5b600061107185828601610f75565b925050602061108285828601610fe2565b9150509250929050565b600080600080608085870312156110a6576110a56117c4565b5b60006110b487828801610f75565b94505060206110c587828801610fe2565b93505060406110d687828801610f75565b925050606085013567ffffffffffffffff8111156110f7576110f66117bf565b5b61110387828801610fb4565b91505092959194509250565b600080600080600060a0868803121561112b5761112a6117c4565b5b600061113988828901610f75565b955050602061114a88828901610fe2565b945050604061115b88828901610f75565b935050606061116c88828901610fe2565b925050608061117d88828901610f75565b9150509295509295909350565b6000806000606084860312156111a3576111a26117c4565b5b60006111b186828701610f75565b93505060206111c286828701610fe2565b925050604084013567ffffffffffffffff8111156111e3576111e26117bf565b5b6111ef86828701610fb4565b9150509250925092565b600080604083850312156112105761120f6117c4565b5b600061121e85828601610f75565b925050602061122f85828601610ff7565b9150509250929050565b60006020828403121561124f5761124e6117c4565b5b600061125d84828501610f9f565b91505092915050565b61126f816116bc565b82525050565b61127e816116ce565b82525050565b600061129160188361161d565b915061129c826117da565b602082019050919050565b60006112b460078361161d565b91506112bf82611803565b602082019050919050565b60006112d760188361161d565b91506112e28261182c565b602082019050919050565b60006112fa601a8361161d565b915061130582611855565b602082019050919050565b600061131d601a8361161d565b91506113288261187e565b602082019050919050565b600061134060158361161d565b915061134b826118a7565b602082019050919050565b600061136360148361161d565b915061136e826118d0565b602082019050919050565b600061138660148361161d565b9150611391826118f9565b602082019050919050565b60006113a9600083611612565b91506113b482611922565b600082019050919050565b60006113cc60128361161d565b91506113d782611925565b602082019050919050565b6113eb816116fa565b82525050565b60006113fc8261139c565b9150819050919050565b600060608201905061141b6000830186611266565b6114286020830185611266565b61143560408301846113e2565b949350505050565b60006040820190506114526000830185611266565b61145f60208301846113e2565b9392505050565b600060208201905061147b6000830184611275565b92915050565b6000602082019050818103600083015261149a81611284565b9050919050565b600060208201905081810360008301526114ba816112a7565b9050919050565b600060208201905081810360008301526114da816112ca565b9050919050565b600060208201905081810360008301526114fa816112ed565b9050919050565b6000602082019050818103600083015261151a81611310565b9050919050565b6000602082019050818103600083015261153a81611333565b9050919050565b6000602082019050818103600083015261155a81611356565b9050919050565b6000602082019050818103600083015261157a81611379565b9050919050565b6000602082019050818103600083015261159a816113bf565b9050919050565b60006020820190506115b660008301846113e2565b92915050565b60006115c66115d7565b90506115d28282611726565b919050565b6000604051905090565b600067ffffffffffffffff8211156115fc576115fb611786565b5b611605826117c9565b9050602081019050919050565b600081905092915050565b600082825260208201905092915050565b6000611639826116fa565b9150611644836116fa565b9250817fffffffffffffffffffffffffffffffffffffffffffffffffffffffffffffffff048311821515161561167d5761167c611757565b5b828202905092915050565b6000611693826116fa565b915061169e836116fa565b9250828210156116b1576116b0611757565b5b828203905092915050565b60006116c7826116da565b9050919050565b60008115159050919050565b600073ffffffffffffffffffffffffffffffffffffffff82169050919050565b6000819050919050565b600066ffffffffffffff82169050919050565b82818337600083830152505050565b61172f826117c9565b810181811067ffffffffffffffff8211171561174e5761174d611786565b5b80604052505050565b7f4e487b7100000000000000000000000000000000000000000000000000000000600052601160045260246000fd5b7f4e487b7100000000000000000000000000000000000000000000000000000000600052604160045260246000fd5b600080fd5b600080fd5b600080fd5b600080fd5b6000601f19601f8301169050919050565b7f5265656e7472616e742063616c6c206465746563746564210000000000000000600082015250565b7f4e6f204175746800000000000000000000000000000000000000000000000000600082015250565b7f496e76616c696420636f6e747261637420616464726573730000000000000000600082015250565b7f496e76616c696420636f6e747261637420616464726573732062000000000000600082015250565b7f496e76616c696420636f6e747261637420616464726573732061000000000000600082015250565b7f42616c616e6365206f7574206f6620626f756e64730000000000000000000000600082015250565b7f53656e64696e6720657468206661696c65642061000000000000000000000000600082015250565b7f53656e64696e6720657468206661696c65642062000000000000000000000000600082015250565b50565b7f53656e64696e6720657468206661696c65640000000000000000000000000000600082015250565b611957816116bc565b811461196257600080fd5b50565b61196e816116ce565b811461197957600080fd5b50565b611985816116fa565b811461199057600080fd5b50565b61199c81611704565b81146119a757600080fd5b5056fea26469706673582212203ee577725e721debaba4eac563514603ce5308533dbfd5bd7e329bc7143d7f0e64736f6c63430008070033",
  "linkReferences": {},
  "deployedLinkReferences": {}
}