{
  "_format": "hh-sol-artifact-1",
  "contractName": "SwapToken",
  "sourceName": "contracts/SwapToken.sol",
  "abi": [
    {
      "inputs": [
        {
          "internalType": "address",
          "name": "owner",
          "type": "address"
        },
        {
          "internalType": "address[]",
          "name": "contracts",
          "type": "address[]"
        }
      ],
      "stateMutability": "payable",
      "type": "constructor"
    },
    {
      "inputs": [
        {
          "internalType": "address",
          "name": "contractAddress",
          "type": "address"
        },
        {
          "internalType": "uint256",
          "name": "amount",
          "type": "uint256"
        }
      ],
      "name": "ethToToken",
      "outputs": [
        {
          "internalType": "bool",
          "name": "",
          "type": "bool"
        }
      ],
      "stateMutability": "payable",
      "type": "function"
    },
    {
      "inputs": [
        {
          "internalType": "address",
          "name": "contractAddress",
          "type": "address"
        },
        {
          "internalType": "bool",
          "name": "state",
          "type": "bool"
        }
      ],
      "name": "saveContract",
      "outputs": [
        {
          "internalType": "bool",
          "name": "",
          "type": "bool"
        }
      ],
      "stateMutability": "nonpayable",
      "type": "function"
    },
    {
      "inputs": [
        {
          "internalType": "address",
          "name": "contractAddress",
          "type": "address"
        },
        {
          "internalType": "uint56",
          "name": "amount",
          "type": "uint56"
        }
      ],
      "name": "tokenToEth",
      "outputs": [
        {
          "internalType": "bool",
          "name": "",
          "type": "bool"
        }
      ],
      "stateMutability": "nonpayable",
      "type": "function"
    },
    {
      "inputs": [
        {
          "internalType": "address",
          "name": "contractA",
          "type": "address"
        },
        {
          "internalType": "uint256",
          "name": "amountA",
          "type": "uint256"
        },
        {
          "internalType": "address",
          "name": "contractB",
          "type": "address"
        },
        {
          "internalType": "uint256",
          "name": "amountB",
          "type": "uint256"
        },
        {
          "internalType": "address",
          "name": "target",
          "type": "address"
        }
      ],
      "name": "tokenToToken",
      "outputs": [
        {
          "internalType": "bool",
          "name": "",
          "type": "bool"
        }
      ],
      "stateMutability": "nonpayable",
      "type": "function"
    }
  ],
  "bytecode": "0x60806040526000600460006101000a81548160ff0219169083151502179055506000600460016101000a81548160ff021916908315150217905550604051620015e3380380620015e383398181016040528101906200005f919062000205565b60005b8151811015620000f6576001806000848481518110620000875762000086620003b4565b5b602002602001015173ffffffffffffffffffffffffffffffffffffffff1673ffffffffffffffffffffffffffffffffffffffff16815260200190815260200160002060006101000a81548160ff0219169083151502179055508080620000ed9062000337565b91505062000062565b5081600260006101000a81548173ffffffffffffffffffffffffffffffffffffffff021916908373ffffffffffffffffffffffffffffffffffffffff160217905550505062000451565b600062000157620001518462000294565b6200026b565b905080838252602082019050828560208602820111156200017d576200017c62000417565b5b60005b85811015620001b15781620001968882620001bb565b84526020840193506020830192505060018101905062000180565b5050509392505050565b600081519050620001cc8162000437565b92915050565b600082601f830112620001ea57620001e962000412565b5b8151620001fc84826020860162000140565b91505092915050565b600080604083850312156200021f576200021e62000421565b5b60006200022f85828601620001bb565b925050602083015167ffffffffffffffff8111156200025357620002526200041c565b5b6200026185828601620001d2565b9150509250929050565b6000620002776200028a565b905062000285828262000301565b919050565b6000604051905090565b600067ffffffffffffffff821115620002b257620002b1620003e3565b5b602082029050602081019050919050565b6000620002d082620002d7565b9050919050565b600073ffffffffffffffffffffffffffffffffffffffff82169050919050565b6000819050919050565b6200030c8262000426565b810181811067ffffffffffffffff821117156200032e576200032d620003e3565b5b80604052505050565b60006200034482620002f7565b91507fffffffffffffffffffffffffffffffffffffffffffffffffffffffffffffffff8214156200037a576200037962000385565b5b600182019050919050565b7f4e487b7100000000000000000000000000000000000000000000000000000000600052601160045260246000fd5b7f4e487b7100000000000000000000000000000000000000000000000000000000600052603260045260246000fd5b7f4e487b7100000000000000000000000000000000000000000000000000000000600052604160045260246000fd5b600080fd5b600080fd5b600080fd5b600080fd5b6000601f19601f8301169050919050565b6200044281620002c3565b81146200044e57600080fd5b50565b61118280620004616000396000f3fe60806040526004361061003f5760003560e01c8063295225201461004457806347cf372b14610081578063846a490f146100be578063d91efc3b146100fb575b600080fd5b34801561005057600080fd5b5061006b60048036038101906100669190610a5d565b61012b565b6040516100789190610dc5565b60405180910390f35b34801561008d57600080fd5b506100a860048036038101906100a39190610b58565b61021e565b6040516100b59190610dc5565b60405180910390f35b3480156100ca57600080fd5b506100e560048036038101906100e09190610add565b61049f565b6040516100f29190610dc5565b60405180910390f35b61011560048036038101906101109190610a9d565b610704565b6040516101229190610dc5565b60405180910390f35b6000600260009054906101000a900473ffffffffffffffffffffffffffffffffffffffff1673ffffffffffffffffffffffffffffffffffffffff163373ffffffffffffffffffffffffffffffffffffffff16146101bd576040517f08c379a00000000000000000000000000000000000000000000000000000000081526004016101b490610e00565b60405180910390fd5b81600160008573ffffffffffffffffffffffffffffffffffffffff1673ffffffffffffffffffffffffffffffffffffffff16815260200190815260200160002060006101000a81548160ff0219169083151502179055506001905092915050565b600060011515600160008573ffffffffffffffffffffffffffffffffffffffff1673ffffffffffffffffffffffffffffffffffffffff16815260200190815260200160002060009054906101000a900460ff161515146102b3576040517f08c379a00000000000000000000000000000000000000000000000000000000081526004016102aa90610e20565b60405180910390fd5b8166ffffffffffffff164710156102ff576040517f08c379a00000000000000000000000000000000000000000000000000000000081526004016102f690610e80565b60405180910390fd5b600460009054906101000a900460ff161561034f576040517f08c379a000000000000000000000000000000000000000000000000000000000815260040161034690610de0565b60405180910390fd5b6001600460006101000a81548160ff02191690831515021790555060006103818433308666ffffffffffffff166107f3565b9050806103c3576040517f08c379a00000000000000000000000000000000000000000000000000000000081526004016103ba90610ee0565b60405180910390fd5b60003373ffffffffffffffffffffffffffffffffffffffff168466ffffffffffffff166040516103f290610d50565b60006040518083038185875af1925050503d806000811461042f576040519150601f19603f3d011682016040523d82523d6000602084013e610434565b606091505b5050905080610478576040517f08c379a000000000000000000000000000000000000000000000000000000000815260040161046f90610ee0565b60405180910390fd5b6000600460006101000a81548160ff02191690831515021790555060019250505092915050565b600060011515600160008873ffffffffffffffffffffffffffffffffffffffff1673ffffffffffffffffffffffffffffffffffffffff16815260200190815260200160002060009054906101000a900460ff16151514610534576040517f08c379a000000000000000000000000000000000000000000000000000000000815260040161052b90610e60565b60405180910390fd5b60011515600160008673ffffffffffffffffffffffffffffffffffffffff1673ffffffffffffffffffffffffffffffffffffffff16815260200190815260200160002060009054906101000a900460ff161515146105c7576040517f08c379a00000000000000000000000000000000000000000000000000000000081526004016105be90610e40565b60405180910390fd5b600460009054906101000a900460ff1615610617576040517f08c379a000000000000000000000000000000000000000000000000000000000815260040161060e90610de0565b60405180910390fd5b6001600460016101000a81548160ff0219169083151502179055506000610640873385896107f3565b90506000610650868533886107f3565b90506001915081610696576040517f08c379a000000000000000000000000000000000000000000000000000000000815260040161068d90610ea0565b60405180910390fd5b60019050806106da576040517f08c379a00000000000000000000000000000000000000000000000000000000081526004016106d190610ec0565b60405180910390fd5b6000600460016101000a81548160ff02191690831515021790555060019250505095945050505050565b600060011515600160008573ffffffffffffffffffffffffffffffffffffffff1673ffffffffffffffffffffffffffffffffffffffff16815260200190815260200160002060009054906101000a900460ff16151514610799576040517f08c379a000000000000000000000000000000000000000000000000000000000815260040161079090610e20565b60405180910390fd5b60006107a68433856108f5565b9050806107e8576040517f08c379a00000000000000000000000000000000000000000000000000000000081526004016107df90610ee0565b60405180910390fd5b600191505092915050565b6000846000806101000a81548173ffffffffffffffffffffffffffffffffffffffff021916908373ffffffffffffffffffffffffffffffffffffffff16021790555060008060009054906101000a900473ffffffffffffffffffffffffffffffffffffffff1673ffffffffffffffffffffffffffffffffffffffff166323b872dd8686866040518463ffffffff1660e01b815260040161089593929190610d65565b602060405180830381600087803b1580156108af57600080fd5b505af11580156108c3573d6000803e3d6000fd5b505050506040513d601f19601f820116820180604052508101906108e79190610b98565b905080915050949350505050565b6000836000806101000a81548173ffffffffffffffffffffffffffffffffffffffff021916908373ffffffffffffffffffffffffffffffffffffffff16021790555060008060009054906101000a900473ffffffffffffffffffffffffffffffffffffffff1673ffffffffffffffffffffffffffffffffffffffff1663a9059cbb85856040518363ffffffff1660e01b8152600401610995929190610d9c565b602060405180830381600087803b1580156109af57600080fd5b505af11580156109c3573d6000803e3d6000fd5b505050506040513d601f19601f820116820180604052508101906109e79190610b98565b9050809150509392505050565b600081359050610a03816110f0565b92915050565b600081359050610a1881611107565b92915050565b600081519050610a2d81611107565b92915050565b600081359050610a428161111e565b92915050565b600081359050610a5781611135565b92915050565b60008060408385031215610a7457610a73610f77565b5b6000610a82858286016109f4565b9250506020610a9385828601610a09565b9150509250929050565b60008060408385031215610ab457610ab3610f77565b5b6000610ac2858286016109f4565b9250506020610ad385828601610a33565b9150509250929050565b600080600080600060a08688031215610af957610af8610f77565b5b6000610b07888289016109f4565b9550506020610b1888828901610a33565b9450506040610b29888289016109f4565b9350506060610b3a88828901610a33565b9250506080610b4b888289016109f4565b9150509295509295909350565b60008060408385031215610b6f57610b6e610f77565b5b6000610b7d858286016109f4565b9250506020610b8e85828601610a48565b9150509250929050565b600060208284031215610bae57610bad610f77565b5b6000610bbc84828501610a1e565b91505092915050565b610bce81610f1c565b82525050565b610bdd81610f2e565b82525050565b6000610bf0601883610f0b565b9150610bfb82610f7c565b602082019050919050565b6000610c13600783610f0b565b9150610c1e82610fa5565b602082019050919050565b6000610c36601883610f0b565b9150610c4182610fce565b602082019050919050565b6000610c59601a83610f0b565b9150610c6482610ff7565b602082019050919050565b6000610c7c601a83610f0b565b9150610c8782611020565b602082019050919050565b6000610c9f601583610f0b565b9150610caa82611049565b602082019050919050565b6000610cc2601483610f0b565b9150610ccd82611072565b602082019050919050565b6000610ce5601483610f0b565b9150610cf08261109b565b602082019050919050565b6000610d08600083610f00565b9150610d13826110c4565b600082019050919050565b6000610d2b601283610f0b565b9150610d36826110c7565b602082019050919050565b610d4a81610f5a565b82525050565b6000610d5b82610cfb565b9150819050919050565b6000606082019050610d7a6000830186610bc5565b610d876020830185610bc5565b610d946040830184610d41565b949350505050565b6000604082019050610db16000830185610bc5565b610dbe6020830184610d41565b9392505050565b6000602082019050610dda6000830184610bd4565b92915050565b60006020820190508181036000830152610df981610be3565b9050919050565b60006020820190508181036000830152610e1981610c06565b9050919050565b60006020820190508181036000830152610e3981610c29565b9050919050565b60006020820190508181036000830152610e5981610c4c565b9050919050565b60006020820190508181036000830152610e7981610c6f565b9050919050565b60006020820190508181036000830152610e9981610c92565b9050919050565b60006020820190508181036000830152610eb981610cb5565b9050919050565b60006020820190508181036000830152610ed981610cd8565b9050919050565b60006020820190508181036000830152610ef981610d1e565b9050919050565b600081905092915050565b600082825260208201905092915050565b6000610f2782610f3a565b9050919050565b60008115159050919050565b600073ffffffffffffffffffffffffffffffffffffffff82169050919050565b6000819050919050565b600066ffffffffffffff82169050919050565b600080fd5b7f5265656e7472616e742063616c6c206465746563746564210000000000000000600082015250565b7f4e6f204175746800000000000000000000000000000000000000000000000000600082015250565b7f496e76616c696420636f6e747261637420616464726573730000000000000000600082015250565b7f496e76616c696420636f6e747261637420616464726573732062000000000000600082015250565b7f496e76616c696420636f6e747261637420616464726573732061000000000000600082015250565b7f42616c616e6365206f7574206f6620626f756e64730000000000000000000000600082015250565b7f53656e64696e6720657468206661696c65642061000000000000000000000000600082015250565b7f53656e64696e6720657468206661696c65642062000000000000000000000000600082015250565b50565b7f53656e64696e6720657468206661696c65640000000000000000000000000000600082015250565b6110f981610f1c565b811461110457600080fd5b50565b61111081610f2e565b811461111b57600080fd5b50565b61112781610f5a565b811461113257600080fd5b50565b61113e81610f64565b811461114957600080fd5b5056fea264697066735822122058aad6cfb70946c4b84933f94d118d114845a4d3a0bb960a105a7994add0f87064736f6c63430008070033",
  "linkReferences": {},
  "deployedLinkReferences": {}
}