{
  "_format": "hh-sol-artifact-1",
  "contractName": "SwapToken",
  "sourceName": "contracts/SwapToken.sol",
  "abi": [
    {
      "inputs": [
        {
          "internalType": "address",
          "name": "contractAddress",
          "type": "address"
        }
      ],
      "stateMutability": "payable",
      "type": "constructor"
    },
    {
      "inputs": [],
      "name": "allowance",
      "outputs": [
        {
          "internalType": "uint256",
          "name": "",
          "type": "uint256"
        }
      ],
      "stateMutability": "view",
      "type": "function"
    },
    {
      "inputs": [
        {
          "internalType": "uint256",
          "name": "amount",
          "type": "uint256"
        }
      ],
      "name": "approve",
      "outputs": [
        {
          "internalType": "bool",
          "name": "",
          "type": "bool"
        }
      ],
      "stateMutability": "nonpayable",
      "type": "function"
    },
    {
      "inputs": [
        {
          "internalType": "address",
          "name": "addr",
          "type": "address"
        }
      ],
      "name": "balanceOf",
      "outputs": [
        {
          "internalType": "uint256",
          "name": "",
          "type": "uint256"
        }
      ],
      "stateMutability": "view",
      "type": "function"
    },
    {
      "inputs": [],
      "name": "test",
      "outputs": [
        {
          "internalType": "address",
          "name": "",
          "type": "address"
        }
      ],
      "stateMutability": "view",
      "type": "function"
    },
    {
      "inputs": [
        {
          "internalType": "uint256",
          "name": "amount",
          "type": "uint256"
        }
      ],
      "name": "transferToContract",
      "outputs": [
        {
          "internalType": "bool",
          "name": "",
          "type": "bool"
        }
      ],
      "stateMutability": "nonpayable",
      "type": "function"
    },
    {
      "inputs": [
        {
          "internalType": "address",
          "name": "owner",
          "type": "address"
        },
        {
          "internalType": "address",
          "name": "user",
          "type": "address"
        },
        {
          "internalType": "uint256",
          "name": "amount",
          "type": "uint256"
        }
      ],
      "name": "transferToContractTest",
      "outputs": [
        {
          "internalType": "bool",
          "name": "",
          "type": "bool"
        }
      ],
      "stateMutability": "nonpayable",
      "type": "function"
    }
  ],
  "bytecode": "0x6080604052604051610a0d380380610a0d833981810160405281019061002591906100c1565b806000806101000a81548173ffffffffffffffffffffffffffffffffffffffff021916908373ffffffffffffffffffffffffffffffffffffffff16021790555080600160006101000a81548173ffffffffffffffffffffffffffffffffffffffff021916908373ffffffffffffffffffffffffffffffffffffffff16021790555050610133565b6000815190506100bb8161011c565b92915050565b6000602082840312156100d357600080fd5b60006100e1848285016100ac565b91505092915050565b60006100f5826100fc565b9050919050565b600073ffffffffffffffffffffffffffffffffffffffff82169050919050565b610125816100ea565b811461013057600080fd5b50565b6108cb806101426000396000f3fe608060405234801561001057600080fd5b50600436106100625760003560e01c806302ff9e6e1461006757806370a0823114610097578063b759f954146100c7578063d555d473146100f7578063de242ff414610127578063f8a8fd6d14610145575b600080fd5b610081600480360381019061007c9190610660565b610163565b60405161008e91906107d2565b60405180910390f35b6100b160048036038101906100ac919061060e565b610221565b6040516100be91906107ed565b60405180910390f35b6100e160048036038101906100dc91906106d8565b6102d4565b6040516100ee91906107d2565b60405180910390f35b610111600480360381019061010c91906106d8565b610390565b60405161011e91906107d2565b60405180910390f35b61012f61044c565b60405161013c91906107ed565b60405180910390f35b61014d6104ff565b60405161015a9190610757565b60405180910390f35b60008060009054906101000a900473ffffffffffffffffffffffffffffffffffffffff1673ffffffffffffffffffffffffffffffffffffffff166323b872dd8585856040518463ffffffff1660e01b81526004016101c39392919061079b565b602060405180830381600087803b1580156101dd57600080fd5b505af11580156101f1573d6000803e3d6000fd5b505050506040513d601f19601f8201168201806040525081019061021591906106af565b50600190509392505050565b60008060009054906101000a900473ffffffffffffffffffffffffffffffffffffffff1673ffffffffffffffffffffffffffffffffffffffff166370a08231836040518263ffffffff1660e01b815260040161027d9190610757565b60206040518083038186803b15801561029557600080fd5b505afa1580156102a9573d6000803e3d6000fd5b505050506040513d601f19601f820116820180604052508101906102cd9190610701565b9050919050565b60008060009054906101000a900473ffffffffffffffffffffffffffffffffffffffff1673ffffffffffffffffffffffffffffffffffffffff1663e1f21c673330856040518463ffffffff1660e01b81526004016103349392919061079b565b602060405180830381600087803b15801561034e57600080fd5b505af1158015610362573d6000803e3d6000fd5b505050506040513d601f19601f8201168201806040525081019061038691906106af565b5060019050919050565b60008060009054906101000a900473ffffffffffffffffffffffffffffffffffffffff1673ffffffffffffffffffffffffffffffffffffffff166323b872dd3330856040518463ffffffff1660e01b81526004016103f09392919061079b565b602060405180830381600087803b15801561040a57600080fd5b505af115801561041e573d6000803e3d6000fd5b505050506040513d601f19601f8201168201806040525081019061044291906106af565b5060019050919050565b60008060009054906101000a900473ffffffffffffffffffffffffffffffffffffffff1673ffffffffffffffffffffffffffffffffffffffff1663dd62ed3e33306040518363ffffffff1660e01b81526004016104aa929190610772565b60206040518083038186803b1580156104c257600080fd5b505afa1580156104d6573d6000803e3d6000fd5b505050506040513d601f19601f820116820180604052508101906104fa9190610701565b905090565b60008060009054906101000a900473ffffffffffffffffffffffffffffffffffffffff1673ffffffffffffffffffffffffffffffffffffffff1663f8a8fd6d6040518163ffffffff1660e01b815260040160206040518083038186803b15801561056857600080fd5b505afa15801561057c573d6000803e3d6000fd5b505050506040513d601f19601f820116820180604052508101906105a09190610637565b905090565b6000813590506105b481610850565b92915050565b6000815190506105c981610850565b92915050565b6000815190506105de81610867565b92915050565b6000813590506105f38161087e565b92915050565b6000815190506106088161087e565b92915050565b60006020828403121561062057600080fd5b600061062e848285016105a5565b91505092915050565b60006020828403121561064957600080fd5b6000610657848285016105ba565b91505092915050565b60008060006060848603121561067557600080fd5b6000610683868287016105a5565b9350506020610694868287016105a5565b92505060406106a5868287016105e4565b9150509250925092565b6000602082840312156106c157600080fd5b60006106cf848285016105cf565b91505092915050565b6000602082840312156106ea57600080fd5b60006106f8848285016105e4565b91505092915050565b60006020828403121561071357600080fd5b6000610721848285016105f9565b91505092915050565b61073381610808565b82525050565b6107428161081a565b82525050565b61075181610846565b82525050565b600060208201905061076c600083018461072a565b92915050565b6000604082019050610787600083018561072a565b610794602083018461072a565b9392505050565b60006060820190506107b0600083018661072a565b6107bd602083018561072a565b6107ca6040830184610748565b949350505050565b60006020820190506107e76000830184610739565b92915050565b60006020820190506108026000830184610748565b92915050565b600061081382610826565b9050919050565b60008115159050919050565b600073ffffffffffffffffffffffffffffffffffffffff82169050919050565b6000819050919050565b61085981610808565b811461086457600080fd5b50565b6108708161081a565b811461087b57600080fd5b50565b61088781610846565b811461089257600080fd5b5056fea2646970667358221220c65fb163abbf774ff2ecf1ff2be366de3a649e1674d9ffdb5c14f6cf2dc59adb64736f6c63430008040033",
  "linkReferences": {},
  "deployedLinkReferences": {}
}