{
  "_format": "hh-sol-artifact-1",
  "contractName": "SwapToken",
  "sourceName": "contracts/SwapToken.sol",
  "abi": [
    {
      "inputs": [],
      "stateMutability": "payable",
      "type": "constructor"
    },
    {
      "inputs": [
        {
          "internalType": "address",
          "name": "contractAddress",
          "type": "address"
        },
        {
          "internalType": "address",
          "name": "sender",
          "type": "address"
        },
        {
          "internalType": "address",
          "name": "spender",
          "type": "address"
        },
        {
          "internalType": "uint256",
          "name": "amount",
          "type": "uint256"
        }
      ],
      "name": "transferFrom",
      "outputs": [
        {
          "internalType": "bool",
          "name": "",
          "type": "bool"
        }
      ],
      "stateMutability": "nonpayable",
      "type": "function"
    }
  ],
  "bytecode": "0x608060405233600160006101000a81548173ffffffffffffffffffffffffffffffffffffffff021916908373ffffffffffffffffffffffffffffffffffffffff160217905550610434806100546000396000f3fe608060405234801561001057600080fd5b506004361061002b5760003560e01c806315dacbea14610030575b600080fd5b61004a600480360381019061004591906101e9565b610060565b60405161005791906102fc565b60405180910390f35b6000846000806101000a81548173ffffffffffffffffffffffffffffffffffffffff021916908373ffffffffffffffffffffffffffffffffffffffff16021790555060008060009054906101000a900473ffffffffffffffffffffffffffffffffffffffff1673ffffffffffffffffffffffffffffffffffffffff166323b872dd8686866040518463ffffffff1660e01b8152600401610102939291906102c5565b602060405180830381600087803b15801561011c57600080fd5b505af1158015610130573d6000803e3d6000fd5b505050506040513d601f19601f82011682018060405250810190610154919061024c565b9050600115158115151461019d576040517f08c379a000000000000000000000000000000000000000000000000000000000815260040161019490610317565b60405180910390fd5b6001915050949350505050565b6000813590506101b9816103b9565b92915050565b6000815190506101ce816103d0565b92915050565b6000813590506101e3816103e7565b92915050565b600080600080608085870312156101ff57600080fd5b600061020d878288016101aa565b945050602061021e878288016101aa565b935050604061022f878288016101aa565b9250506060610240878288016101d4565b91505092959194509250565b60006020828403121561025e57600080fd5b600061026c848285016101bf565b91505092915050565b61027e81610348565b82525050565b61028d8161035a565b82525050565b60006102a0601183610337565b91506102ab82610390565b602082019050919050565b6102bf81610386565b82525050565b60006060820190506102da6000830186610275565b6102e76020830185610275565b6102f460408301846102b6565b949350505050565b60006020820190506103116000830184610284565b92915050565b6000602082019050818103600083015261033081610293565b9050919050565b600082825260208201905092915050565b600061035382610366565b9050919050565b60008115159050919050565b600073ffffffffffffffffffffffffffffffffffffffff82169050919050565b6000819050919050565b7f7472616e7366657246726f6d206661696c000000000000000000000000000000600082015250565b6103c281610348565b81146103cd57600080fd5b50565b6103d98161035a565b81146103e457600080fd5b50565b6103f081610386565b81146103fb57600080fd5b5056fea2646970667358221220e316abafa11f4e5643e9004614b50858c77b464a8f4dea7456b25ae7741b22ca64736f6c63430008040033",
  "linkReferences": {},
  "deployedLinkReferences": {}
}