{
  "_format": "hh-sol-artifact-1",
  "contractName": "SwapToken",
  "sourceName": "contracts/SwapToken.sol",
  "abi": [
    {
      "inputs": [
        {
          "internalType": "address",
          "name": "owner",
          "type": "address"
        },
        {
          "internalType": "address[]",
          "name": "contracts",
          "type": "address[]"
        }
      ],
      "stateMutability": "payable",
      "type": "constructor"
    },
    {
      "inputs": [
        {
          "internalType": "address",
          "name": "contractAddress",
          "type": "address"
        },
        {
          "internalType": "uint256",
          "name": "amount",
          "type": "uint256"
        }
      ],
      "name": "ethToToken",
      "outputs": [
        {
          "internalType": "bool",
          "name": "",
          "type": "bool"
        }
      ],
      "stateMutability": "payable",
      "type": "function"
    },
    {
      "inputs": [
        {
          "internalType": "address",
          "name": "contractAddress",
          "type": "address"
        },
        {
          "internalType": "bool",
          "name": "state",
          "type": "bool"
        }
      ],
      "name": "saveContract",
      "outputs": [
        {
          "internalType": "bool",
          "name": "",
          "type": "bool"
        }
      ],
      "stateMutability": "nonpayable",
      "type": "function"
    },
    {
      "inputs": [
        {
          "internalType": "address",
          "name": "contractAddress",
          "type": "address"
        },
        {
          "internalType": "uint56",
          "name": "amount",
          "type": "uint56"
        }
      ],
      "name": "tokenToEth",
      "outputs": [
        {
          "internalType": "bool",
          "name": "",
          "type": "bool"
        }
      ],
      "stateMutability": "nonpayable",
      "type": "function"
    },
    {
      "inputs": [
        {
          "internalType": "address",
          "name": "contractA",
          "type": "address"
        },
        {
          "internalType": "address",
          "name": "contractB",
          "type": "address"
        }
      ],
      "name": "tokenToToken",
      "outputs": [
        {
          "internalType": "bool",
          "name": "",
          "type": "bool"
        }
      ],
      "stateMutability": "nonpayable",
      "type": "function"
    }
  ],
  "bytecode": "0x60806040526000600460006101000a81548160ff021916908315150217905550604051620014bc380380620014bc833981810160405281019062000044919062000202565b60005b8151811015620000ff57600180600084848151811062000090577f4e487b7100000000000000000000000000000000000000000000000000000000600052603260045260246000fd5b602002602001015173ffffffffffffffffffffffffffffffffffffffff1673ffffffffffffffffffffffffffffffffffffffff16815260200190815260200160002060006101000a81548160ff0219169083151502179055508080620000f69062000328565b91505062000047565b5081600260006101000a81548173ffffffffffffffffffffffffffffffffffffffff021916908373ffffffffffffffffffffffffffffffffffffffff1602179055505050620003ff565b6000620001606200015a8462000285565b6200025c565b905080838252602082019050828560208602820111156200018057600080fd5b60005b85811015620001b45781620001998882620001be565b84526020840193506020830192505060018101905062000183565b5050509392505050565b600081519050620001cf81620003e5565b92915050565b600082601f830112620001e757600080fd5b8151620001f984826020860162000149565b91505092915050565b600080604083850312156200021657600080fd5b60006200022685828601620001be565b925050602083015167ffffffffffffffff8111156200024457600080fd5b6200025285828601620001d5565b9150509250929050565b6000620002686200027b565b9050620002768282620002f2565b919050565b6000604051905090565b600067ffffffffffffffff821115620002a357620002a2620003a5565b5b602082029050602081019050919050565b6000620002c182620002c8565b9050919050565b600073ffffffffffffffffffffffffffffffffffffffff82169050919050565b6000819050919050565b620002fd82620003d4565b810181811067ffffffffffffffff821117156200031f576200031e620003a5565b5b80604052505050565b60006200033582620002e8565b91507fffffffffffffffffffffffffffffffffffffffffffffffffffffffffffffffff8214156200036b576200036a62000376565b5b600182019050919050565b7f4e487b7100000000000000000000000000000000000000000000000000000000600052601160045260246000fd5b7f4e487b7100000000000000000000000000000000000000000000000000000000600052604160045260246000fd5b6000601f19601f8301169050919050565b620003f081620002b4565b8114620003fc57600080fd5b50565b6110ad806200040f6000396000f3fe60806040526004361061003f5760003560e01c8063295225201461004457806347cf372b14610081578063d91efc3b146100be578063de314396146100ee575b600080fd5b34801561005057600080fd5b5061006b60048036038101906100669190610a18565b61012b565b6040516100789190610cf5565b60405180910390f35b34801561008d57600080fd5b506100a860048036038101906100a39190610a90565b61021e565b6040516100b59190610cf5565b60405180910390f35b6100d860048036038101906100d39190610a54565b61049f565b6040516100e59190610cf5565b60405180910390f35b3480156100fa57600080fd5b50610115600480360381019061011091906109dc565b61058e565b6040516101229190610cf5565b60405180910390f35b6000600260009054906101000a900473ffffffffffffffffffffffffffffffffffffffff1673ffffffffffffffffffffffffffffffffffffffff163373ffffffffffffffffffffffffffffffffffffffff16146101bd576040517f08c379a00000000000000000000000000000000000000000000000000000000081526004016101b490610d30565b60405180910390fd5b81600160008573ffffffffffffffffffffffffffffffffffffffff1673ffffffffffffffffffffffffffffffffffffffff16815260200190815260200160002060006101000a81548160ff0219169083151502179055506001905092915050565b600060011515600160008573ffffffffffffffffffffffffffffffffffffffff1673ffffffffffffffffffffffffffffffffffffffff16815260200190815260200160002060009054906101000a900460ff161515146102b3576040517f08c379a00000000000000000000000000000000000000000000000000000000081526004016102aa90610d50565b60405180910390fd5b8166ffffffffffffff164710156102ff576040517f08c379a00000000000000000000000000000000000000000000000000000000081526004016102f690610db0565b60405180910390fd5b600460009054906101000a900460ff161561034f576040517f08c379a000000000000000000000000000000000000000000000000000000000815260040161034690610d10565b60405180910390fd5b6001600460006101000a81548160ff02191690831515021790555060006103818433308666ffffffffffffff16610772565b9050806103c3576040517f08c379a00000000000000000000000000000000000000000000000000000000081526004016103ba90610e10565b60405180910390fd5b60003373ffffffffffffffffffffffffffffffffffffffff168466ffffffffffffff166040516103f290610c80565b60006040518083038185875af1925050503d806000811461042f576040519150601f19603f3d011682016040523d82523d6000602084013e610434565b606091505b5050905080610478576040517f08c379a000000000000000000000000000000000000000000000000000000000815260040161046f90610e10565b60405180910390fd5b6000600460006101000a81548160ff02191690831515021790555060019250505092915050565b600060011515600160008573ffffffffffffffffffffffffffffffffffffffff1673ffffffffffffffffffffffffffffffffffffffff16815260200190815260200160002060009054906101000a900460ff16151514610534576040517f08c379a000000000000000000000000000000000000000000000000000000000815260040161052b90610d50565b60405180910390fd5b6000610541843385610874565b905080610583576040517f08c379a000000000000000000000000000000000000000000000000000000000815260040161057a90610e10565b60405180910390fd5b600191505092915050565b600060011515600160008573ffffffffffffffffffffffffffffffffffffffff1673ffffffffffffffffffffffffffffffffffffffff16815260200190815260200160002060009054906101000a900460ff16151514610623576040517f08c379a000000000000000000000000000000000000000000000000000000000815260040161061a90610d90565b60405180910390fd5b60011515600160008473ffffffffffffffffffffffffffffffffffffffff1673ffffffffffffffffffffffffffffffffffffffff16815260200190815260200160002060009054906101000a900460ff161515146106b6576040517f08c379a00000000000000000000000000000000000000000000000000000000081526004016106ad90610d70565b60405180910390fd5b60006106c584336103e8610874565b905060006106d684336107d0610874565b9050600115158215151461071f576040517f08c379a000000000000000000000000000000000000000000000000000000000815260040161071690610dd0565b60405180910390fd5b6001151581151514610766576040517f08c379a000000000000000000000000000000000000000000000000000000000815260040161075d90610df0565b60405180910390fd5b60019250505092915050565b6000846000806101000a81548173ffffffffffffffffffffffffffffffffffffffff021916908373ffffffffffffffffffffffffffffffffffffffff16021790555060008060009054906101000a900473ffffffffffffffffffffffffffffffffffffffff1673ffffffffffffffffffffffffffffffffffffffff166323b872dd8686866040518463ffffffff1660e01b815260040161081493929190610c95565b602060405180830381600087803b15801561082e57600080fd5b505af1158015610842573d6000803e3d6000fd5b505050506040513d601f19601f820116820180604052508101906108669190610acc565b905080915050949350505050565b6000836000806101000a81548173ffffffffffffffffffffffffffffffffffffffff021916908373ffffffffffffffffffffffffffffffffffffffff16021790555060008060009054906101000a900473ffffffffffffffffffffffffffffffffffffffff1673ffffffffffffffffffffffffffffffffffffffff1663a9059cbb85856040518363ffffffff1660e01b8152600401610914929190610ccc565b602060405180830381600087803b15801561092e57600080fd5b505af1158015610942573d6000803e3d6000fd5b505050506040513d601f19601f820116820180604052508101906109669190610acc565b9050809150509392505050565b6000813590506109828161101b565b92915050565b60008135905061099781611032565b92915050565b6000815190506109ac81611032565b92915050565b6000813590506109c181611049565b92915050565b6000813590506109d681611060565b92915050565b600080604083850312156109ef57600080fd5b60006109fd85828601610973565b9250506020610a0e85828601610973565b9150509250929050565b60008060408385031215610a2b57600080fd5b6000610a3985828601610973565b9250506020610a4a85828601610988565b9150509250929050565b60008060408385031215610a6757600080fd5b6000610a7585828601610973565b9250506020610a86858286016109b2565b9150509250929050565b60008060408385031215610aa357600080fd5b6000610ab185828601610973565b9250506020610ac2858286016109c7565b9150509250929050565b600060208284031215610ade57600080fd5b6000610aec8482850161099d565b91505092915050565b610afe81610e4c565b82525050565b610b0d81610e5e565b82525050565b6000610b20601883610e3b565b9150610b2b82610ea7565b602082019050919050565b6000610b43600783610e3b565b9150610b4e82610ed0565b602082019050919050565b6000610b66601883610e3b565b9150610b7182610ef9565b602082019050919050565b6000610b89601a83610e3b565b9150610b9482610f22565b602082019050919050565b6000610bac601a83610e3b565b9150610bb782610f4b565b602082019050919050565b6000610bcf601583610e3b565b9150610bda82610f74565b602082019050919050565b6000610bf2601483610e3b565b9150610bfd82610f9d565b602082019050919050565b6000610c15601483610e3b565b9150610c2082610fc6565b602082019050919050565b6000610c38600083610e30565b9150610c4382610fef565b600082019050919050565b6000610c5b601283610e3b565b9150610c6682610ff2565b602082019050919050565b610c7a81610e8a565b82525050565b6000610c8b82610c2b565b9150819050919050565b6000606082019050610caa6000830186610af5565b610cb76020830185610af5565b610cc46040830184610c71565b949350505050565b6000604082019050610ce16000830185610af5565b610cee6020830184610c71565b9392505050565b6000602082019050610d0a6000830184610b04565b92915050565b60006020820190508181036000830152610d2981610b13565b9050919050565b60006020820190508181036000830152610d4981610b36565b9050919050565b60006020820190508181036000830152610d6981610b59565b9050919050565b60006020820190508181036000830152610d8981610b7c565b9050919050565b60006020820190508181036000830152610da981610b9f565b9050919050565b60006020820190508181036000830152610dc981610bc2565b9050919050565b60006020820190508181036000830152610de981610be5565b9050919050565b60006020820190508181036000830152610e0981610c08565b9050919050565b60006020820190508181036000830152610e2981610c4e565b9050919050565b600081905092915050565b600082825260208201905092915050565b6000610e5782610e6a565b9050919050565b60008115159050919050565b600073ffffffffffffffffffffffffffffffffffffffff82169050919050565b6000819050919050565b600066ffffffffffffff82169050919050565b7f5265656e7472616e742063616c6c206465746563746564210000000000000000600082015250565b7f4e6f204175746800000000000000000000000000000000000000000000000000600082015250565b7f496e76616c696420636f6e747261637420616464726573730000000000000000600082015250565b7f496e76616c696420636f6e747261637420616464726573732062000000000000600082015250565b7f496e76616c696420636f6e747261637420616464726573732061000000000000600082015250565b7f42616c616e6365206f7574206f6620626f756e64730000000000000000000000600082015250565b7f53656e64696e6720657468206661696c65642061000000000000000000000000600082015250565b7f53656e64696e6720657468206661696c65642062000000000000000000000000600082015250565b50565b7f53656e64696e6720657468206661696c65640000000000000000000000000000600082015250565b61102481610e4c565b811461102f57600080fd5b50565b61103b81610e5e565b811461104657600080fd5b50565b61105281610e8a565b811461105d57600080fd5b50565b61106981610e94565b811461107457600080fd5b5056fea2646970667358221220628e0b1912fe93d77ede4f41deec63a9f7be17cac41b0e09f20d51dfe64cd54264736f6c63430008040033",
  "linkReferences": {},
  "deployedLinkReferences": {}
}