{
  "_format": "hh-sol-artifact-1",
  "contractName": "SwapToken",
  "sourceName": "contracts/SwapToken.sol",
  "abi": [
    {
      "inputs": [
        {
          "internalType": "address",
          "name": "owner",
          "type": "address"
        },
        {
          "internalType": "address[]",
          "name": "contracts",
          "type": "address[]"
        }
      ],
      "stateMutability": "payable",
      "type": "constructor"
    },
    {
      "inputs": [
        {
          "internalType": "address",
          "name": "contractAddress",
          "type": "address"
        },
        {
          "internalType": "uint256",
          "name": "amount",
          "type": "uint256"
        }
      ],
      "name": "ethToToken",
      "outputs": [
        {
          "internalType": "bool",
          "name": "",
          "type": "bool"
        }
      ],
      "stateMutability": "payable",
      "type": "function"
    },
    {
      "inputs": [
        {
          "internalType": "address",
          "name": "contractAddress",
          "type": "address"
        },
        {
          "internalType": "bool",
          "name": "state",
          "type": "bool"
        }
      ],
      "name": "saveContract",
      "outputs": [
        {
          "internalType": "bool",
          "name": "",
          "type": "bool"
        }
      ],
      "stateMutability": "nonpayable",
      "type": "function"
    },
    {
      "inputs": [
        {
          "internalType": "address",
          "name": "contractAddress",
          "type": "address"
        },
        {
          "internalType": "uint56",
          "name": "amount",
          "type": "uint56"
        }
      ],
      "name": "tokenToEth",
      "outputs": [
        {
          "internalType": "bool",
          "name": "",
          "type": "bool"
        }
      ],
      "stateMutability": "nonpayable",
      "type": "function"
    },
    {
      "inputs": [
        {
          "internalType": "address",
          "name": "contractA",
          "type": "address"
        },
        {
          "internalType": "uint256",
          "name": "amountA",
          "type": "uint256"
        },
        {
          "internalType": "address",
          "name": "contractB",
          "type": "address"
        },
        {
          "internalType": "uint256",
          "name": "amountB",
          "type": "uint256"
        },
        {
          "internalType": "address",
          "name": "target",
          "type": "address"
        }
      ],
      "name": "tokenToToken",
      "outputs": [
        {
          "internalType": "bool",
          "name": "",
          "type": "bool"
        }
      ],
      "stateMutability": "nonpayable",
      "type": "function"
    }
  ],
  "bytecode": "0x60806040526000600460006101000a81548160ff0219169083151502179055506000600460016101000a81548160ff021916908315150217905550604051620015933803806200159383398181016040528101906200005f91906200021d565b60005b81518110156200011a576001806000848481518110620000ab577f4e487b7100000000000000000000000000000000000000000000000000000000600052603260045260246000fd5b602002602001015173ffffffffffffffffffffffffffffffffffffffff1673ffffffffffffffffffffffffffffffffffffffff16815260200190815260200160002060006101000a81548160ff0219169083151502179055508080620001119062000343565b91505062000062565b5081600260006101000a81548173ffffffffffffffffffffffffffffffffffffffff021916908373ffffffffffffffffffffffffffffffffffffffff16021790555050506200041a565b60006200017b6200017584620002a0565b62000277565b905080838252602082019050828560208602820111156200019b57600080fd5b60005b85811015620001cf5781620001b48882620001d9565b8452602084019350602083019250506001810190506200019e565b5050509392505050565b600081519050620001ea8162000400565b92915050565b600082601f8301126200020257600080fd5b81516200021484826020860162000164565b91505092915050565b600080604083850312156200023157600080fd5b60006200024185828601620001d9565b925050602083015167ffffffffffffffff8111156200025f57600080fd5b6200026d85828601620001f0565b9150509250929050565b60006200028362000296565b90506200029182826200030d565b919050565b6000604051905090565b600067ffffffffffffffff821115620002be57620002bd620003c0565b5b602082029050602081019050919050565b6000620002dc82620002e3565b9050919050565b600073ffffffffffffffffffffffffffffffffffffffff82169050919050565b6000819050919050565b6200031882620003ef565b810181811067ffffffffffffffff821117156200033a5762000339620003c0565b5b80604052505050565b6000620003508262000303565b91507fffffffffffffffffffffffffffffffffffffffffffffffffffffffffffffffff82141562000386576200038562000391565b5b600182019050919050565b7f4e487b7100000000000000000000000000000000000000000000000000000000600052601160045260246000fd5b7f4e487b7100000000000000000000000000000000000000000000000000000000600052604160045260246000fd5b6000601f19601f8301169050919050565b6200040b81620002cf565b81146200041757600080fd5b50565b611169806200042a6000396000f3fe60806040526004361061003f5760003560e01c8063295225201461004457806347cf372b14610081578063846a490f146100be578063d91efc3b146100fb575b600080fd5b34801561005057600080fd5b5061006b60048036038101906100669190610a5d565b61012b565b6040516100789190610db1565b60405180910390f35b34801561008d57600080fd5b506100a860048036038101906100a39190610b4c565b61021e565b6040516100b59190610db1565b60405180910390f35b3480156100ca57600080fd5b506100e560048036038101906100e09190610ad5565b61049f565b6040516100f29190610db1565b60405180910390f35b61011560048036038101906101109190610a99565b610704565b6040516101229190610db1565b60405180910390f35b6000600260009054906101000a900473ffffffffffffffffffffffffffffffffffffffff1673ffffffffffffffffffffffffffffffffffffffff163373ffffffffffffffffffffffffffffffffffffffff16146101bd576040517f08c379a00000000000000000000000000000000000000000000000000000000081526004016101b490610dec565b60405180910390fd5b81600160008573ffffffffffffffffffffffffffffffffffffffff1673ffffffffffffffffffffffffffffffffffffffff16815260200190815260200160002060006101000a81548160ff0219169083151502179055506001905092915050565b600060011515600160008573ffffffffffffffffffffffffffffffffffffffff1673ffffffffffffffffffffffffffffffffffffffff16815260200190815260200160002060009054906101000a900460ff161515146102b3576040517f08c379a00000000000000000000000000000000000000000000000000000000081526004016102aa90610e0c565b60405180910390fd5b8166ffffffffffffff164710156102ff576040517f08c379a00000000000000000000000000000000000000000000000000000000081526004016102f690610e6c565b60405180910390fd5b600460009054906101000a900460ff161561034f576040517f08c379a000000000000000000000000000000000000000000000000000000000815260040161034690610dcc565b60405180910390fd5b6001600460006101000a81548160ff02191690831515021790555060006103818433308666ffffffffffffff166107f3565b9050806103c3576040517f08c379a00000000000000000000000000000000000000000000000000000000081526004016103ba90610ecc565b60405180910390fd5b60003373ffffffffffffffffffffffffffffffffffffffff168466ffffffffffffff166040516103f290610d3c565b60006040518083038185875af1925050503d806000811461042f576040519150601f19603f3d011682016040523d82523d6000602084013e610434565b606091505b5050905080610478576040517f08c379a000000000000000000000000000000000000000000000000000000000815260040161046f90610ecc565b60405180910390fd5b6000600460006101000a81548160ff02191690831515021790555060019250505092915050565b600060011515600160008873ffffffffffffffffffffffffffffffffffffffff1673ffffffffffffffffffffffffffffffffffffffff16815260200190815260200160002060009054906101000a900460ff16151514610534576040517f08c379a000000000000000000000000000000000000000000000000000000000815260040161052b90610e4c565b60405180910390fd5b60011515600160008673ffffffffffffffffffffffffffffffffffffffff1673ffffffffffffffffffffffffffffffffffffffff16815260200190815260200160002060009054906101000a900460ff161515146105c7576040517f08c379a00000000000000000000000000000000000000000000000000000000081526004016105be90610e2c565b60405180910390fd5b600460009054906101000a900460ff1615610617576040517f08c379a000000000000000000000000000000000000000000000000000000000815260040161060e90610dcc565b60405180910390fd5b6001600460016101000a81548160ff0219169083151502179055506000610640873385896107f3565b90506000610650868533886107f3565b90506001915081610696576040517f08c379a000000000000000000000000000000000000000000000000000000000815260040161068d90610e8c565b60405180910390fd5b60019050806106da576040517f08c379a00000000000000000000000000000000000000000000000000000000081526004016106d190610eac565b60405180910390fd5b6000600460016101000a81548160ff02191690831515021790555060019250505095945050505050565b600060011515600160008573ffffffffffffffffffffffffffffffffffffffff1673ffffffffffffffffffffffffffffffffffffffff16815260200190815260200160002060009054906101000a900460ff16151514610799576040517f08c379a000000000000000000000000000000000000000000000000000000000815260040161079090610e0c565b60405180910390fd5b60006107a68433856108f5565b9050806107e8576040517f08c379a00000000000000000000000000000000000000000000000000000000081526004016107df90610ecc565b60405180910390fd5b600191505092915050565b6000846000806101000a81548173ffffffffffffffffffffffffffffffffffffffff021916908373ffffffffffffffffffffffffffffffffffffffff16021790555060008060009054906101000a900473ffffffffffffffffffffffffffffffffffffffff1673ffffffffffffffffffffffffffffffffffffffff166323b872dd8686866040518463ffffffff1660e01b815260040161089593929190610d51565b602060405180830381600087803b1580156108af57600080fd5b505af11580156108c3573d6000803e3d6000fd5b505050506040513d601f19601f820116820180604052508101906108e79190610b88565b905080915050949350505050565b6000836000806101000a81548173ffffffffffffffffffffffffffffffffffffffff021916908373ffffffffffffffffffffffffffffffffffffffff16021790555060008060009054906101000a900473ffffffffffffffffffffffffffffffffffffffff1673ffffffffffffffffffffffffffffffffffffffff1663a9059cbb85856040518363ffffffff1660e01b8152600401610995929190610d88565b602060405180830381600087803b1580156109af57600080fd5b505af11580156109c3573d6000803e3d6000fd5b505050506040513d601f19601f820116820180604052508101906109e79190610b88565b9050809150509392505050565b600081359050610a03816110d7565b92915050565b600081359050610a18816110ee565b92915050565b600081519050610a2d816110ee565b92915050565b600081359050610a4281611105565b92915050565b600081359050610a578161111c565b92915050565b60008060408385031215610a7057600080fd5b6000610a7e858286016109f4565b9250506020610a8f85828601610a09565b9150509250929050565b60008060408385031215610aac57600080fd5b6000610aba858286016109f4565b9250506020610acb85828601610a33565b9150509250929050565b600080600080600060a08688031215610aed57600080fd5b6000610afb888289016109f4565b9550506020610b0c88828901610a33565b9450506040610b1d888289016109f4565b9350506060610b2e88828901610a33565b9250506080610b3f888289016109f4565b9150509295509295909350565b60008060408385031215610b5f57600080fd5b6000610b6d858286016109f4565b9250506020610b7e85828601610a48565b9150509250929050565b600060208284031215610b9a57600080fd5b6000610ba884828501610a1e565b91505092915050565b610bba81610f08565b82525050565b610bc981610f1a565b82525050565b6000610bdc601883610ef7565b9150610be782610f63565b602082019050919050565b6000610bff600783610ef7565b9150610c0a82610f8c565b602082019050919050565b6000610c22601883610ef7565b9150610c2d82610fb5565b602082019050919050565b6000610c45601a83610ef7565b9150610c5082610fde565b602082019050919050565b6000610c68601a83610ef7565b9150610c7382611007565b602082019050919050565b6000610c8b601583610ef7565b9150610c9682611030565b602082019050919050565b6000610cae601483610ef7565b9150610cb982611059565b602082019050919050565b6000610cd1601483610ef7565b9150610cdc82611082565b602082019050919050565b6000610cf4600083610eec565b9150610cff826110ab565b600082019050919050565b6000610d17601283610ef7565b9150610d22826110ae565b602082019050919050565b610d3681610f46565b82525050565b6000610d4782610ce7565b9150819050919050565b6000606082019050610d666000830186610bb1565b610d736020830185610bb1565b610d806040830184610d2d565b949350505050565b6000604082019050610d9d6000830185610bb1565b610daa6020830184610d2d565b9392505050565b6000602082019050610dc66000830184610bc0565b92915050565b60006020820190508181036000830152610de581610bcf565b9050919050565b60006020820190508181036000830152610e0581610bf2565b9050919050565b60006020820190508181036000830152610e2581610c15565b9050919050565b60006020820190508181036000830152610e4581610c38565b9050919050565b60006020820190508181036000830152610e6581610c5b565b9050919050565b60006020820190508181036000830152610e8581610c7e565b9050919050565b60006020820190508181036000830152610ea581610ca1565b9050919050565b60006020820190508181036000830152610ec581610cc4565b9050919050565b60006020820190508181036000830152610ee581610d0a565b9050919050565b600081905092915050565b600082825260208201905092915050565b6000610f1382610f26565b9050919050565b60008115159050919050565b600073ffffffffffffffffffffffffffffffffffffffff82169050919050565b6000819050919050565b600066ffffffffffffff82169050919050565b7f5265656e7472616e742063616c6c206465746563746564210000000000000000600082015250565b7f4e6f204175746800000000000000000000000000000000000000000000000000600082015250565b7f496e76616c696420636f6e747261637420616464726573730000000000000000600082015250565b7f496e76616c696420636f6e747261637420616464726573732062000000000000600082015250565b7f496e76616c696420636f6e747261637420616464726573732061000000000000600082015250565b7f42616c616e6365206f7574206f6620626f756e64730000000000000000000000600082015250565b7f53656e64696e6720657468206661696c65642061000000000000000000000000600082015250565b7f53656e64696e6720657468206661696c65642062000000000000000000000000600082015250565b50565b7f53656e64696e6720657468206661696c65640000000000000000000000000000600082015250565b6110e081610f08565b81146110eb57600080fd5b50565b6110f781610f1a565b811461110257600080fd5b50565b61110e81610f46565b811461111957600080fd5b50565b61112581610f50565b811461113057600080fd5b5056fea26469706673582212200f13c18deaeb4d5694c79b2b871d4ae3912b559a6d8577e26fbc2334cc8074d664736f6c63430008040033",
  "linkReferences": {},
  "deployedLinkReferences": {}
}