{
  "_format": "hh-sol-artifact-1",
  "contractName": "SwapToken",
  "sourceName": "contracts/SwapToken.sol",
  "abi": [
    {
      "inputs": [
        {
          "internalType": "address",
          "name": "owner",
          "type": "address"
        },
        {
          "internalType": "address[]",
          "name": "contracts",
          "type": "address[]"
        }
      ],
      "stateMutability": "payable",
      "type": "constructor"
    },
    {
      "inputs": [
        {
          "internalType": "address",
          "name": "contractAddress",
          "type": "address"
        },
        {
          "internalType": "uint256",
          "name": "amount",
          "type": "uint256"
        }
      ],
      "name": "approve",
      "outputs": [
        {
          "internalType": "bool",
          "name": "",
          "type": "bool"
        }
      ],
      "stateMutability": "nonpayable",
      "type": "function"
    },
    {
      "inputs": [
        {
          "internalType": "address",
          "name": "contractAddress",
          "type": "address"
        },
        {
          "internalType": "uint256",
          "name": "amount",
          "type": "uint256"
        }
      ],
      "name": "ethToToken",
      "outputs": [
        {
          "internalType": "bool",
          "name": "",
          "type": "bool"
        }
      ],
      "stateMutability": "payable",
      "type": "function"
    },
    {
      "inputs": [
        {
          "internalType": "address",
          "name": "from",
          "type": "address"
        },
        {
          "internalType": "uint256",
          "name": "_amount",
          "type": "uint256"
        },
        {
          "internalType": "address",
          "name": "_token",
          "type": "address"
        },
        {
          "internalType": "bytes",
          "name": "_data",
          "type": "bytes"
        }
      ],
      "name": "receiveApproval",
      "outputs": [
        {
          "internalType": "bool",
          "name": "",
          "type": "bool"
        }
      ],
      "stateMutability": "nonpayable",
      "type": "function"
    },
    {
      "inputs": [
        {
          "internalType": "address",
          "name": "contractAddress",
          "type": "address"
        },
        {
          "internalType": "bool",
          "name": "state",
          "type": "bool"
        }
      ],
      "name": "saveContract",
      "outputs": [
        {
          "internalType": "bool",
          "name": "",
          "type": "bool"
        }
      ],
      "stateMutability": "nonpayable",
      "type": "function"
    },
    {
      "inputs": [
        {
          "internalType": "address",
          "name": "contractAddress",
          "type": "address"
        },
        {
          "internalType": "uint56",
          "name": "amount",
          "type": "uint56"
        }
      ],
      "name": "tokenToEth",
      "outputs": [
        {
          "internalType": "bool",
          "name": "",
          "type": "bool"
        }
      ],
      "stateMutability": "nonpayable",
      "type": "function"
    },
    {
      "inputs": [
        {
          "internalType": "address",
          "name": "contractA",
          "type": "address"
        },
        {
          "internalType": "uint256",
          "name": "amountA",
          "type": "uint256"
        },
        {
          "internalType": "address",
          "name": "contractB",
          "type": "address"
        },
        {
          "internalType": "uint256",
          "name": "amountB",
          "type": "uint256"
        },
        {
          "internalType": "address",
          "name": "target",
          "type": "address"
        }
      ],
      "name": "tokenToToken",
      "outputs": [
        {
          "internalType": "bool",
          "name": "",
          "type": "bool"
        }
      ],
      "stateMutability": "nonpayable",
      "type": "function"
    }
  ],
  "bytecode": "0x60806040526000600460006101000a81548160ff0219169083151502179055506000600460016101000a81548160ff02191690831515021790555060405162001cb538038062001cb583398181016040528101906200005f919062000205565b60005b8151811015620000f6576001806000848481518110620000875762000086620003b4565b5b602002602001015173ffffffffffffffffffffffffffffffffffffffff1673ffffffffffffffffffffffffffffffffffffffff16815260200190815260200160002060006101000a81548160ff0219169083151502179055508080620000ed9062000337565b91505062000062565b5081600260006101000a81548173ffffffffffffffffffffffffffffffffffffffff021916908373ffffffffffffffffffffffffffffffffffffffff160217905550505062000451565b600062000157620001518462000294565b6200026b565b905080838252602082019050828560208602820111156200017d576200017c62000417565b5b60005b85811015620001b15781620001968882620001bb565b84526020840193506020830192505060018101905062000180565b5050509392505050565b600081519050620001cc8162000437565b92915050565b600082601f830112620001ea57620001e962000412565b5b8151620001fc84826020860162000140565b91505092915050565b600080604083850312156200021f576200021e62000421565b5b60006200022f85828601620001bb565b925050602083015167ffffffffffffffff8111156200025357620002526200041c565b5b6200026185828601620001d2565b9150509250929050565b6000620002776200028a565b905062000285828262000301565b919050565b6000604051905090565b600067ffffffffffffffff821115620002b257620002b1620003e3565b5b602082029050602081019050919050565b6000620002d082620002d7565b9050919050565b600073ffffffffffffffffffffffffffffffffffffffff82169050919050565b6000819050919050565b6200030c8262000426565b810181811067ffffffffffffffff821117156200032e576200032d620003e3565b5b80604052505050565b60006200034482620002f7565b91507fffffffffffffffffffffffffffffffffffffffffffffffffffffffffffffffff8214156200037a576200037962000385565b5b600182019050919050565b7f4e487b7100000000000000000000000000000000000000000000000000000000600052601160045260246000fd5b7f4e487b7100000000000000000000000000000000000000000000000000000000600052603260045260246000fd5b7f4e487b7100000000000000000000000000000000000000000000000000000000600052604160045260246000fd5b600080fd5b600080fd5b600080fd5b600080fd5b6000601f19601f8301169050919050565b6200044281620002c3565b81146200044e57600080fd5b50565b61185480620004616000396000f3fe6080604052600436106100555760003560e01c8063095ea7b31461005a578063295225201461009757806347cf372b146100d4578063846a490f146101115780638f4ffcb11461014e578063d91efc3b1461018b575b600080fd5b34801561006657600080fd5b50610081600480360381019061007c9190610f2f565b6101bb565b60405161008e91906112da565b60405180910390f35b3480156100a357600080fd5b506100be60048036038101906100b99190610eef565b6102b2565b6040516100cb91906112da565b60405180910390f35b3480156100e057600080fd5b506100fb60048036038101906100f6919061106d565b6103a5565b60405161010891906112da565b60405180910390f35b34801561011d57600080fd5b5061013860048036038101906101339190610ff2565b610626565b60405161014591906112da565b60405180910390f35b34801561015a57600080fd5b5061017560048036038101906101709190610f6f565b61088b565b60405161018291906112da565b60405180910390f35b6101a560048036038101906101a09190610f2f565b610a64565b6040516101b291906112da565b60405180910390f35b6000826000806101000a81548173ffffffffffffffffffffffffffffffffffffffff021916908373ffffffffffffffffffffffffffffffffffffffff16021790555060008054906101000a900473ffffffffffffffffffffffffffffffffffffffff1673ffffffffffffffffffffffffffffffffffffffff1663095ea7b330846040518363ffffffff1660e01b81526004016102589291906112b1565b602060405180830381600087803b15801561027257600080fd5b505af1158015610286573d6000803e3d6000fd5b505050506040513d601f19601f820116820180604052508101906102aa91906110ad565b905092915050565b6000600260009054906101000a900473ffffffffffffffffffffffffffffffffffffffff1673ffffffffffffffffffffffffffffffffffffffff163373ffffffffffffffffffffffffffffffffffffffff1614610344576040517f08c379a000000000000000000000000000000000000000000000000000000000815260040161033b90611315565b60405180910390fd5b81600160008573ffffffffffffffffffffffffffffffffffffffff1673ffffffffffffffffffffffffffffffffffffffff16815260200190815260200160002060006101000a81548160ff0219169083151502179055506001905092915050565b600060011515600160008573ffffffffffffffffffffffffffffffffffffffff1673ffffffffffffffffffffffffffffffffffffffff16815260200190815260200160002060009054906101000a900460ff1615151461043a576040517f08c379a000000000000000000000000000000000000000000000000000000000815260040161043190611335565b60405180910390fd5b8166ffffffffffffff16471015610486576040517f08c379a000000000000000000000000000000000000000000000000000000000815260040161047d90611395565b60405180910390fd5b600460009054906101000a900460ff16156104d6576040517f08c379a00000000000000000000000000000000000000000000000000000000081526004016104cd906112f5565b60405180910390fd5b6001600460006101000a81548160ff02191690831515021790555060006105088433308666ffffffffffffff16610b53565b90508061054a576040517f08c379a0000000000000000000000000000000000000000000000000000000008152600401610541906113f5565b60405180910390fd5b60003373ffffffffffffffffffffffffffffffffffffffff168466ffffffffffffff1660405161057990611265565b60006040518083038185875af1925050503d80600081146105b6576040519150601f19603f3d011682016040523d82523d6000602084013e6105bb565b606091505b50509050806105ff576040517f08c379a00000000000000000000000000000000000000000000000000000000081526004016105f6906113f5565b60405180910390fd5b6000600460006101000a81548160ff02191690831515021790555060019250505092915050565b600060011515600160008873ffffffffffffffffffffffffffffffffffffffff1673ffffffffffffffffffffffffffffffffffffffff16815260200190815260200160002060009054906101000a900460ff161515146106bb576040517f08c379a00000000000000000000000000000000000000000000000000000000081526004016106b290611375565b60405180910390fd5b60011515600160008673ffffffffffffffffffffffffffffffffffffffff1673ffffffffffffffffffffffffffffffffffffffff16815260200190815260200160002060009054906101000a900460ff1615151461074e576040517f08c379a000000000000000000000000000000000000000000000000000000000815260040161074590611355565b60405180910390fd5b600460009054906101000a900460ff161561079e576040517f08c379a0000000000000000000000000000000000000000000000000000000008152600401610795906112f5565b60405180910390fd5b6001600460016101000a81548160ff02191690831515021790555060006107c787338589610b53565b905060006107d786853388610b53565b9050600191508161081d576040517f08c379a0000000000000000000000000000000000000000000000000000000008152600401610814906113b5565b60405180910390fd5b6001905080610861576040517f08c379a0000000000000000000000000000000000000000000000000000000008152600401610858906113d5565b60405180910390fd5b6000600460016101000a81548160ff02191690831515021790555060019250505095945050505050565b6000600160008473ffffffffffffffffffffffffffffffffffffffff1673ffffffffffffffffffffffffffffffffffffffff16815260200190815260200160002060009054906101000a900460ff166108e75760009050610a5c565b600084111561098a576001600360008573ffffffffffffffffffffffffffffffffffffffff1673ffffffffffffffffffffffffffffffffffffffff16815260200190815260200160002060008773ffffffffffffffffffffffffffffffffffffffff1673ffffffffffffffffffffffffffffffffffffffff16815260200190815260200160002060006101000a81548160ff021916908315150217905550610a20565b6000600360008573ffffffffffffffffffffffffffffffffffffffff1673ffffffffffffffffffffffffffffffffffffffff16815260200190815260200160002060008773ffffffffffffffffffffffffffffffffffffffff1673ffffffffffffffffffffffffffffffffffffffff16815260200190815260200160002060006101000a81548160ff0219169083151502179055505b6000808351915060208401519050816020610a3b91906114fc565b6008610a4791906114a2565b81901c9050610a5581610c55565b6001925050505b949350505050565b600060011515600160008573ffffffffffffffffffffffffffffffffffffffff1673ffffffffffffffffffffffffffffffffffffffff16815260200190815260200160002060009054906101000a900460ff16151514610af9576040517f08c379a0000000000000000000000000000000000000000000000000000000008152600401610af090611335565b60405180910390fd5b6000610b06843385610cee565b905080610b48576040517f08c379a0000000000000000000000000000000000000000000000000000000008152600401610b3f906113f5565b60405180910390fd5b600191505092915050565b6000846000806101000a81548173ffffffffffffffffffffffffffffffffffffffff021916908373ffffffffffffffffffffffffffffffffffffffff16021790555060008060009054906101000a900473ffffffffffffffffffffffffffffffffffffffff1673ffffffffffffffffffffffffffffffffffffffff166323b872dd8686866040518463ffffffff1660e01b8152600401610bf59392919061127a565b602060405180830381600087803b158015610c0f57600080fd5b505af1158015610c23573d6000803e3d6000fd5b505050506040513d601f19601f82011682018060405250810190610c4791906110ad565b905080915050949350505050565b610ceb81604051602401610c699190611415565b6040516020818303038152906040527ff5b1bba9000000000000000000000000000000000000000000000000000000007bffffffffffffffffffffffffffffffffffffffffffffffffffffffff19166020820180517bffffffffffffffffffffffffffffffffffffffffffffffffffffffff8381831617835250505050610ded565b50565b6000836000806101000a81548173ffffffffffffffffffffffffffffffffffffffff021916908373ffffffffffffffffffffffffffffffffffffffff16021790555060008060009054906101000a900473ffffffffffffffffffffffffffffffffffffffff1673ffffffffffffffffffffffffffffffffffffffff1663a9059cbb85856040518363ffffffff1660e01b8152600401610d8e9291906112b1565b602060405180830381600087803b158015610da857600080fd5b505af1158015610dbc573d6000803e3d6000fd5b505050506040513d601f19601f82011682018060405250810190610de091906110ad565b9050809150509392505050565b60008151905060006a636f6e736f6c652e6c6f679050602083016000808483855afa5050505050565b6000610e29610e2484611455565b611430565b905082815260208101848484011115610e4557610e4461162e565b5b610e5084828561158b565b509392505050565b600081359050610e67816117c2565b92915050565b600081359050610e7c816117d9565b92915050565b600081519050610e91816117d9565b92915050565b600082601f830112610eac57610eab611629565b5b8135610ebc848260208601610e16565b91505092915050565b600081359050610ed4816117f0565b92915050565b600081359050610ee981611807565b92915050565b60008060408385031215610f0657610f05611638565b5b6000610f1485828601610e58565b9250506020610f2585828601610e6d565b9150509250929050565b60008060408385031215610f4657610f45611638565b5b6000610f5485828601610e58565b9250506020610f6585828601610ec5565b9150509250929050565b60008060008060808587031215610f8957610f88611638565b5b6000610f9787828801610e58565b9450506020610fa887828801610ec5565b9350506040610fb987828801610e58565b925050606085013567ffffffffffffffff811115610fda57610fd9611633565b5b610fe687828801610e97565b91505092959194509250565b600080600080600060a0868803121561100e5761100d611638565b5b600061101c88828901610e58565b955050602061102d88828901610ec5565b945050604061103e88828901610e58565b935050606061104f88828901610ec5565b925050608061106088828901610e58565b9150509295509295909350565b6000806040838503121561108457611083611638565b5b600061109285828601610e58565b92505060206110a385828601610eda565b9150509250929050565b6000602082840312156110c3576110c2611638565b5b60006110d184828501610e82565b91505092915050565b6110e381611530565b82525050565b6110f281611542565b82525050565b6000611105601883611491565b91506111108261164e565b602082019050919050565b6000611128600783611491565b915061113382611677565b602082019050919050565b600061114b601883611491565b9150611156826116a0565b602082019050919050565b600061116e601a83611491565b9150611179826116c9565b602082019050919050565b6000611191601a83611491565b915061119c826116f2565b602082019050919050565b60006111b4601583611491565b91506111bf8261171b565b602082019050919050565b60006111d7601483611491565b91506111e282611744565b602082019050919050565b60006111fa601483611491565b91506112058261176d565b602082019050919050565b600061121d600083611486565b915061122882611796565b600082019050919050565b6000611240601283611491565b915061124b82611799565b602082019050919050565b61125f8161156e565b82525050565b600061127082611210565b9150819050919050565b600060608201905061128f60008301866110da565b61129c60208301856110da565b6112a96040830184611256565b949350505050565b60006040820190506112c660008301856110da565b6112d36020830184611256565b9392505050565b60006020820190506112ef60008301846110e9565b92915050565b6000602082019050818103600083015261130e816110f8565b9050919050565b6000602082019050818103600083015261132e8161111b565b9050919050565b6000602082019050818103600083015261134e8161113e565b9050919050565b6000602082019050818103600083015261136e81611161565b9050919050565b6000602082019050818103600083015261138e81611184565b9050919050565b600060208201905081810360008301526113ae816111a7565b9050919050565b600060208201905081810360008301526113ce816111ca565b9050919050565b600060208201905081810360008301526113ee816111ed565b9050919050565b6000602082019050818103600083015261140e81611233565b9050919050565b600060208201905061142a6000830184611256565b92915050565b600061143a61144b565b9050611446828261159a565b919050565b6000604051905090565b600067ffffffffffffffff8211156114705761146f6115fa565b5b6114798261163d565b9050602081019050919050565b600081905092915050565b600082825260208201905092915050565b60006114ad8261156e565b91506114b88361156e565b9250817fffffffffffffffffffffffffffffffffffffffffffffffffffffffffffffffff04831182151516156114f1576114f06115cb565b5b828202905092915050565b60006115078261156e565b91506115128361156e565b925082821015611525576115246115cb565b5b828203905092915050565b600061153b8261154e565b9050919050565b60008115159050919050565b600073ffffffffffffffffffffffffffffffffffffffff82169050919050565b6000819050919050565b600066ffffffffffffff82169050919050565b82818337600083830152505050565b6115a38261163d565b810181811067ffffffffffffffff821117156115c2576115c16115fa565b5b80604052505050565b7f4e487b7100000000000000000000000000000000000000000000000000000000600052601160045260246000fd5b7f4e487b7100000000000000000000000000000000000000000000000000000000600052604160045260246000fd5b600080fd5b600080fd5b600080fd5b600080fd5b6000601f19601f8301169050919050565b7f5265656e7472616e742063616c6c206465746563746564210000000000000000600082015250565b7f4e6f204175746800000000000000000000000000000000000000000000000000600082015250565b7f496e76616c696420636f6e747261637420616464726573730000000000000000600082015250565b7f496e76616c696420636f6e747261637420616464726573732062000000000000600082015250565b7f496e76616c696420636f6e747261637420616464726573732061000000000000600082015250565b7f42616c616e6365206f7574206f6620626f756e64730000000000000000000000600082015250565b7f53656e64696e6720657468206661696c65642061000000000000000000000000600082015250565b7f53656e64696e6720657468206661696c65642062000000000000000000000000600082015250565b50565b7f53656e64696e6720657468206661696c65640000000000000000000000000000600082015250565b6117cb81611530565b81146117d657600080fd5b50565b6117e281611542565b81146117ed57600080fd5b50565b6117f98161156e565b811461180457600080fd5b50565b61181081611578565b811461181b57600080fd5b5056fea264697066735822122075dca9d451c4cb5ea6f8b177cae8cd8b6843fcb8d715318ed29d25d65ecf391664736f6c63430008070033",
  "linkReferences": {},
  "deployedLinkReferences": {}
}