{
  "_format": "hh-sol-artifact-1",
  "contractName": "SwapToken",
  "sourceName": "contracts/SwapToken.sol",
  "abi": [
    {
      "inputs": [
        {
          "internalType": "address",
          "name": "contractAddress",
          "type": "address"
        }
      ],
      "stateMutability": "payable",
      "type": "constructor"
    },
    {
      "inputs": [
        {
          "internalType": "uint256",
          "name": "newAge",
          "type": "uint256"
        }
      ],
      "name": "age2",
      "outputs": [
        {
          "internalType": "bool",
          "name": "",
          "type": "bool"
        }
      ],
      "stateMutability": "nonpayable",
      "type": "function"
    },
    {
      "inputs": [
        {
          "internalType": "address",
          "name": "owner",
          "type": "address"
        },
        {
          "internalType": "address",
          "name": "spender",
          "type": "address"
        }
      ],
      "name": "allowance",
      "outputs": [
        {
          "internalType": "uint256",
          "name": "",
          "type": "uint256"
        }
      ],
      "stateMutability": "nonpayable",
      "type": "function"
    },
    {
      "inputs": [
        {
          "internalType": "address",
          "name": "spender",
          "type": "address"
        },
        {
          "internalType": "uint256",
          "name": "amount",
          "type": "uint256"
        }
      ],
      "name": "approve",
      "outputs": [
        {
          "internalType": "bool",
          "name": "",
          "type": "bool"
        }
      ],
      "stateMutability": "nonpayable",
      "type": "function"
    },
    {
      "inputs": [
        {
          "internalType": "address",
          "name": "addr",
          "type": "address"
        }
      ],
      "name": "balanceOf",
      "outputs": [
        {
          "internalType": "uint256",
          "name": "",
          "type": "uint256"
        }
      ],
      "stateMutability": "view",
      "type": "function"
    },
    {
      "inputs": [],
      "name": "exchangeToken",
      "outputs": [],
      "stateMutability": "payable",
      "type": "function"
    },
    {
      "inputs": [],
      "name": "test",
      "outputs": [
        {
          "internalType": "address",
          "name": "",
          "type": "address"
        }
      ],
      "stateMutability": "view",
      "type": "function"
    },
    {
      "inputs": [
        {
          "internalType": "address",
          "name": "sender",
          "type": "address"
        },
        {
          "internalType": "address",
          "name": "spender",
          "type": "address"
        },
        {
          "internalType": "uint256",
          "name": "amount",
          "type": "uint256"
        }
      ],
      "name": "transferToContract",
      "outputs": [
        {
          "internalType": "bool",
          "name": "",
          "type": "bool"
        }
      ],
      "stateMutability": "nonpayable",
      "type": "function"
    },
    {
      "inputs": [
        {
          "internalType": "address",
          "name": "owner",
          "type": "address"
        },
        {
          "internalType": "address",
          "name": "user",
          "type": "address"
        },
        {
          "internalType": "uint256",
          "name": "amount",
          "type": "uint256"
        }
      ],
      "name": "transferToContractTest",
      "outputs": [
        {
          "internalType": "bool",
          "name": "",
          "type": "bool"
        }
      ],
      "stateMutability": "nonpayable",
      "type": "function"
    }
  ],
  "bytecode": "0x60806040526040516110cc3803806110cc833981810160405281019061002591906100c2565b80600260006101000a81548173ffffffffffffffffffffffffffffffffffffffff021916908373ffffffffffffffffffffffffffffffffffffffff16021790555080600360006101000a81548173ffffffffffffffffffffffffffffffffffffffff021916908373ffffffffffffffffffffffffffffffffffffffff16021790555050610134565b6000815190506100bc8161011d565b92915050565b6000602082840312156100d457600080fd5b60006100e2848285016100ad565b91505092915050565b60006100f6826100fd565b9050919050565b600073ffffffffffffffffffffffffffffffffffffffff82169050919050565b610126816100eb565b811461013157600080fd5b50565b610f89806101436000396000f3fe60806040526004361061007b5760003560e01c80637cd943211161004e5780637cd9432114610174578063a25eb5d9146101b1578063dd62ed3e146101bb578063f8a8fd6d146101f85761007b565b806302ff9e6e14610080578063095ea7b3146100bd57806315c71586146100fa57806370a0823114610137575b600080fd5b34801561008c57600080fd5b506100a760048036038101906100a29190610b3f565b610223565b6040516100b49190610da4565b60405180910390f35b3480156100c957600080fd5b506100e460048036038101906100df9190610b8e565b6102e2565b6040516100f19190610da4565b60405180910390f35b34801561010657600080fd5b50610121600480360381019061011c9190610b3f565b610460565b60405161012e9190610da4565b60405180910390f35b34801561014357600080fd5b5061015e60048036038101906101599190610ab1565b61052a565b60405161016b9190610dff565b60405180910390f35b34801561018057600080fd5b5061019b60048036038101906101969190610bf3565b6105de565b6040516101a89190610da4565b60405180910390f35b6101b9610759565b005b3480156101c757600080fd5b506101e260048036038101906101dd9190610b03565b61075b565b6040516101ef9190610dff565b60405180910390f35b34801561020457600080fd5b5061020d6108d9565b60405161021a9190610d00565b60405180910390f35b6000600260009054906101000a900473ffffffffffffffffffffffffffffffffffffffff1673ffffffffffffffffffffffffffffffffffffffff166323b872dd8585856040518463ffffffff1660e01b815260040161028493929190610d44565b602060405180830381600087803b15801561029e57600080fd5b505af11580156102b2573d6000803e3d6000fd5b505050506040513d601f19601f820116820180604052508101906102d69190610bca565b50600190509392505050565b6000806000600360009054906101000a900473ffffffffffffffffffffffffffffffffffffffff1673ffffffffffffffffffffffffffffffffffffffff168585604051602401610333929190610d7b565b6040516020818303038152906040527f095ea7b3000000000000000000000000000000000000000000000000000000007bffffffffffffffffffffffffffffffffffffffffffffffffffffffff19166020820180517bffffffffffffffffffffffffffffffffffffffffffffffffffffffff83818316178352505050506040516103bd9190610ce9565b600060405180830381855af49150503d80600081146103f8576040519150601f19603f3d011682016040523d82523d6000602084013e6103fd565b606091505b509150915081610442576040517f08c379a000000000000000000000000000000000000000000000000000000000815260040161043990610ddf565b60405180910390fd5b808060200190518101906104569190610bca565b9250505092915050565b600061046d848484610980565b600260009054906101000a900473ffffffffffffffffffffffffffffffffffffffff1673ffffffffffffffffffffffffffffffffffffffff166323b872dd8585856040518463ffffffff1660e01b81526004016104cc93929190610d44565b602060405180830381600087803b1580156104e657600080fd5b505af11580156104fa573d6000803e3d6000fd5b505050506040513d601f19601f8201168201806040525081019061051e9190610bca565b50600190509392505050565b6000600260009054906101000a900473ffffffffffffffffffffffffffffffffffffffff1673ffffffffffffffffffffffffffffffffffffffff166370a08231836040518263ffffffff1660e01b81526004016105879190610d00565b60206040518083038186803b15801561059f57600080fd5b505afa1580156105b3573d6000803e3d6000fd5b505050506040513d601f19601f820116820180604052508101906105d79190610c1c565b9050919050565b6000806000600360009054906101000a900473ffffffffffffffffffffffffffffffffffffffff1673ffffffffffffffffffffffffffffffffffffffff168460405160240161062d9190610dff565b6040516020818303038152906040527f6ba61782000000000000000000000000000000000000000000000000000000007bffffffffffffffffffffffffffffffffffffffffffffffffffffffff19166020820180517bffffffffffffffffffffffffffffffffffffffffffffffffffffffff83818316178352505050506040516106b79190610ce9565b600060405180830381855af49150503d80600081146106f2576040519150601f19603f3d011682016040523d82523d6000602084013e6106f7565b606091505b50915091508161073c576040517f08c379a000000000000000000000000000000000000000000000000000000000815260040161073390610dbf565b60405180910390fd5b808060200190518101906107509190610bca565b92505050919050565b565b6000806000600360009054906101000a900473ffffffffffffffffffffffffffffffffffffffff1673ffffffffffffffffffffffffffffffffffffffff1685856040516024016107ac929190610d1b565b6040516020818303038152906040527f563d3dbf000000000000000000000000000000000000000000000000000000007bffffffffffffffffffffffffffffffffffffffffffffffffffffffff19166020820180517bffffffffffffffffffffffffffffffffffffffffffffffffffffffff83818316178352505050506040516108369190610ce9565b600060405180830381855af49150503d8060008114610871576040519150601f19603f3d011682016040523d82523d6000602084013e610876565b606091505b5091509150816108bb576040517f08c379a00000000000000000000000000000000000000000000000000000000081526004016108b290610dbf565b60405180910390fd5b808060200190518101906108cf9190610c1c565b9250505092915050565b6000600260009054906101000a900473ffffffffffffffffffffffffffffffffffffffff1673ffffffffffffffffffffffffffffffffffffffff1663f8a8fd6d6040518163ffffffff1660e01b815260040160206040518083038186803b15801561094357600080fd5b505afa158015610957573d6000803e3d6000fd5b505050506040513d601f19601f8201168201806040525081019061097b9190610ada565b905090565b610a1a83838360405160240161099893929190610d44565b6040516020818303038152906040527f6c366d72000000000000000000000000000000000000000000000000000000007bffffffffffffffffffffffffffffffffffffffffffffffffffffffff19166020820180517bffffffffffffffffffffffffffffffffffffffffffffffffffffffff8381831617835250505050610a1f565b505050565b60008151905060006a636f6e736f6c652e6c6f679050602083016000808483855afa5050505050565b600081359050610a5781610f0e565b92915050565b600081519050610a6c81610f0e565b92915050565b600081519050610a8181610f25565b92915050565b600081359050610a9681610f3c565b92915050565b600081519050610aab81610f3c565b92915050565b600060208284031215610ac357600080fd5b6000610ad184828501610a48565b91505092915050565b600060208284031215610aec57600080fd5b6000610afa84828501610a5d565b91505092915050565b60008060408385031215610b1657600080fd5b6000610b2485828601610a48565b9250506020610b3585828601610a48565b9150509250929050565b600080600060608486031215610b5457600080fd5b6000610b6286828701610a48565b9350506020610b7386828701610a48565b9250506040610b8486828701610a87565b9150509250925092565b60008060408385031215610ba157600080fd5b6000610baf85828601610a48565b9250506020610bc085828601610a87565b9150509250929050565b600060208284031215610bdc57600080fd5b6000610bea84828501610a72565b91505092915050565b600060208284031215610c0557600080fd5b6000610c1384828501610a87565b91505092915050565b600060208284031215610c2e57600080fd5b6000610c3c84828501610a9c565b91505092915050565b610c4e81610e41565b82525050565b610c5d81610e53565b82525050565b6000610c6e82610e1a565b610c788185610e25565b9350610c88818560208601610e89565b80840191505092915050565b6000610ca1601583610e30565b9150610cac82610ebc565b602082019050919050565b6000610cc4601483610e30565b9150610ccf82610ee5565b602082019050919050565b610ce381610e7f565b82525050565b6000610cf58284610c63565b915081905092915050565b6000602082019050610d156000830184610c45565b92915050565b6000604082019050610d306000830185610c45565b610d3d6020830184610c45565b9392505050565b6000606082019050610d596000830186610c45565b610d666020830185610c45565b610d736040830184610cda565b949350505050565b6000604082019050610d906000830185610c45565b610d9d6020830184610cda565b9392505050565b6000602082019050610db96000830184610c54565b92915050565b60006020820190508181036000830152610dd881610c94565b9050919050565b60006020820190508181036000830152610df881610cb7565b9050919050565b6000602082019050610e146000830184610cda565b92915050565b600081519050919050565b600081905092915050565b600082825260208201905092915050565b6000610e4c82610e5f565b9050919050565b60008115159050919050565b600073ffffffffffffffffffffffffffffffffffffffff82169050919050565b6000819050919050565b60005b83811015610ea7578082015181840152602081019050610e8c565b83811115610eb6576000848401525b50505050565b7f44656c65676174652043616c6c206661696c6564320000000000000000000000600082015250565b7f44656c65676174652043616c6c206661696c6564000000000000000000000000600082015250565b610f1781610e41565b8114610f2257600080fd5b50565b610f2e81610e53565b8114610f3957600080fd5b50565b610f4581610e7f565b8114610f5057600080fd5b5056fea2646970667358221220a078ee827fc19ccf58f294408c9a732b94f4b60ee1cfe546ad68af9a7e3cbac464736f6c63430008040033",
  "linkReferences": {},
  "deployedLinkReferences": {}
}