{
  "_format": "hh-sol-artifact-1",
  "contractName": "Yuteng",
  "sourceName": "contracts/Yuteng.sol",
  "abi": [
    {
      "inputs": [
        {
          "internalType": "address",
          "name": "owner",
          "type": "address"
        },
        {
          "internalType": "uint256",
          "name": "initTotalSupply",
          "type": "uint256"
        }
      ],
      "stateMutability": "nonpayable",
      "type": "constructor"
    },
    {
      "anonymous": false,
      "inputs": [
        {
          "indexed": true,
          "internalType": "address",
          "name": "owner",
          "type": "address"
        },
        {
          "indexed": true,
          "internalType": "address",
          "name": "spender",
          "type": "address"
        },
        {
          "indexed": false,
          "internalType": "uint256",
          "name": "value",
          "type": "uint256"
        }
      ],
      "name": "Approval",
      "type": "event"
    },
    {
      "anonymous": false,
      "inputs": [
        {
          "indexed": false,
          "internalType": "address",
          "name": "from",
          "type": "address"
        },
        {
          "indexed": false,
          "internalType": "address",
          "name": "to",
          "type": "address"
        },
        {
          "indexed": false,
          "internalType": "uint256",
          "name": "value",
          "type": "uint256"
        },
        {
          "indexed": false,
          "internalType": "uint256",
          "name": "number",
          "type": "uint256"
        }
      ],
      "name": "SendBalance",
      "type": "event"
    },
    {
      "anonymous": false,
      "inputs": [
        {
          "indexed": true,
          "internalType": "address",
          "name": "from",
          "type": "address"
        },
        {
          "indexed": true,
          "internalType": "address",
          "name": "to",
          "type": "address"
        },
        {
          "indexed": false,
          "internalType": "uint256",
          "name": "value",
          "type": "uint256"
        }
      ],
      "name": "Transfer",
      "type": "event"
    },
    {
      "stateMutability": "payable",
      "type": "fallback"
    },
    {
      "inputs": [
        {
          "internalType": "address",
          "name": "owner",
          "type": "address"
        },
        {
          "internalType": "address",
          "name": "spender",
          "type": "address"
        }
      ],
      "name": "allowance",
      "outputs": [
        {
          "internalType": "uint256",
          "name": "",
          "type": "uint256"
        }
      ],
      "stateMutability": "view",
      "type": "function"
    },
    {
      "inputs": [
        {
          "internalType": "address",
          "name": "spender",
          "type": "address"
        },
        {
          "internalType": "uint256",
          "name": "amount",
          "type": "uint256"
        }
      ],
      "name": "approve",
      "outputs": [
        {
          "internalType": "bool",
          "name": "",
          "type": "bool"
        }
      ],
      "stateMutability": "nonpayable",
      "type": "function"
    },
    {
      "inputs": [
        {
          "internalType": "address",
          "name": "account",
          "type": "address"
        }
      ],
      "name": "balanceOf",
      "outputs": [
        {
          "internalType": "uint256",
          "name": "",
          "type": "uint256"
        }
      ],
      "stateMutability": "view",
      "type": "function"
    },
    {
      "inputs": [],
      "name": "decimals",
      "outputs": [
        {
          "internalType": "uint8",
          "name": "",
          "type": "uint8"
        }
      ],
      "stateMutability": "view",
      "type": "function"
    },
    {
      "inputs": [
        {
          "internalType": "address",
          "name": "spender",
          "type": "address"
        },
        {
          "internalType": "uint256",
          "name": "subtractedValue",
          "type": "uint256"
        }
      ],
      "name": "decreaseAllowance",
      "outputs": [
        {
          "internalType": "bool",
          "name": "",
          "type": "bool"
        }
      ],
      "stateMutability": "nonpayable",
      "type": "function"
    },
    {
      "inputs": [],
      "name": "depositMiningByEndDate",
      "outputs": [],
      "stateMutability": "payable",
      "type": "function"
    },
    {
      "inputs": [],
      "name": "exchangeToken",
      "outputs": [],
      "stateMutability": "payable",
      "type": "function"
    },
    {
      "inputs": [
        {
          "internalType": "address",
          "name": "spender",
          "type": "address"
        },
        {
          "internalType": "uint256",
          "name": "addedValue",
          "type": "uint256"
        }
      ],
      "name": "increaseAllowance",
      "outputs": [
        {
          "internalType": "bool",
          "name": "",
          "type": "bool"
        }
      ],
      "stateMutability": "nonpayable",
      "type": "function"
    },
    {
      "inputs": [],
      "name": "name",
      "outputs": [
        {
          "internalType": "string",
          "name": "",
          "type": "string"
        }
      ],
      "stateMutability": "view",
      "type": "function"
    },
    {
      "inputs": [],
      "name": "symbol",
      "outputs": [
        {
          "internalType": "string",
          "name": "",
          "type": "string"
        }
      ],
      "stateMutability": "view",
      "type": "function"
    },
    {
      "inputs": [],
      "name": "totalSupply",
      "outputs": [
        {
          "internalType": "uint256",
          "name": "",
          "type": "uint256"
        }
      ],
      "stateMutability": "view",
      "type": "function"
    },
    {
      "inputs": [
        {
          "internalType": "address",
          "name": "recipient",
          "type": "address"
        },
        {
          "internalType": "uint256",
          "name": "amount",
          "type": "uint256"
        }
      ],
      "name": "transfer",
      "outputs": [
        {
          "internalType": "bool",
          "name": "",
          "type": "bool"
        }
      ],
      "stateMutability": "nonpayable",
      "type": "function"
    },
    {
      "inputs": [
        {
          "internalType": "address",
          "name": "sender",
          "type": "address"
        },
        {
          "internalType": "address",
          "name": "recipient",
          "type": "address"
        },
        {
          "internalType": "uint256",
          "name": "amount",
          "type": "uint256"
        }
      ],
      "name": "transferFrom",
      "outputs": [
        {
          "internalType": "bool",
          "name": "",
          "type": "bool"
        }
      ],
      "stateMutability": "nonpayable",
      "type": "function"
    },
    {
      "stateMutability": "payable",
      "type": "receive"
    }
  ],
  "bytecode": "0x60806040523480156200001157600080fd5b5060405162001c0738038062001c078339818101604052810190620000379190620003b2565b6040518060400160405280600c81526020017f597554656e6720546f6b656e00000000000000000000000000000000000000008152506040518060400160405280600381526020017f59544300000000000000000000000000000000000000000000000000000000008152508160039080519060200190620000bb929190620002d4565b508060049080519060200190620000d4929190620002d4565b505050620000e930826200014760201b60201c565b81600660006101000a81548173ffffffffffffffffffffffffffffffffffffffff021916908373ffffffffffffffffffffffffffffffffffffffff1602179055506200013f6361a249d0620002c060201b60201c565b505062000607565b600073ffffffffffffffffffffffffffffffffffffffff168273ffffffffffffffffffffffffffffffffffffffff161415620001ba576040517f08c379a0000000000000000000000000000000000000000000000000000000008152600401620001b1906200042b565b60405180910390fd5b620001ce60008383620002ca60201b60201c565b8060026000828254620001e291906200047b565b92505081905550806000808473ffffffffffffffffffffffffffffffffffffffff1673ffffffffffffffffffffffffffffffffffffffff16815260200190815260200160002060008282546200023991906200047b565b925050819055508173ffffffffffffffffffffffffffffffffffffffff16600073ffffffffffffffffffffffffffffffffffffffff167fddf252ad1be2c89b69c2b068fc378daa952ba7f163c4a11628f55a4df523b3ef83604051620002a091906200044d565b60405180910390a3620002bc60008383620002cf60201b60201c565b5050565b8060058190555050565b505050565b505050565b828054620002e29062000516565b90600052602060002090601f01602090048101928262000306576000855562000352565b82601f106200032157805160ff191683800117855562000352565b8280016001018555821562000352579182015b828111156200035157825182559160200191906001019062000334565b5b50905062000361919062000365565b5090565b5b808211156200038057600081600090555060010162000366565b5090565b6000815190506200039581620005d3565b92915050565b600081519050620003ac81620005ed565b92915050565b60008060408385031215620003c657600080fd5b6000620003d68582860162000384565b9250506020620003e9858286016200039b565b9150509250929050565b600062000402601f836200046a565b91506200040f82620005aa565b602082019050919050565b62000425816200050c565b82525050565b600060208201905081810360008301526200044681620003f3565b9050919050565b60006020820190506200046460008301846200041a565b92915050565b600082825260208201905092915050565b600062000488826200050c565b915062000495836200050c565b9250827fffffffffffffffffffffffffffffffffffffffffffffffffffffffffffffffff03821115620004cd57620004cc6200054c565b5b828201905092915050565b6000620004e582620004ec565b9050919050565b600073ffffffffffffffffffffffffffffffffffffffff82169050919050565b6000819050919050565b600060028204905060018216806200052f57607f821691505b602082108114156200054657620005456200057b565b5b50919050565b7f4e487b7100000000000000000000000000000000000000000000000000000000600052601160045260246000fd5b7f4e487b7100000000000000000000000000000000000000000000000000000000600052602260045260246000fd5b7f45524332303a206d696e7420746f20746865207a65726f206164647265737300600082015250565b620005de81620004d8565b8114620005ea57600080fd5b50565b620005f8816200050c565b81146200060457600080fd5b50565b6115f080620006176000396000f3fe6080604052600436106100c65760003560e01c8063395093511161007f578063a25eb5d911610059578063a25eb5d9146102c1578063a457c2d7146102cb578063a9059cbb14610308578063dd62ed3e14610345576100f1565b8063395093511461021c57806370a082311461025957806395d89b4114610296576100f1565b8063031b41891461011757806306fdde0314610121578063095ea7b31461014c57806318160ddd1461018957806323b872dd146101b4578063313ce567146101f1576100f1565b366100f1576005544211156100da57600080fd5b60003411156100ef576100ee346066610382565b5b005b60055442111561010057600080fd5b600034111561011557610114346065610382565b5b005b61011f6103dd565b005b34801561012d57600080fd5b5061013661043f565b6040516101439190611090565b60405180910390f35b34801561015857600080fd5b50610173600480360381019061016e9190610e8a565b6104d1565b6040516101809190611075565b60405180910390f35b34801561019557600080fd5b5061019e6104ef565b6040516101ab9190611192565b60405180910390f35b3480156101c057600080fd5b506101db60048036038101906101d69190610e3b565b6104f9565b6040516101e89190611075565b60405180910390f35b3480156101fd57600080fd5b506102066105f1565b60405161021391906111ad565b60405180910390f35b34801561022857600080fd5b50610243600480360381019061023e9190610e8a565b6105fa565b6040516102509190611075565b60405180910390f35b34801561026557600080fd5b50610280600480360381019061027b9190610dd6565b6106a6565b60405161028d9190611192565b60405180910390f35b3480156102a257600080fd5b506102ab6106ee565b6040516102b89190611090565b60405180910390f35b6102c9610780565b005b3480156102d757600080fd5b506102f260048036038101906102ed9190610e8a565b6107a6565b6040516102ff9190611075565b60405180910390f35b34801561031457600080fd5b5061032f600480360381019061032a9190610e8a565b610891565b60405161033c9190611075565b60405180910390f35b34801561035157600080fd5b5061036c60048036038101906103679190610dff565b6108af565b6040516103799190611192565b60405180910390f35b6103943061038e610936565b8461093e565b507f70ee46485b987eaf472c55908dc22ab5db176b6125c52401cb86bbfc91cb5c5f6103be610936565b3084846040516103d19493929190611030565b60405180910390a15050565b600034111561043d5734600760003373ffffffffffffffffffffffffffffffffffffffff1673ffffffffffffffffffffffffffffffffffffffff168152602001908152602001600020600082825461043591906111e4565b925050819055505b565b60606003805461044e906112c2565b80601f016020809104026020016040519081016040528092919081815260200182805461047a906112c2565b80156104c75780601f1061049c576101008083540402835291602001916104c7565b820191906000526020600020905b8154815290600101906020018083116104aa57829003601f168201915b5050505050905090565b60006104e56104de610936565b8484610956565b6001905092915050565b6000600254905090565b6000610506848484610b21565b6000600160008673ffffffffffffffffffffffffffffffffffffffff1673ffffffffffffffffffffffffffffffffffffffff1681526020019081526020016000206000610551610936565b73ffffffffffffffffffffffffffffffffffffffff1673ffffffffffffffffffffffffffffffffffffffff168152602001908152602001600020549050828110156105d1576040517f08c379a00000000000000000000000000000000000000000000000000000000081526004016105c890611112565b60405180910390fd5b6105e5856105dd610936565b858403610956565b60019150509392505050565b60006012905090565b600061069c610607610936565b848460016000610615610936565b73ffffffffffffffffffffffffffffffffffffffff1673ffffffffffffffffffffffffffffffffffffffff16815260200190815260200160002060008873ffffffffffffffffffffffffffffffffffffffff1673ffffffffffffffffffffffffffffffffffffffff1681526020019081526020016000205461069791906111e4565b610956565b6001905092915050565b60008060008373ffffffffffffffffffffffffffffffffffffffff1673ffffffffffffffffffffffffffffffffffffffff168152602001908152602001600020549050919050565b6060600480546106fd906112c2565b80601f0160208091040260200160405190810160405280929190818152602001828054610729906112c2565b80156107765780601f1061074b57610100808354040283529160200191610776565b820191906000526020600020905b81548152906001019060200180831161075957829003601f168201915b5050505050905090565b60055442111561078f57600080fd5b60003411156107a4576107a3346067610382565b5b565b600080600160006107b5610936565b73ffffffffffffffffffffffffffffffffffffffff1673ffffffffffffffffffffffffffffffffffffffff16815260200190815260200160002060008573ffffffffffffffffffffffffffffffffffffffff1673ffffffffffffffffffffffffffffffffffffffff16815260200190815260200160002054905082811015610872576040517f08c379a000000000000000000000000000000000000000000000000000000000815260040161086990611172565b60405180910390fd5b61088661087d610936565b85858403610956565b600191505092915050565b60006108a561089e610936565b8484610b21565b6001905092915050565b6000600160008473ffffffffffffffffffffffffffffffffffffffff1673ffffffffffffffffffffffffffffffffffffffff16815260200190815260200160002060008373ffffffffffffffffffffffffffffffffffffffff1673ffffffffffffffffffffffffffffffffffffffff16815260200190815260200160002054905092915050565b600033905090565b600061094b848484610b21565b600190509392505050565b600073ffffffffffffffffffffffffffffffffffffffff168373ffffffffffffffffffffffffffffffffffffffff1614156109c6576040517f08c379a00000000000000000000000000000000000000000000000000000000081526004016109bd90611152565b60405180910390fd5b600073ffffffffffffffffffffffffffffffffffffffff168273ffffffffffffffffffffffffffffffffffffffff161415610a36576040517f08c379a0000000000000000000000000000000000000000000000000000000008152600401610a2d906110d2565b60405180910390fd5b80600160008573ffffffffffffffffffffffffffffffffffffffff1673ffffffffffffffffffffffffffffffffffffffff16815260200190815260200160002060008473ffffffffffffffffffffffffffffffffffffffff1673ffffffffffffffffffffffffffffffffffffffff168152602001908152602001600020819055508173ffffffffffffffffffffffffffffffffffffffff168373ffffffffffffffffffffffffffffffffffffffff167f8c5be1e5ebec7d5bd14f71427d1e84f3dd0314c0f7b2291e5b200ac8c7c3b92583604051610b149190611192565b60405180910390a3505050565b600073ffffffffffffffffffffffffffffffffffffffff168373ffffffffffffffffffffffffffffffffffffffff161415610b91576040517f08c379a0000000000000000000000000000000000000000000000000000000008152600401610b8890611132565b60405180910390fd5b600073ffffffffffffffffffffffffffffffffffffffff168273ffffffffffffffffffffffffffffffffffffffff161415610c01576040517f08c379a0000000000000000000000000000000000000000000000000000000008152600401610bf8906110b2565b60405180910390fd5b610c0c838383610da2565b60008060008573ffffffffffffffffffffffffffffffffffffffff1673ffffffffffffffffffffffffffffffffffffffff16815260200190815260200160002054905081811015610c92576040517f08c379a0000000000000000000000000000000000000000000000000000000008152600401610c89906110f2565b60405180910390fd5b8181036000808673ffffffffffffffffffffffffffffffffffffffff1673ffffffffffffffffffffffffffffffffffffffff16815260200190815260200160002081905550816000808573ffffffffffffffffffffffffffffffffffffffff1673ffffffffffffffffffffffffffffffffffffffff1681526020019081526020016000206000828254610d2591906111e4565b925050819055508273ffffffffffffffffffffffffffffffffffffffff168473ffffffffffffffffffffffffffffffffffffffff167fddf252ad1be2c89b69c2b068fc378daa952ba7f163c4a11628f55a4df523b3ef84604051610d899190611192565b60405180910390a3610d9c848484610da7565b50505050565b505050565b505050565b600081359050610dbb8161158c565b92915050565b600081359050610dd0816115a3565b92915050565b600060208284031215610de857600080fd5b6000610df684828501610dac565b91505092915050565b60008060408385031215610e1257600080fd5b6000610e2085828601610dac565b9250506020610e3185828601610dac565b9150509250929050565b600080600060608486031215610e5057600080fd5b6000610e5e86828701610dac565b9350506020610e6f86828701610dac565b9250506040610e8086828701610dc1565b9150509250925092565b60008060408385031215610e9d57600080fd5b6000610eab85828601610dac565b9250506020610ebc85828601610dc1565b9150509250929050565b610ecf8161123a565b82525050565b610ede8161124c565b82525050565b6000610eef826111c8565b610ef981856111d3565b9350610f0981856020860161128f565b610f1281611352565b840191505092915050565b6000610f2a6023836111d3565b9150610f3582611363565b604082019050919050565b6000610f4d6022836111d3565b9150610f58826113b2565b604082019050919050565b6000610f706026836111d3565b9150610f7b82611401565b604082019050919050565b6000610f936028836111d3565b9150610f9e82611450565b604082019050919050565b6000610fb66025836111d3565b9150610fc18261149f565b604082019050919050565b6000610fd96024836111d3565b9150610fe4826114ee565b604082019050919050565b6000610ffc6025836111d3565b91506110078261153d565b604082019050919050565b61101b81611278565b82525050565b61102a81611282565b82525050565b60006080820190506110456000830187610ec6565b6110526020830186610ec6565b61105f6040830185611012565b61106c6060830184611012565b95945050505050565b600060208201905061108a6000830184610ed5565b92915050565b600060208201905081810360008301526110aa8184610ee4565b905092915050565b600060208201905081810360008301526110cb81610f1d565b9050919050565b600060208201905081810360008301526110eb81610f40565b9050919050565b6000602082019050818103600083015261110b81610f63565b9050919050565b6000602082019050818103600083015261112b81610f86565b9050919050565b6000602082019050818103600083015261114b81610fa9565b9050919050565b6000602082019050818103600083015261116b81610fcc565b9050919050565b6000602082019050818103600083015261118b81610fef565b9050919050565b60006020820190506111a76000830184611012565b92915050565b60006020820190506111c26000830184611021565b92915050565b600081519050919050565b600082825260208201905092915050565b60006111ef82611278565b91506111fa83611278565b9250827fffffffffffffffffffffffffffffffffffffffffffffffffffffffffffffffff0382111561122f5761122e6112f4565b5b828201905092915050565b600061124582611258565b9050919050565b60008115159050919050565b600073ffffffffffffffffffffffffffffffffffffffff82169050919050565b6000819050919050565b600060ff82169050919050565b60005b838110156112ad578082015181840152602081019050611292565b838111156112bc576000848401525b50505050565b600060028204905060018216806112da57607f821691505b602082108114156112ee576112ed611323565b5b50919050565b7f4e487b7100000000000000000000000000000000000000000000000000000000600052601160045260246000fd5b7f4e487b7100000000000000000000000000000000000000000000000000000000600052602260045260246000fd5b6000601f19601f8301169050919050565b7f45524332303a207472616e7366657220746f20746865207a65726f206164647260008201527f6573730000000000000000000000000000000000000000000000000000000000602082015250565b7f45524332303a20617070726f766520746f20746865207a65726f20616464726560008201527f7373000000000000000000000000000000000000000000000000000000000000602082015250565b7f45524332303a207472616e7366657220616d6f756e742065786365656473206260008201527f616c616e63650000000000000000000000000000000000000000000000000000602082015250565b7f45524332303a207472616e7366657220616d6f756e742065786365656473206160008201527f6c6c6f77616e6365000000000000000000000000000000000000000000000000602082015250565b7f45524332303a207472616e736665722066726f6d20746865207a65726f20616460008201527f6472657373000000000000000000000000000000000000000000000000000000602082015250565b7f45524332303a20617070726f76652066726f6d20746865207a65726f2061646460008201527f7265737300000000000000000000000000000000000000000000000000000000602082015250565b7f45524332303a2064656372656173656420616c6c6f77616e63652062656c6f7760008201527f207a65726f000000000000000000000000000000000000000000000000000000602082015250565b6115958161123a565b81146115a057600080fd5b50565b6115ac81611278565b81146115b757600080fd5b5056fea2646970667358221220cc6270c8260e34c797c2da5c1cac8e3022ae186d2f28e4fe40d892c586413c8564736f6c63430008040033",
  "linkReferences": {},
  "deployedLinkReferences": {}
}