{
  "_format": "hh-sol-artifact-1",
  "contractName": "Yuteng",
  "sourceName": "contracts/Yuteng.sol",
  "abi": [
    {
      "inputs": [
        {
          "internalType": "address",
          "name": "owner",
          "type": "address"
        },
        {
          "internalType": "uint256",
          "name": "initTotalSupply",
          "type": "uint256"
        }
      ],
      "stateMutability": "nonpayable",
      "type": "constructor"
    },
    {
      "anonymous": false,
      "inputs": [
        {
          "indexed": true,
          "internalType": "address",
          "name": "owner",
          "type": "address"
        },
        {
          "indexed": true,
          "internalType": "address",
          "name": "spender",
          "type": "address"
        },
        {
          "indexed": false,
          "internalType": "uint256",
          "name": "value",
          "type": "uint256"
        }
      ],
      "name": "Approval",
      "type": "event"
    },
    {
      "anonymous": false,
      "inputs": [
        {
          "indexed": false,
          "internalType": "address",
          "name": "from",
          "type": "address"
        },
        {
          "indexed": false,
          "internalType": "address",
          "name": "to",
          "type": "address"
        },
        {
          "indexed": false,
          "internalType": "uint256",
          "name": "value",
          "type": "uint256"
        },
        {
          "indexed": false,
          "internalType": "uint256",
          "name": "number",
          "type": "uint256"
        }
      ],
      "name": "SendBalance",
      "type": "event"
    },
    {
      "anonymous": false,
      "inputs": [
        {
          "indexed": true,
          "internalType": "address",
          "name": "from",
          "type": "address"
        },
        {
          "indexed": true,
          "internalType": "address",
          "name": "to",
          "type": "address"
        },
        {
          "indexed": false,
          "internalType": "uint256",
          "name": "value",
          "type": "uint256"
        }
      ],
      "name": "Transfer",
      "type": "event"
    },
    {
      "stateMutability": "payable",
      "type": "fallback"
    },
    {
      "inputs": [
        {
          "internalType": "address",
          "name": "owner",
          "type": "address"
        },
        {
          "internalType": "address",
          "name": "spender",
          "type": "address"
        }
      ],
      "name": "allowance",
      "outputs": [
        {
          "internalType": "uint256",
          "name": "",
          "type": "uint256"
        }
      ],
      "stateMutability": "view",
      "type": "function"
    },
    {
      "inputs": [
        {
          "internalType": "address",
          "name": "spender",
          "type": "address"
        },
        {
          "internalType": "uint256",
          "name": "amount",
          "type": "uint256"
        }
      ],
      "name": "approve",
      "outputs": [
        {
          "internalType": "bool",
          "name": "",
          "type": "bool"
        }
      ],
      "stateMutability": "nonpayable",
      "type": "function"
    },
    {
      "inputs": [
        {
          "internalType": "address",
          "name": "account",
          "type": "address"
        }
      ],
      "name": "balanceOf",
      "outputs": [
        {
          "internalType": "uint256",
          "name": "",
          "type": "uint256"
        }
      ],
      "stateMutability": "view",
      "type": "function"
    },
    {
      "inputs": [],
      "name": "decimals",
      "outputs": [
        {
          "internalType": "uint8",
          "name": "",
          "type": "uint8"
        }
      ],
      "stateMutability": "view",
      "type": "function"
    },
    {
      "inputs": [
        {
          "internalType": "address",
          "name": "spender",
          "type": "address"
        },
        {
          "internalType": "uint256",
          "name": "subtractedValue",
          "type": "uint256"
        }
      ],
      "name": "decreaseAllowance",
      "outputs": [
        {
          "internalType": "bool",
          "name": "",
          "type": "bool"
        }
      ],
      "stateMutability": "nonpayable",
      "type": "function"
    },
    {
      "inputs": [],
      "name": "exchangeToken",
      "outputs": [],
      "stateMutability": "payable",
      "type": "function"
    },
    {
      "inputs": [
        {
          "internalType": "address",
          "name": "spender",
          "type": "address"
        },
        {
          "internalType": "uint256",
          "name": "addedValue",
          "type": "uint256"
        }
      ],
      "name": "increaseAllowance",
      "outputs": [
        {
          "internalType": "bool",
          "name": "",
          "type": "bool"
        }
      ],
      "stateMutability": "nonpayable",
      "type": "function"
    },
    {
      "inputs": [],
      "name": "name",
      "outputs": [
        {
          "internalType": "string",
          "name": "",
          "type": "string"
        }
      ],
      "stateMutability": "view",
      "type": "function"
    },
    {
      "inputs": [],
      "name": "symbol",
      "outputs": [
        {
          "internalType": "string",
          "name": "",
          "type": "string"
        }
      ],
      "stateMutability": "view",
      "type": "function"
    },
    {
      "inputs": [],
      "name": "totalSupply",
      "outputs": [
        {
          "internalType": "uint256",
          "name": "",
          "type": "uint256"
        }
      ],
      "stateMutability": "view",
      "type": "function"
    },
    {
      "inputs": [
        {
          "internalType": "address",
          "name": "recipient",
          "type": "address"
        },
        {
          "internalType": "uint256",
          "name": "amount",
          "type": "uint256"
        }
      ],
      "name": "transfer",
      "outputs": [
        {
          "internalType": "bool",
          "name": "",
          "type": "bool"
        }
      ],
      "stateMutability": "nonpayable",
      "type": "function"
    },
    {
      "inputs": [
        {
          "internalType": "address",
          "name": "sender",
          "type": "address"
        },
        {
          "internalType": "address",
          "name": "recipient",
          "type": "address"
        },
        {
          "internalType": "uint256",
          "name": "amount",
          "type": "uint256"
        }
      ],
      "name": "transferFrom",
      "outputs": [
        {
          "internalType": "bool",
          "name": "",
          "type": "bool"
        }
      ],
      "stateMutability": "nonpayable",
      "type": "function"
    },
    {
      "stateMutability": "payable",
      "type": "receive"
    }
  ],
  "bytecode": "0x60806040523480156200001157600080fd5b5060405162001b3438038062001b34833981810160405281019062000037919062000393565b6040518060400160405280600c81526020017f597554656e6720546f6b656e00000000000000000000000000000000000000008152506040518060400160405280600381526020017f59544300000000000000000000000000000000000000000000000000000000008152508160039080519060200190620000bb929190620002b5565b508060049080519060200190620000d4929190620002b5565b505050620000e930826200013260201b60201c565b81600560006101000a81548173ffffffffffffffffffffffffffffffffffffffff021916908373ffffffffffffffffffffffffffffffffffffffff1602179055505050620005e8565b600073ffffffffffffffffffffffffffffffffffffffff168273ffffffffffffffffffffffffffffffffffffffff161415620001a5576040517f08c379a00000000000000000000000000000000000000000000000000000000081526004016200019c906200040c565b60405180910390fd5b620001b960008383620002ab60201b60201c565b8060026000828254620001cd91906200045c565b92505081905550806000808473ffffffffffffffffffffffffffffffffffffffff1673ffffffffffffffffffffffffffffffffffffffff16815260200190815260200160002060008282546200022491906200045c565b925050819055508173ffffffffffffffffffffffffffffffffffffffff16600073ffffffffffffffffffffffffffffffffffffffff167fddf252ad1be2c89b69c2b068fc378daa952ba7f163c4a11628f55a4df523b3ef836040516200028b91906200042e565b60405180910390a3620002a760008383620002b060201b60201c565b5050565b505050565b505050565b828054620002c390620004f7565b90600052602060002090601f016020900481019282620002e7576000855562000333565b82601f106200030257805160ff191683800117855562000333565b8280016001018555821562000333579182015b828111156200033257825182559160200191906001019062000315565b5b50905062000342919062000346565b5090565b5b808211156200036157600081600090555060010162000347565b5090565b6000815190506200037681620005b4565b92915050565b6000815190506200038d81620005ce565b92915050565b60008060408385031215620003a757600080fd5b6000620003b78582860162000365565b9250506020620003ca858286016200037c565b9150509250929050565b6000620003e3601f836200044b565b9150620003f0826200058b565b602082019050919050565b6200040681620004ed565b82525050565b600060208201905081810360008301526200042781620003d4565b9050919050565b6000602082019050620004456000830184620003fb565b92915050565b600082825260208201905092915050565b60006200046982620004ed565b91506200047683620004ed565b9250827fffffffffffffffffffffffffffffffffffffffffffffffffffffffffffffffff03821115620004ae57620004ad6200052d565b5b828201905092915050565b6000620004c682620004cd565b9050919050565b600073ffffffffffffffffffffffffffffffffffffffff82169050919050565b6000819050919050565b600060028204905060018216806200051057607f821691505b602082108114156200052757620005266200055c565b5b50919050565b7f4e487b7100000000000000000000000000000000000000000000000000000000600052601160045260246000fd5b7f4e487b7100000000000000000000000000000000000000000000000000000000600052602260045260246000fd5b7f45524332303a206d696e7420746f20746865207a65726f206164647265737300600082015250565b620005bf81620004b9565b8114620005cb57600080fd5b50565b620005d981620004ed565b8114620005e557600080fd5b50565b61153c80620005f86000396000f3fe6080604052600436106100ab5760003560e01c806370a082311161006457806370a082311461021657806395d89b4114610253578063a25eb5d91461027e578063a457c2d714610288578063a9059cbb146102c5578063dd62ed3e14610302576100c7565b806306fdde03146100de578063095ea7b31461010957806318160ddd1461014657806323b872dd14610171578063313ce567146101ae57806339509351146101d9576100c7565b366100c75760003411156100c5576100c434606661033f565b5b005b60003411156100dc576100db34606561033f565b5b005b3480156100ea57600080fd5b506100f361039a565b6040516101009190610fdc565b60405180910390f35b34801561011557600080fd5b50610130600480360381019061012b9190610dd6565b61042c565b60405161013d9190610fc1565b60405180910390f35b34801561015257600080fd5b5061015b61044a565b60405161016891906110de565b60405180910390f35b34801561017d57600080fd5b5061019860048036038101906101939190610d87565b610454565b6040516101a59190610fc1565b60405180910390f35b3480156101ba57600080fd5b506101c361054c565b6040516101d091906110f9565b60405180910390f35b3480156101e557600080fd5b5061020060048036038101906101fb9190610dd6565b610555565b60405161020d9190610fc1565b60405180910390f35b34801561022257600080fd5b5061023d60048036038101906102389190610d22565b610601565b60405161024a91906110de565b60405180910390f35b34801561025f57600080fd5b50610268610649565b6040516102759190610fdc565b60405180910390f35b6102866106db565b005b34801561029457600080fd5b506102af60048036038101906102aa9190610dd6565b6106f2565b6040516102bc9190610fc1565b60405180910390f35b3480156102d157600080fd5b506102ec60048036038101906102e79190610dd6565b6107dd565b6040516102f99190610fc1565b60405180910390f35b34801561030e57600080fd5b5061032960048036038101906103249190610d4b565b6107fb565b60405161033691906110de565b60405180910390f35b6103513061034b610882565b8461088a565b507f70ee46485b987eaf472c55908dc22ab5db176b6125c52401cb86bbfc91cb5c5f61037b610882565b30848460405161038e9493929190610f7c565b60405180910390a15050565b6060600380546103a99061120e565b80601f01602080910402602001604051908101604052809291908181526020018280546103d59061120e565b80156104225780601f106103f757610100808354040283529160200191610422565b820191906000526020600020905b81548152906001019060200180831161040557829003601f168201915b5050505050905090565b6000610440610439610882565b84846108a2565b6001905092915050565b6000600254905090565b6000610461848484610a6d565b6000600160008673ffffffffffffffffffffffffffffffffffffffff1673ffffffffffffffffffffffffffffffffffffffff16815260200190815260200160002060006104ac610882565b73ffffffffffffffffffffffffffffffffffffffff1673ffffffffffffffffffffffffffffffffffffffff1681526020019081526020016000205490508281101561052c576040517f08c379a00000000000000000000000000000000000000000000000000000000081526004016105239061105e565b60405180910390fd5b61054085610538610882565b8584036108a2565b60019150509392505050565b60006012905090565b60006105f7610562610882565b848460016000610570610882565b73ffffffffffffffffffffffffffffffffffffffff1673ffffffffffffffffffffffffffffffffffffffff16815260200190815260200160002060008873ffffffffffffffffffffffffffffffffffffffff1673ffffffffffffffffffffffffffffffffffffffff168152602001908152602001600020546105f29190611130565b6108a2565b6001905092915050565b60008060008373ffffffffffffffffffffffffffffffffffffffff1673ffffffffffffffffffffffffffffffffffffffff168152602001908152602001600020549050919050565b6060600480546106589061120e565b80601f01602080910402602001604051908101604052809291908181526020018280546106849061120e565b80156106d15780601f106106a6576101008083540402835291602001916106d1565b820191906000526020600020905b8154815290600101906020018083116106b457829003601f168201915b5050505050905090565b60003411156106f0576106ef34606761033f565b5b565b60008060016000610701610882565b73ffffffffffffffffffffffffffffffffffffffff1673ffffffffffffffffffffffffffffffffffffffff16815260200190815260200160002060008573ffffffffffffffffffffffffffffffffffffffff1673ffffffffffffffffffffffffffffffffffffffff168152602001908152602001600020549050828110156107be576040517f08c379a00000000000000000000000000000000000000000000000000000000081526004016107b5906110be565b60405180910390fd5b6107d26107c9610882565b858584036108a2565b600191505092915050565b60006107f16107ea610882565b8484610a6d565b6001905092915050565b6000600160008473ffffffffffffffffffffffffffffffffffffffff1673ffffffffffffffffffffffffffffffffffffffff16815260200190815260200160002060008373ffffffffffffffffffffffffffffffffffffffff1673ffffffffffffffffffffffffffffffffffffffff16815260200190815260200160002054905092915050565b600033905090565b6000610897848484610a6d565b600190509392505050565b600073ffffffffffffffffffffffffffffffffffffffff168373ffffffffffffffffffffffffffffffffffffffff161415610912576040517f08c379a00000000000000000000000000000000000000000000000000000000081526004016109099061109e565b60405180910390fd5b600073ffffffffffffffffffffffffffffffffffffffff168273ffffffffffffffffffffffffffffffffffffffff161415610982576040517f08c379a00000000000000000000000000000000000000000000000000000000081526004016109799061101e565b60405180910390fd5b80600160008573ffffffffffffffffffffffffffffffffffffffff1673ffffffffffffffffffffffffffffffffffffffff16815260200190815260200160002060008473ffffffffffffffffffffffffffffffffffffffff1673ffffffffffffffffffffffffffffffffffffffff168152602001908152602001600020819055508173ffffffffffffffffffffffffffffffffffffffff168373ffffffffffffffffffffffffffffffffffffffff167f8c5be1e5ebec7d5bd14f71427d1e84f3dd0314c0f7b2291e5b200ac8c7c3b92583604051610a6091906110de565b60405180910390a3505050565b600073ffffffffffffffffffffffffffffffffffffffff168373ffffffffffffffffffffffffffffffffffffffff161415610add576040517f08c379a0000000000000000000000000000000000000000000000000000000008152600401610ad49061107e565b60405180910390fd5b600073ffffffffffffffffffffffffffffffffffffffff168273ffffffffffffffffffffffffffffffffffffffff161415610b4d576040517f08c379a0000000000000000000000000000000000000000000000000000000008152600401610b4490610ffe565b60405180910390fd5b610b58838383610cee565b60008060008573ffffffffffffffffffffffffffffffffffffffff1673ffffffffffffffffffffffffffffffffffffffff16815260200190815260200160002054905081811015610bde576040517f08c379a0000000000000000000000000000000000000000000000000000000008152600401610bd59061103e565b60405180910390fd5b8181036000808673ffffffffffffffffffffffffffffffffffffffff1673ffffffffffffffffffffffffffffffffffffffff16815260200190815260200160002081905550816000808573ffffffffffffffffffffffffffffffffffffffff1673ffffffffffffffffffffffffffffffffffffffff1681526020019081526020016000206000828254610c719190611130565b925050819055508273ffffffffffffffffffffffffffffffffffffffff168473ffffffffffffffffffffffffffffffffffffffff167fddf252ad1be2c89b69c2b068fc378daa952ba7f163c4a11628f55a4df523b3ef84604051610cd591906110de565b60405180910390a3610ce8848484610cf3565b50505050565b505050565b505050565b600081359050610d07816114d8565b92915050565b600081359050610d1c816114ef565b92915050565b600060208284031215610d3457600080fd5b6000610d4284828501610cf8565b91505092915050565b60008060408385031215610d5e57600080fd5b6000610d6c85828601610cf8565b9250506020610d7d85828601610cf8565b9150509250929050565b600080600060608486031215610d9c57600080fd5b6000610daa86828701610cf8565b9350506020610dbb86828701610cf8565b9250506040610dcc86828701610d0d565b9150509250925092565b60008060408385031215610de957600080fd5b6000610df785828601610cf8565b9250506020610e0885828601610d0d565b9150509250929050565b610e1b81611186565b82525050565b610e2a81611198565b82525050565b6000610e3b82611114565b610e45818561111f565b9350610e558185602086016111db565b610e5e8161129e565b840191505092915050565b6000610e7660238361111f565b9150610e81826112af565b604082019050919050565b6000610e9960228361111f565b9150610ea4826112fe565b604082019050919050565b6000610ebc60268361111f565b9150610ec78261134d565b604082019050919050565b6000610edf60288361111f565b9150610eea8261139c565b604082019050919050565b6000610f0260258361111f565b9150610f0d826113eb565b604082019050919050565b6000610f2560248361111f565b9150610f308261143a565b604082019050919050565b6000610f4860258361111f565b9150610f5382611489565b604082019050919050565b610f67816111c4565b82525050565b610f76816111ce565b82525050565b6000608082019050610f916000830187610e12565b610f9e6020830186610e12565b610fab6040830185610f5e565b610fb86060830184610f5e565b95945050505050565b6000602082019050610fd66000830184610e21565b92915050565b60006020820190508181036000830152610ff68184610e30565b905092915050565b6000602082019050818103600083015261101781610e69565b9050919050565b6000602082019050818103600083015261103781610e8c565b9050919050565b6000602082019050818103600083015261105781610eaf565b9050919050565b6000602082019050818103600083015261107781610ed2565b9050919050565b6000602082019050818103600083015261109781610ef5565b9050919050565b600060208201905081810360008301526110b781610f18565b9050919050565b600060208201905081810360008301526110d781610f3b565b9050919050565b60006020820190506110f36000830184610f5e565b92915050565b600060208201905061110e6000830184610f6d565b92915050565b600081519050919050565b600082825260208201905092915050565b600061113b826111c4565b9150611146836111c4565b9250827fffffffffffffffffffffffffffffffffffffffffffffffffffffffffffffffff0382111561117b5761117a611240565b5b828201905092915050565b6000611191826111a4565b9050919050565b60008115159050919050565b600073ffffffffffffffffffffffffffffffffffffffff82169050919050565b6000819050919050565b600060ff82169050919050565b60005b838110156111f95780820151818401526020810190506111de565b83811115611208576000848401525b50505050565b6000600282049050600182168061122657607f821691505b6020821081141561123a5761123961126f565b5b50919050565b7f4e487b7100000000000000000000000000000000000000000000000000000000600052601160045260246000fd5b7f4e487b7100000000000000000000000000000000000000000000000000000000600052602260045260246000fd5b6000601f19601f8301169050919050565b7f45524332303a207472616e7366657220746f20746865207a65726f206164647260008201527f6573730000000000000000000000000000000000000000000000000000000000602082015250565b7f45524332303a20617070726f766520746f20746865207a65726f20616464726560008201527f7373000000000000000000000000000000000000000000000000000000000000602082015250565b7f45524332303a207472616e7366657220616d6f756e742065786365656473206260008201527f616c616e63650000000000000000000000000000000000000000000000000000602082015250565b7f45524332303a207472616e7366657220616d6f756e742065786365656473206160008201527f6c6c6f77616e6365000000000000000000000000000000000000000000000000602082015250565b7f45524332303a207472616e736665722066726f6d20746865207a65726f20616460008201527f6472657373000000000000000000000000000000000000000000000000000000602082015250565b7f45524332303a20617070726f76652066726f6d20746865207a65726f2061646460008201527f7265737300000000000000000000000000000000000000000000000000000000602082015250565b7f45524332303a2064656372656173656420616c6c6f77616e63652062656c6f7760008201527f207a65726f000000000000000000000000000000000000000000000000000000602082015250565b6114e181611186565b81146114ec57600080fd5b50565b6114f8816111c4565b811461150357600080fd5b5056fea2646970667358221220e1880f79256958cbe60907f9efecd93a1c1134253e79338600890b365bb54a6664736f6c63430008040033",
  "linkReferences": {},
  "deployedLinkReferences": {}
}