{
  "_format": "hh-sol-artifact-1",
  "contractName": "Yuteng",
  "sourceName": "contracts/Yuteng.sol",
  "abi": [
    {
      "inputs": [
        {
          "internalType": "address",
          "name": "owner",
          "type": "address"
        },
        {
          "internalType": "uint256",
          "name": "initTotalSupply",
          "type": "uint256"
        }
      ],
      "stateMutability": "payable",
      "type": "constructor"
    },
    {
      "anonymous": false,
      "inputs": [
        {
          "indexed": true,
          "internalType": "address",
          "name": "owner",
          "type": "address"
        },
        {
          "indexed": true,
          "internalType": "address",
          "name": "spender",
          "type": "address"
        },
        {
          "indexed": false,
          "internalType": "uint256",
          "name": "value",
          "type": "uint256"
        }
      ],
      "name": "Approval",
      "type": "event"
    },
    {
      "anonymous": false,
      "inputs": [
        {
          "indexed": false,
          "internalType": "address",
          "name": "from",
          "type": "address"
        },
        {
          "indexed": false,
          "internalType": "address",
          "name": "to",
          "type": "address"
        },
        {
          "indexed": false,
          "internalType": "uint256",
          "name": "value",
          "type": "uint256"
        },
        {
          "indexed": false,
          "internalType": "uint256",
          "name": "number",
          "type": "uint256"
        }
      ],
      "name": "SendBalance",
      "type": "event"
    },
    {
      "anonymous": false,
      "inputs": [
        {
          "indexed": true,
          "internalType": "address",
          "name": "from",
          "type": "address"
        },
        {
          "indexed": true,
          "internalType": "address",
          "name": "to",
          "type": "address"
        },
        {
          "indexed": false,
          "internalType": "uint256",
          "name": "value",
          "type": "uint256"
        }
      ],
      "name": "Transfer",
      "type": "event"
    },
    {
      "stateMutability": "payable",
      "type": "fallback"
    },
    {
      "inputs": [
        {
          "internalType": "address",
          "name": "owner",
          "type": "address"
        },
        {
          "internalType": "address",
          "name": "spender",
          "type": "address"
        }
      ],
      "name": "allowance",
      "outputs": [
        {
          "internalType": "uint256",
          "name": "",
          "type": "uint256"
        }
      ],
      "stateMutability": "view",
      "type": "function"
    },
    {
      "inputs": [
        {
          "internalType": "address",
          "name": "spender",
          "type": "address"
        },
        {
          "internalType": "uint256",
          "name": "amount",
          "type": "uint256"
        }
      ],
      "name": "approve",
      "outputs": [
        {
          "internalType": "bool",
          "name": "",
          "type": "bool"
        }
      ],
      "stateMutability": "nonpayable",
      "type": "function"
    },
    {
      "inputs": [
        {
          "internalType": "address",
          "name": "owner",
          "type": "address"
        },
        {
          "internalType": "address",
          "name": "spender",
          "type": "address"
        },
        {
          "internalType": "uint256",
          "name": "amount",
          "type": "uint256"
        }
      ],
      "name": "approve",
      "outputs": [
        {
          "internalType": "bool",
          "name": "",
          "type": "bool"
        }
      ],
      "stateMutability": "nonpayable",
      "type": "function"
    },
    {
      "inputs": [
        {
          "internalType": "address",
          "name": "account",
          "type": "address"
        }
      ],
      "name": "balanceOf",
      "outputs": [
        {
          "internalType": "uint256",
          "name": "",
          "type": "uint256"
        }
      ],
      "stateMutability": "view",
      "type": "function"
    },
    {
      "inputs": [],
      "name": "decimals",
      "outputs": [
        {
          "internalType": "uint8",
          "name": "",
          "type": "uint8"
        }
      ],
      "stateMutability": "view",
      "type": "function"
    },
    {
      "inputs": [
        {
          "internalType": "address",
          "name": "spender",
          "type": "address"
        },
        {
          "internalType": "uint256",
          "name": "subtractedValue",
          "type": "uint256"
        }
      ],
      "name": "decreaseAllowance",
      "outputs": [
        {
          "internalType": "bool",
          "name": "",
          "type": "bool"
        }
      ],
      "stateMutability": "nonpayable",
      "type": "function"
    },
    {
      "inputs": [],
      "name": "depositMiningByEndDate",
      "outputs": [],
      "stateMutability": "payable",
      "type": "function"
    },
    {
      "inputs": [],
      "name": "exchangeToken",
      "outputs": [],
      "stateMutability": "payable",
      "type": "function"
    },
    {
      "inputs": [
        {
          "internalType": "address",
          "name": "spender",
          "type": "address"
        },
        {
          "internalType": "uint256",
          "name": "addedValue",
          "type": "uint256"
        }
      ],
      "name": "increaseAllowance",
      "outputs": [
        {
          "internalType": "bool",
          "name": "",
          "type": "bool"
        }
      ],
      "stateMutability": "nonpayable",
      "type": "function"
    },
    {
      "inputs": [],
      "name": "name",
      "outputs": [
        {
          "internalType": "string",
          "name": "",
          "type": "string"
        }
      ],
      "stateMutability": "view",
      "type": "function"
    },
    {
      "inputs": [],
      "name": "symbol",
      "outputs": [
        {
          "internalType": "string",
          "name": "",
          "type": "string"
        }
      ],
      "stateMutability": "view",
      "type": "function"
    },
    {
      "inputs": [],
      "name": "test",
      "outputs": [
        {
          "internalType": "address",
          "name": "",
          "type": "address"
        }
      ],
      "stateMutability": "view",
      "type": "function"
    },
    {
      "inputs": [],
      "name": "totalSupply",
      "outputs": [
        {
          "internalType": "uint256",
          "name": "",
          "type": "uint256"
        }
      ],
      "stateMutability": "view",
      "type": "function"
    },
    {
      "inputs": [
        {
          "internalType": "address",
          "name": "recipient",
          "type": "address"
        },
        {
          "internalType": "uint256",
          "name": "amount",
          "type": "uint256"
        }
      ],
      "name": "transfer",
      "outputs": [
        {
          "internalType": "bool",
          "name": "",
          "type": "bool"
        }
      ],
      "stateMutability": "nonpayable",
      "type": "function"
    },
    {
      "inputs": [
        {
          "internalType": "address",
          "name": "sender",
          "type": "address"
        },
        {
          "internalType": "address",
          "name": "recipient",
          "type": "address"
        },
        {
          "internalType": "uint256",
          "name": "amount",
          "type": "uint256"
        }
      ],
      "name": "transferFrom",
      "outputs": [
        {
          "internalType": "bool",
          "name": "",
          "type": "bool"
        }
      ],
      "stateMutability": "nonpayable",
      "type": "function"
    },
    {
      "stateMutability": "payable",
      "type": "receive"
    }
  ],
  "bytecode": "0x608060405260405162001d3138038062001d31833981810160405281019062000029919062000385565b6040518060400160405280600c81526020017f597554656e6720546f6b656e00000000000000000000000000000000000000008152506040518060400160405280600381526020017f59544300000000000000000000000000000000000000000000000000000000008152508160039080519060200190620000ad929190620002a7565b508060049080519060200190620000c6929190620002a7565b505050620000db82826200012460201b60201c565b81600560006101000a81548173ffffffffffffffffffffffffffffffffffffffff021916908373ffffffffffffffffffffffffffffffffffffffff1602179055505050620005da565b600073ffffffffffffffffffffffffffffffffffffffff168273ffffffffffffffffffffffffffffffffffffffff16141562000197576040517f08c379a00000000000000000000000000000000000000000000000000000000081526004016200018e90620003fe565b60405180910390fd5b620001ab600083836200029d60201b60201c565b8060026000828254620001bf91906200044e565b92505081905550806000808473ffffffffffffffffffffffffffffffffffffffff1673ffffffffffffffffffffffffffffffffffffffff16815260200190815260200160002060008282546200021691906200044e565b925050819055508173ffffffffffffffffffffffffffffffffffffffff16600073ffffffffffffffffffffffffffffffffffffffff167fddf252ad1be2c89b69c2b068fc378daa952ba7f163c4a11628f55a4df523b3ef836040516200027d919062000420565b60405180910390a36200029960008383620002a260201b60201c565b5050565b505050565b505050565b828054620002b590620004e9565b90600052602060002090601f016020900481019282620002d9576000855562000325565b82601f10620002f457805160ff191683800117855562000325565b8280016001018555821562000325579182015b828111156200032457825182559160200191906001019062000307565b5b50905062000334919062000338565b5090565b5b808211156200035357600081600090555060010162000339565b5090565b6000815190506200036881620005a6565b92915050565b6000815190506200037f81620005c0565b92915050565b600080604083850312156200039957600080fd5b6000620003a98582860162000357565b9250506020620003bc858286016200036e565b9150509250929050565b6000620003d5601f836200043d565b9150620003e2826200057d565b602082019050919050565b620003f881620004df565b82525050565b600060208201905081810360008301526200041981620003c6565b9050919050565b6000602082019050620004376000830184620003ed565b92915050565b600082825260208201905092915050565b60006200045b82620004df565b91506200046883620004df565b9250827fffffffffffffffffffffffffffffffffffffffffffffffffffffffffffffffff03821115620004a0576200049f6200051f565b5b828201905092915050565b6000620004b882620004bf565b9050919050565b600073ffffffffffffffffffffffffffffffffffffffff82169050919050565b6000819050919050565b600060028204905060018216806200050257607f821691505b602082108114156200051957620005186200054e565b5b50919050565b7f4e487b7100000000000000000000000000000000000000000000000000000000600052601160045260246000fd5b7f4e487b7100000000000000000000000000000000000000000000000000000000600052602260045260246000fd5b7f45524332303a206d696e7420746f20746865207a65726f206164647265737300600082015250565b620005b181620004ab565b8114620005bd57600080fd5b50565b620005cb81620004df565b8114620005d757600080fd5b50565b61174780620005ea6000396000f3fe6080604052600436106100ec5760003560e01c806370a082311161008a578063a9059cbb11610059578063a9059cbb146102fc578063dd62ed3e14610339578063e1f21c6714610376578063f8a8fd6d146103b3576100fe565b806370a082311461024d57806395d89b411461028a578063a25eb5d9146102b5578063a457c2d7146102bf576100fe565b806318160ddd116100c657806318160ddd1461017d57806323b872dd146101a8578063313ce567146101e55780633950935114610210576100fe565b8063031b41891461010b57806306fdde0314610115578063095ea7b314610140576100fe565b366100fe576100fc3460666103de565b005b6101093460656103de565b005b610113610439565b005b34801561012157600080fd5b5061012a61049b565b60405161013791906111e7565b60405180910390f35b34801561014c57600080fd5b5061016760048036038101906101629190610fc6565b61052d565b60405161017491906111cc565b60405180910390f35b34801561018957600080fd5b5061019261054b565b60405161019f91906112e9565b60405180910390f35b3480156101b457600080fd5b506101cf60048036038101906101ca9190610f77565b610555565b6040516101dc91906111cc565b60405180910390f35b3480156101f157600080fd5b506101fa61064d565b6040516102079190611304565b60405180910390f35b34801561021c57600080fd5b5061023760048036038101906102329190610fc6565b610656565b60405161024491906111cc565b60405180910390f35b34801561025957600080fd5b50610274600480360381019061026f9190610f12565b610702565b60405161028191906112e9565b60405180910390f35b34801561029657600080fd5b5061029f61074a565b6040516102ac91906111e7565b60405180910390f35b6102bd6107dc565b005b3480156102cb57600080fd5b506102e660048036038101906102e19190610fc6565b6107e9565b6040516102f391906111cc565b60405180910390f35b34801561030857600080fd5b50610323600480360381019061031e9190610fc6565b6108d4565b60405161033091906111cc565b60405180910390f35b34801561034557600080fd5b50610360600480360381019061035b9190610f3b565b6108f2565b60405161036d91906112e9565b60405180910390f35b34801561038257600080fd5b5061039d60048036038101906103989190610f77565b610979565b6040516103aa91906111cc565b60405180910390f35b3480156103bf57600080fd5b506103c8610991565b6040516103d5919061116c565b60405180910390f35b6103f0306103ea6109b0565b846109b8565b507f70ee46485b987eaf472c55908dc22ab5db176b6125c52401cb86bbfc91cb5c5f61041a6109b0565b30848460405161042d9493929190611187565b60405180910390a15050565b60003411156104995734600660003373ffffffffffffffffffffffffffffffffffffffff1673ffffffffffffffffffffffffffffffffffffffff1681526020019081526020016000206000828254610491919061133b565b925050819055505b565b6060600380546104aa90611419565b80601f01602080910402602001604051908101604052809291908181526020018280546104d690611419565b80156105235780601f106104f857610100808354040283529160200191610523565b820191906000526020600020905b81548152906001019060200180831161050657829003601f168201915b5050505050905090565b600061054161053a6109b0565b84846109d0565b6001905092915050565b6000600254905090565b6000610562848484610b9b565b6000600160008673ffffffffffffffffffffffffffffffffffffffff1673ffffffffffffffffffffffffffffffffffffffff16815260200190815260200160002060006105ad6109b0565b73ffffffffffffffffffffffffffffffffffffffff1673ffffffffffffffffffffffffffffffffffffffff1681526020019081526020016000205490508281101561062d576040517f08c379a000000000000000000000000000000000000000000000000000000000815260040161062490611269565b60405180910390fd5b610641856106396109b0565b8584036109d0565b60019150509392505050565b60006012905090565b60006106f86106636109b0565b8484600160006106716109b0565b73ffffffffffffffffffffffffffffffffffffffff1673ffffffffffffffffffffffffffffffffffffffff16815260200190815260200160002060008873ffffffffffffffffffffffffffffffffffffffff1673ffffffffffffffffffffffffffffffffffffffff168152602001908152602001600020546106f3919061133b565b6109d0565b6001905092915050565b60008060008373ffffffffffffffffffffffffffffffffffffffff1673ffffffffffffffffffffffffffffffffffffffff168152602001908152602001600020549050919050565b60606004805461075990611419565b80601f016020809104026020016040519081016040528092919081815260200182805461078590611419565b80156107d25780601f106107a7576101008083540402835291602001916107d2565b820191906000526020600020905b8154815290600101906020018083116107b557829003601f168201915b5050505050905090565b6107e73460676103de565b565b600080600160006107f86109b0565b73ffffffffffffffffffffffffffffffffffffffff1673ffffffffffffffffffffffffffffffffffffffff16815260200190815260200160002060008573ffffffffffffffffffffffffffffffffffffffff1673ffffffffffffffffffffffffffffffffffffffff168152602001908152602001600020549050828110156108b5576040517f08c379a00000000000000000000000000000000000000000000000000000000081526004016108ac906112c9565b60405180910390fd5b6108c96108c06109b0565b858584036109d0565b600191505092915050565b60006108e86108e16109b0565b8484610b9b565b6001905092915050565b6000600160008473ffffffffffffffffffffffffffffffffffffffff1673ffffffffffffffffffffffffffffffffffffffff16815260200190815260200160002060008373ffffffffffffffffffffffffffffffffffffffff1673ffffffffffffffffffffffffffffffffffffffff16815260200190815260200160002054905092915050565b60006109868484846109d0565b600190509392505050565b60006109a361099e6109b0565b610e1c565b6109ab6109b0565b905090565b600033905090565b60006109c5848484610b9b565b600190509392505050565b600073ffffffffffffffffffffffffffffffffffffffff168373ffffffffffffffffffffffffffffffffffffffff161415610a40576040517f08c379a0000000000000000000000000000000000000000000000000000000008152600401610a37906112a9565b60405180910390fd5b600073ffffffffffffffffffffffffffffffffffffffff168273ffffffffffffffffffffffffffffffffffffffff161415610ab0576040517f08c379a0000000000000000000000000000000000000000000000000000000008152600401610aa790611229565b60405180910390fd5b80600160008573ffffffffffffffffffffffffffffffffffffffff1673ffffffffffffffffffffffffffffffffffffffff16815260200190815260200160002060008473ffffffffffffffffffffffffffffffffffffffff1673ffffffffffffffffffffffffffffffffffffffff168152602001908152602001600020819055508173ffffffffffffffffffffffffffffffffffffffff168373ffffffffffffffffffffffffffffffffffffffff167f8c5be1e5ebec7d5bd14f71427d1e84f3dd0314c0f7b2291e5b200ac8c7c3b92583604051610b8e91906112e9565b60405180910390a3505050565b600073ffffffffffffffffffffffffffffffffffffffff168373ffffffffffffffffffffffffffffffffffffffff161415610c0b576040517f08c379a0000000000000000000000000000000000000000000000000000000008152600401610c0290611289565b60405180910390fd5b600073ffffffffffffffffffffffffffffffffffffffff168273ffffffffffffffffffffffffffffffffffffffff161415610c7b576040517f08c379a0000000000000000000000000000000000000000000000000000000008152600401610c7290611209565b60405180910390fd5b610c86838383610eb5565b60008060008573ffffffffffffffffffffffffffffffffffffffff1673ffffffffffffffffffffffffffffffffffffffff16815260200190815260200160002054905081811015610d0c576040517f08c379a0000000000000000000000000000000000000000000000000000000008152600401610d0390611249565b60405180910390fd5b8181036000808673ffffffffffffffffffffffffffffffffffffffff1673ffffffffffffffffffffffffffffffffffffffff16815260200190815260200160002081905550816000808573ffffffffffffffffffffffffffffffffffffffff1673ffffffffffffffffffffffffffffffffffffffff1681526020019081526020016000206000828254610d9f919061133b565b925050819055508273ffffffffffffffffffffffffffffffffffffffff168473ffffffffffffffffffffffffffffffffffffffff167fddf252ad1be2c89b69c2b068fc378daa952ba7f163c4a11628f55a4df523b3ef84604051610e0391906112e9565b60405180910390a3610e16848484610eba565b50505050565b610eb281604051602401610e30919061116c565b6040516020818303038152906040527f2c2ecbc2000000000000000000000000000000000000000000000000000000007bffffffffffffffffffffffffffffffffffffffffffffffffffffffff19166020820180517bffffffffffffffffffffffffffffffffffffffffffffffffffffffff8381831617835250505050610ebf565b50565b505050565b505050565b60008151905060006a636f6e736f6c652e6c6f679050602083016000808483855afa5050505050565b600081359050610ef7816116e3565b92915050565b600081359050610f0c816116fa565b92915050565b600060208284031215610f2457600080fd5b6000610f3284828501610ee8565b91505092915050565b60008060408385031215610f4e57600080fd5b6000610f5c85828601610ee8565b9250506020610f6d85828601610ee8565b9150509250929050565b600080600060608486031215610f8c57600080fd5b6000610f9a86828701610ee8565b9350506020610fab86828701610ee8565b9250506040610fbc86828701610efd565b9150509250925092565b60008060408385031215610fd957600080fd5b6000610fe785828601610ee8565b9250506020610ff885828601610efd565b9150509250929050565b61100b81611391565b82525050565b61101a816113a3565b82525050565b600061102b8261131f565b611035818561132a565b93506110458185602086016113e6565b61104e816114a9565b840191505092915050565b600061106660238361132a565b9150611071826114ba565b604082019050919050565b600061108960228361132a565b915061109482611509565b604082019050919050565b60006110ac60268361132a565b91506110b782611558565b604082019050919050565b60006110cf60288361132a565b91506110da826115a7565b604082019050919050565b60006110f260258361132a565b91506110fd826115f6565b604082019050919050565b600061111560248361132a565b915061112082611645565b604082019050919050565b600061113860258361132a565b915061114382611694565b604082019050919050565b611157816113cf565b82525050565b611166816113d9565b82525050565b60006020820190506111816000830184611002565b92915050565b600060808201905061119c6000830187611002565b6111a96020830186611002565b6111b6604083018561114e565b6111c3606083018461114e565b95945050505050565b60006020820190506111e16000830184611011565b92915050565b600060208201905081810360008301526112018184611020565b905092915050565b6000602082019050818103600083015261122281611059565b9050919050565b600060208201905081810360008301526112428161107c565b9050919050565b600060208201905081810360008301526112628161109f565b9050919050565b60006020820190508181036000830152611282816110c2565b9050919050565b600060208201905081810360008301526112a2816110e5565b9050919050565b600060208201905081810360008301526112c281611108565b9050919050565b600060208201905081810360008301526112e28161112b565b9050919050565b60006020820190506112fe600083018461114e565b92915050565b6000602082019050611319600083018461115d565b92915050565b600081519050919050565b600082825260208201905092915050565b6000611346826113cf565b9150611351836113cf565b9250827fffffffffffffffffffffffffffffffffffffffffffffffffffffffffffffffff038211156113865761138561144b565b5b828201905092915050565b600061139c826113af565b9050919050565b60008115159050919050565b600073ffffffffffffffffffffffffffffffffffffffff82169050919050565b6000819050919050565b600060ff82169050919050565b60005b838110156114045780820151818401526020810190506113e9565b83811115611413576000848401525b50505050565b6000600282049050600182168061143157607f821691505b602082108114156114455761144461147a565b5b50919050565b7f4e487b7100000000000000000000000000000000000000000000000000000000600052601160045260246000fd5b7f4e487b7100000000000000000000000000000000000000000000000000000000600052602260045260246000fd5b6000601f19601f8301169050919050565b7f45524332303a207472616e7366657220746f20746865207a65726f206164647260008201527f6573730000000000000000000000000000000000000000000000000000000000602082015250565b7f45524332303a20617070726f766520746f20746865207a65726f20616464726560008201527f7373000000000000000000000000000000000000000000000000000000000000602082015250565b7f45524332303a207472616e7366657220616d6f756e742065786365656473206260008201527f616c616e63650000000000000000000000000000000000000000000000000000602082015250565b7f45524332303a207472616e7366657220616d6f756e742065786365656473206160008201527f6c6c6f77616e6365000000000000000000000000000000000000000000000000602082015250565b7f45524332303a207472616e736665722066726f6d20746865207a65726f20616460008201527f6472657373000000000000000000000000000000000000000000000000000000602082015250565b7f45524332303a20617070726f76652066726f6d20746865207a65726f2061646460008201527f7265737300000000000000000000000000000000000000000000000000000000602082015250565b7f45524332303a2064656372656173656420616c6c6f77616e63652062656c6f7760008201527f207a65726f000000000000000000000000000000000000000000000000000000602082015250565b6116ec81611391565b81146116f757600080fd5b50565b611703816113cf565b811461170e57600080fd5b5056fea2646970667358221220211e3b1d5d8112e903edcc2ac70459aa72d94c1a6d980e54859501ba6b218acf64736f6c63430008040033",
  "linkReferences": {},
  "deployedLinkReferences": {}
}