{
  "_format": "hh-sol-artifact-1",
  "contractName": "Yuteng",
  "sourceName": "contracts/Yuteng.sol",
  "abi": [
    {
      "inputs": [
        {
          "internalType": "address",
          "name": "owner",
          "type": "address"
        },
        {
          "internalType": "uint256",
          "name": "initTotalSupply",
          "type": "uint256"
        }
      ],
      "stateMutability": "payable",
      "type": "constructor"
    },
    {
      "anonymous": false,
      "inputs": [
        {
          "indexed": true,
          "internalType": "address",
          "name": "owner",
          "type": "address"
        },
        {
          "indexed": true,
          "internalType": "address",
          "name": "spender",
          "type": "address"
        },
        {
          "indexed": false,
          "internalType": "uint256",
          "name": "value",
          "type": "uint256"
        }
      ],
      "name": "Approval",
      "type": "event"
    },
    {
      "anonymous": false,
      "inputs": [
        {
          "indexed": false,
          "internalType": "address",
          "name": "from",
          "type": "address"
        },
        {
          "indexed": false,
          "internalType": "address",
          "name": "to",
          "type": "address"
        },
        {
          "indexed": false,
          "internalType": "uint256",
          "name": "value",
          "type": "uint256"
        },
        {
          "indexed": false,
          "internalType": "uint256",
          "name": "number",
          "type": "uint256"
        }
      ],
      "name": "SendBalance",
      "type": "event"
    },
    {
      "anonymous": false,
      "inputs": [
        {
          "indexed": true,
          "internalType": "address",
          "name": "from",
          "type": "address"
        },
        {
          "indexed": true,
          "internalType": "address",
          "name": "to",
          "type": "address"
        },
        {
          "indexed": false,
          "internalType": "uint256",
          "name": "value",
          "type": "uint256"
        }
      ],
      "name": "Transfer",
      "type": "event"
    },
    {
      "stateMutability": "payable",
      "type": "fallback"
    },
    {
      "inputs": [
        {
          "internalType": "address",
          "name": "owner",
          "type": "address"
        },
        {
          "internalType": "address",
          "name": "spender",
          "type": "address"
        }
      ],
      "name": "allowance",
      "outputs": [
        {
          "internalType": "uint256",
          "name": "",
          "type": "uint256"
        }
      ],
      "stateMutability": "view",
      "type": "function"
    },
    {
      "inputs": [
        {
          "internalType": "address",
          "name": "spender",
          "type": "address"
        },
        {
          "internalType": "uint256",
          "name": "amount",
          "type": "uint256"
        }
      ],
      "name": "approve",
      "outputs": [
        {
          "internalType": "bool",
          "name": "",
          "type": "bool"
        }
      ],
      "stateMutability": "nonpayable",
      "type": "function"
    },
    {
      "inputs": [
        {
          "internalType": "address",
          "name": "_spender",
          "type": "address"
        },
        {
          "internalType": "uint256",
          "name": "_amount",
          "type": "uint256"
        },
        {
          "internalType": "bytes",
          "name": "_extraData",
          "type": "bytes"
        }
      ],
      "name": "approveAndCall",
      "outputs": [
        {
          "internalType": "bool",
          "name": "success",
          "type": "bool"
        }
      ],
      "stateMutability": "nonpayable",
      "type": "function"
    },
    {
      "inputs": [
        {
          "internalType": "address",
          "name": "account",
          "type": "address"
        }
      ],
      "name": "balanceOf",
      "outputs": [
        {
          "internalType": "uint256",
          "name": "",
          "type": "uint256"
        }
      ],
      "stateMutability": "view",
      "type": "function"
    },
    {
      "inputs": [],
      "name": "decimals",
      "outputs": [
        {
          "internalType": "uint8",
          "name": "",
          "type": "uint8"
        }
      ],
      "stateMutability": "view",
      "type": "function"
    },
    {
      "inputs": [
        {
          "internalType": "address",
          "name": "spender",
          "type": "address"
        },
        {
          "internalType": "uint256",
          "name": "subtractedValue",
          "type": "uint256"
        }
      ],
      "name": "decreaseAllowance",
      "outputs": [
        {
          "internalType": "bool",
          "name": "",
          "type": "bool"
        }
      ],
      "stateMutability": "nonpayable",
      "type": "function"
    },
    {
      "inputs": [],
      "name": "exchangeToken",
      "outputs": [],
      "stateMutability": "payable",
      "type": "function"
    },
    {
      "inputs": [
        {
          "internalType": "address",
          "name": "spender",
          "type": "address"
        },
        {
          "internalType": "uint256",
          "name": "addedValue",
          "type": "uint256"
        }
      ],
      "name": "increaseAllowance",
      "outputs": [
        {
          "internalType": "bool",
          "name": "",
          "type": "bool"
        }
      ],
      "stateMutability": "nonpayable",
      "type": "function"
    },
    {
      "inputs": [],
      "name": "name",
      "outputs": [
        {
          "internalType": "string",
          "name": "",
          "type": "string"
        }
      ],
      "stateMutability": "view",
      "type": "function"
    },
    {
      "inputs": [],
      "name": "symbol",
      "outputs": [
        {
          "internalType": "string",
          "name": "",
          "type": "string"
        }
      ],
      "stateMutability": "view",
      "type": "function"
    },
    {
      "inputs": [],
      "name": "totalSupply",
      "outputs": [
        {
          "internalType": "uint256",
          "name": "",
          "type": "uint256"
        }
      ],
      "stateMutability": "view",
      "type": "function"
    },
    {
      "inputs": [
        {
          "internalType": "address",
          "name": "recipient",
          "type": "address"
        },
        {
          "internalType": "uint256",
          "name": "amount",
          "type": "uint256"
        }
      ],
      "name": "transfer",
      "outputs": [
        {
          "internalType": "bool",
          "name": "",
          "type": "bool"
        }
      ],
      "stateMutability": "nonpayable",
      "type": "function"
    },
    {
      "inputs": [
        {
          "internalType": "address",
          "name": "sender",
          "type": "address"
        },
        {
          "internalType": "address",
          "name": "recipient",
          "type": "address"
        },
        {
          "internalType": "uint256",
          "name": "amount",
          "type": "uint256"
        }
      ],
      "name": "transferFrom",
      "outputs": [
        {
          "internalType": "bool",
          "name": "",
          "type": "bool"
        }
      ],
      "stateMutability": "nonpayable",
      "type": "function"
    },
    {
      "stateMutability": "payable",
      "type": "receive"
    }
  ],
  "bytecode": "0x608060405260405162001f4c38038062001f4c833981810160405281019062000029919062000385565b6040518060400160405280600c81526020017f597554656e6720546f6b656e00000000000000000000000000000000000000008152506040518060400160405280600381526020017f59544300000000000000000000000000000000000000000000000000000000008152508160039080519060200190620000ad929190620002a7565b508060049080519060200190620000c6929190620002a7565b505050620000db82826200012460201b60201c565b81600560006101000a81548173ffffffffffffffffffffffffffffffffffffffff021916908373ffffffffffffffffffffffffffffffffffffffff1602179055505050620005e5565b600073ffffffffffffffffffffffffffffffffffffffff168273ffffffffffffffffffffffffffffffffffffffff16141562000197576040517f08c379a00000000000000000000000000000000000000000000000000000000081526004016200018e9062000404565b60405180910390fd5b620001ab600083836200029d60201b60201c565b8060026000828254620001bf919062000454565b92505081905550806000808473ffffffffffffffffffffffffffffffffffffffff1673ffffffffffffffffffffffffffffffffffffffff168152602001908152602001600020600082825462000216919062000454565b925050819055508173ffffffffffffffffffffffffffffffffffffffff16600073ffffffffffffffffffffffffffffffffffffffff167fddf252ad1be2c89b69c2b068fc378daa952ba7f163c4a11628f55a4df523b3ef836040516200027d919062000426565b60405180910390a36200029960008383620002a260201b60201c565b5050565b505050565b505050565b828054620002b590620004ef565b90600052602060002090601f016020900481019282620002d9576000855562000325565b82601f10620002f457805160ff191683800117855562000325565b8280016001018555821562000325579182015b828111156200032457825182559160200191906001019062000307565b5b50905062000334919062000338565b5090565b5b808211156200035357600081600090555060010162000339565b5090565b6000815190506200036881620005b1565b92915050565b6000815190506200037f81620005cb565b92915050565b600080604083850312156200039f576200039e62000583565b5b6000620003af8582860162000357565b9250506020620003c2858286016200036e565b9150509250929050565b6000620003db601f8362000443565b9150620003e88262000588565b602082019050919050565b620003fe81620004e5565b82525050565b600060208201905081810360008301526200041f81620003cc565b9050919050565b60006020820190506200043d6000830184620003f3565b92915050565b600082825260208201905092915050565b60006200046182620004e5565b91506200046e83620004e5565b9250827fffffffffffffffffffffffffffffffffffffffffffffffffffffffffffffffff03821115620004a657620004a562000525565b5b828201905092915050565b6000620004be82620004c5565b9050919050565b600073ffffffffffffffffffffffffffffffffffffffff82169050919050565b6000819050919050565b600060028204905060018216806200050857607f821691505b602082108114156200051f576200051e62000554565b5b50919050565b7f4e487b7100000000000000000000000000000000000000000000000000000000600052601160045260246000fd5b7f4e487b7100000000000000000000000000000000000000000000000000000000600052602260045260246000fd5b600080fd5b7f45524332303a206d696e7420746f20746865207a65726f206164647265737300600082015250565b620005bc81620004b1565b8114620005c857600080fd5b50565b620005d681620004e5565b8114620005e257600080fd5b50565b61195780620005f56000396000f3fe6080604052600436106100c65760003560e01c806370a082311161007f578063a457c2d711610059578063a457c2d71461028f578063a9059cbb146102cc578063cae9ca5114610309578063dd62ed3e14610346576100d8565b806370a082311461021d57806395d89b411461025a578063a25eb5d914610285576100d8565b806306fdde03146100e5578063095ea7b31461011057806318160ddd1461014d57806323b872dd14610178578063313ce567146101b557806339509351146101e0576100d8565b366100d8576100d6346066610383565b005b6100e3346065610383565b005b3480156100f157600080fd5b506100fa610422565b60405161010791906112b9565b60405180910390f35b34801561011c57600080fd5b5061013760048036038101906101329190610f98565b6104b4565b604051610144919061129e565b60405180910390f35b34801561015957600080fd5b506101626104d2565b60405161016f91906113db565b60405180910390f35b34801561018457600080fd5b5061019f600480360381019061019a9190610f45565b6104dc565b6040516101ac919061129e565b60405180910390f35b3480156101c157600080fd5b506101ca6105d4565b6040516101d791906113f6565b60405180910390f35b3480156101ec57600080fd5b5061020760048036038101906102029190610f98565b6105dd565b604051610214919061129e565b60405180910390f35b34801561022957600080fd5b50610244600480360381019061023f9190610ed8565b610689565b60405161025191906113db565b60405180910390f35b34801561026657600080fd5b5061026f6106d1565b60405161027c91906112b9565b60405180910390f35b61028d610763565b005b34801561029b57600080fd5b506102b660048036038101906102b19190610f98565b610770565b6040516102c3919061129e565b60405180910390f35b3480156102d857600080fd5b506102f360048036038101906102ee9190610f98565b61085b565b604051610300919061129e565b60405180910390f35b34801561031557600080fd5b50610330600480360381019061032b9190610fd8565b610879565b60405161033d919061129e565b60405180910390f35b34801561035257600080fd5b5061036d60048036038101906103689190610f05565b610941565b60405161037a91906113db565b60405180910390f35b6103b7600560009054906101000a900473ffffffffffffffffffffffffffffffffffffffff166103b16109c8565b846109d0565b507f70ee46485b987eaf472c55908dc22ab5db176b6125c52401cb86bbfc91cb5c5f6103e16109c8565b600560009054906101000a900473ffffffffffffffffffffffffffffffffffffffff168484604051610416949392919061120d565b60405180910390a15050565b6060600380546104319061158c565b80601f016020809104026020016040519081016040528092919081815260200182805461045d9061158c565b80156104aa5780601f1061047f576101008083540402835291602001916104aa565b820191906000526020600020905b81548152906001019060200180831161048d57829003601f168201915b5050505050905090565b60006104c86104c16109c8565b84846109e8565b6001905092915050565b6000600254905090565b60006104e9848484610bb3565b6000600160008673ffffffffffffffffffffffffffffffffffffffff1673ffffffffffffffffffffffffffffffffffffffff16815260200190815260200160002060006105346109c8565b73ffffffffffffffffffffffffffffffffffffffff1673ffffffffffffffffffffffffffffffffffffffff168152602001908152602001600020549050828110156105b4576040517f08c379a00000000000000000000000000000000000000000000000000000000081526004016105ab9061133b565b60405180910390fd5b6105c8856105c06109c8565b8584036109e8565b60019150509392505050565b60006012905090565b600061067f6105ea6109c8565b8484600160006105f86109c8565b73ffffffffffffffffffffffffffffffffffffffff1673ffffffffffffffffffffffffffffffffffffffff16815260200190815260200160002060008873ffffffffffffffffffffffffffffffffffffffff1673ffffffffffffffffffffffffffffffffffffffff1681526020019081526020016000205461067a919061149f565b6109e8565b6001905092915050565b60008060008373ffffffffffffffffffffffffffffffffffffffff1673ffffffffffffffffffffffffffffffffffffffff168152602001908152602001600020549050919050565b6060600480546106e09061158c565b80601f016020809104026020016040519081016040528092919081815260200182805461070c9061158c565b80156107595780601f1061072e57610100808354040283529160200191610759565b820191906000526020600020905b81548152906001019060200180831161073c57829003601f168201915b5050505050905090565b61076e346067610383565b565b6000806001600061077f6109c8565b73ffffffffffffffffffffffffffffffffffffffff1673ffffffffffffffffffffffffffffffffffffffff16815260200190815260200160002060008573ffffffffffffffffffffffffffffffffffffffff1673ffffffffffffffffffffffffffffffffffffffff1681526020019081526020016000205490508281101561083c576040517f08c379a0000000000000000000000000000000000000000000000000000000008152600401610833906113bb565b60405180910390fd5b6108506108476109c8565b858584036109e8565b600191505092915050565b600061086f6108686109c8565b8484610bb3565b6001905092915050565b600061088584846104b4565b156108c5576040517f08c379a00000000000000000000000000000000000000000000000000000000081526004016108bc9061137b565b60405180910390fd5b8373ffffffffffffffffffffffffffffffffffffffff16638f4ffcb1338530866040518563ffffffff1660e01b81526004016109049493929190611252565b600060405180830381600087803b15801561091e57600080fd5b505af1158015610932573d6000803e3d6000fd5b50505050600190509392505050565b6000600160008473ffffffffffffffffffffffffffffffffffffffff1673ffffffffffffffffffffffffffffffffffffffff16815260200190815260200160002060008373ffffffffffffffffffffffffffffffffffffffff1673ffffffffffffffffffffffffffffffffffffffff16815260200190815260200160002054905092915050565b600033905090565b60006109dd848484610bb3565b600190509392505050565b600073ffffffffffffffffffffffffffffffffffffffff168373ffffffffffffffffffffffffffffffffffffffff161415610a58576040517f08c379a0000000000000000000000000000000000000000000000000000000008152600401610a4f9061139b565b60405180910390fd5b600073ffffffffffffffffffffffffffffffffffffffff168273ffffffffffffffffffffffffffffffffffffffff161415610ac8576040517f08c379a0000000000000000000000000000000000000000000000000000000008152600401610abf906112fb565b60405180910390fd5b80600160008573ffffffffffffffffffffffffffffffffffffffff1673ffffffffffffffffffffffffffffffffffffffff16815260200190815260200160002060008473ffffffffffffffffffffffffffffffffffffffff1673ffffffffffffffffffffffffffffffffffffffff168152602001908152602001600020819055508173ffffffffffffffffffffffffffffffffffffffff168373ffffffffffffffffffffffffffffffffffffffff167f8c5be1e5ebec7d5bd14f71427d1e84f3dd0314c0f7b2291e5b200ac8c7c3b92583604051610ba691906113db565b60405180910390a3505050565b600073ffffffffffffffffffffffffffffffffffffffff168373ffffffffffffffffffffffffffffffffffffffff161415610c23576040517f08c379a0000000000000000000000000000000000000000000000000000000008152600401610c1a9061135b565b60405180910390fd5b600073ffffffffffffffffffffffffffffffffffffffff168273ffffffffffffffffffffffffffffffffffffffff161415610c93576040517f08c379a0000000000000000000000000000000000000000000000000000000008152600401610c8a906112db565b60405180910390fd5b610c9e838383610e34565b60008060008573ffffffffffffffffffffffffffffffffffffffff1673ffffffffffffffffffffffffffffffffffffffff16815260200190815260200160002054905081811015610d24576040517f08c379a0000000000000000000000000000000000000000000000000000000008152600401610d1b9061131b565b60405180910390fd5b8181036000808673ffffffffffffffffffffffffffffffffffffffff1673ffffffffffffffffffffffffffffffffffffffff16815260200190815260200160002081905550816000808573ffffffffffffffffffffffffffffffffffffffff1673ffffffffffffffffffffffffffffffffffffffff1681526020019081526020016000206000828254610db7919061149f565b925050819055508273ffffffffffffffffffffffffffffffffffffffff168473ffffffffffffffffffffffffffffffffffffffff167fddf252ad1be2c89b69c2b068fc378daa952ba7f163c4a11628f55a4df523b3ef84604051610e1b91906113db565b60405180910390a3610e2e848484610e39565b50505050565b505050565b505050565b6000610e51610e4c84611436565b611411565b905082815260208101848484011115610e6d57610e6c611681565b5b610e7884828561154a565b509392505050565b600081359050610e8f816118f3565b92915050565b600082601f830112610eaa57610ea961167c565b5b8135610eba848260208601610e3e565b91505092915050565b600081359050610ed28161190a565b92915050565b600060208284031215610eee57610eed61168b565b5b6000610efc84828501610e80565b91505092915050565b60008060408385031215610f1c57610f1b61168b565b5b6000610f2a85828601610e80565b9250506020610f3b85828601610e80565b9150509250929050565b600080600060608486031215610f5e57610f5d61168b565b5b6000610f6c86828701610e80565b9350506020610f7d86828701610e80565b9250506040610f8e86828701610ec3565b9150509250925092565b60008060408385031215610faf57610fae61168b565b5b6000610fbd85828601610e80565b9250506020610fce85828601610ec3565b9150509250929050565b600080600060608486031215610ff157610ff061168b565b5b6000610fff86828701610e80565b935050602061101086828701610ec3565b925050604084013567ffffffffffffffff81111561103157611030611686565b5b61103d86828701610e95565b9150509250925092565b611050816114f5565b82525050565b61105f81611507565b82525050565b600061107082611467565b61107a818561147d565b935061108a818560208601611559565b61109381611690565b840191505092915050565b60006110a982611472565b6110b3818561148e565b93506110c3818560208601611559565b6110cc81611690565b840191505092915050565b60006110e460238361148e565b91506110ef826116a1565b604082019050919050565b600061110760228361148e565b9150611112826116f0565b604082019050919050565b600061112a60268361148e565b91506111358261173f565b604082019050919050565b600061114d60288361148e565b91506111588261178e565b604082019050919050565b600061117060258361148e565b915061117b826117dd565b604082019050919050565b600061119360138361148e565b915061119e8261182c565b602082019050919050565b60006111b660248361148e565b91506111c182611855565b604082019050919050565b60006111d960258361148e565b91506111e4826118a4565b604082019050919050565b6111f881611533565b82525050565b6112078161153d565b82525050565b60006080820190506112226000830187611047565b61122f6020830186611047565b61123c60408301856111ef565b61124960608301846111ef565b95945050505050565b60006080820190506112676000830187611047565b61127460208301866111ef565b6112816040830185611047565b81810360608301526112938184611065565b905095945050505050565b60006020820190506112b36000830184611056565b92915050565b600060208201905081810360008301526112d3818461109e565b905092915050565b600060208201905081810360008301526112f4816110d7565b9050919050565b60006020820190508181036000830152611314816110fa565b9050919050565b600060208201905081810360008301526113348161111d565b9050919050565b6000602082019050818103600083015261135481611140565b9050919050565b6000602082019050818103600083015261137481611163565b9050919050565b6000602082019050818103600083015261139481611186565b9050919050565b600060208201905081810360008301526113b4816111a9565b9050919050565b600060208201905081810360008301526113d4816111cc565b9050919050565b60006020820190506113f060008301846111ef565b92915050565b600060208201905061140b60008301846111fe565b92915050565b600061141b61142c565b905061142782826115be565b919050565b6000604051905090565b600067ffffffffffffffff8211156114515761145061164d565b5b61145a82611690565b9050602081019050919050565b600081519050919050565b600081519050919050565b600082825260208201905092915050565b600082825260208201905092915050565b60006114aa82611533565b91506114b583611533565b9250827fffffffffffffffffffffffffffffffffffffffffffffffffffffffffffffffff038211156114ea576114e96115ef565b5b828201905092915050565b600061150082611513565b9050919050565b60008115159050919050565b600073ffffffffffffffffffffffffffffffffffffffff82169050919050565b6000819050919050565b600060ff82169050919050565b82818337600083830152505050565b60005b8381101561157757808201518184015260208101905061155c565b83811115611586576000848401525b50505050565b600060028204905060018216806115a457607f821691505b602082108114156115b8576115b761161e565b5b50919050565b6115c782611690565b810181811067ffffffffffffffff821117156115e6576115e561164d565b5b80604052505050565b7f4e487b7100000000000000000000000000000000000000000000000000000000600052601160045260246000fd5b7f4e487b7100000000000000000000000000000000000000000000000000000000600052602260045260246000fd5b7f4e487b7100000000000000000000000000000000000000000000000000000000600052604160045260246000fd5b600080fd5b600080fd5b600080fd5b600080fd5b6000601f19601f8301169050919050565b7f45524332303a207472616e7366657220746f20746865207a65726f206164647260008201527f6573730000000000000000000000000000000000000000000000000000000000602082015250565b7f45524332303a20617070726f766520746f20746865207a65726f20616464726560008201527f7373000000000000000000000000000000000000000000000000000000000000602082015250565b7f45524332303a207472616e7366657220616d6f756e742065786365656473206260008201527f616c616e63650000000000000000000000000000000000000000000000000000602082015250565b7f45524332303a207472616e7366657220616d6f756e742065786365656473206160008201527f6c6c6f77616e6365000000000000000000000000000000000000000000000000602082015250565b7f45524332303a207472616e736665722066726f6d20746865207a65726f20616460008201527f6472657373000000000000000000000000000000000000000000000000000000602082015250565b7f617070726f7665416e6443616c6c206661696c00000000000000000000000000600082015250565b7f45524332303a20617070726f76652066726f6d20746865207a65726f2061646460008201527f7265737300000000000000000000000000000000000000000000000000000000602082015250565b7f45524332303a2064656372656173656420616c6c6f77616e63652062656c6f7760008201527f207a65726f000000000000000000000000000000000000000000000000000000602082015250565b6118fc816114f5565b811461190757600080fd5b50565b61191381611533565b811461191e57600080fd5b5056fea2646970667358221220a225eeb042587f18ddbd116fa6a0bce6e3f335cd55a921dfbc0d64e05571698f64736f6c63430008070033",
  "linkReferences": {},
  "deployedLinkReferences": {}
}