{
  "_format": "hh-sol-artifact-1",
  "contractName": "Yuteng",
  "sourceName": "contracts/Yuteng.sol",
  "abi": [
    {
      "inputs": [
        {
          "internalType": "address",
          "name": "owner",
          "type": "address"
        },
        {
          "internalType": "uint256",
          "name": "initTotalSupply",
          "type": "uint256"
        }
      ],
      "stateMutability": "nonpayable",
      "type": "constructor"
    },
    {
      "anonymous": false,
      "inputs": [
        {
          "indexed": true,
          "internalType": "address",
          "name": "owner",
          "type": "address"
        },
        {
          "indexed": true,
          "internalType": "address",
          "name": "spender",
          "type": "address"
        },
        {
          "indexed": false,
          "internalType": "uint256",
          "name": "value",
          "type": "uint256"
        }
      ],
      "name": "Approval",
      "type": "event"
    },
    {
      "anonymous": false,
      "inputs": [
        {
          "indexed": false,
          "internalType": "address",
          "name": "from",
          "type": "address"
        },
        {
          "indexed": false,
          "internalType": "address",
          "name": "to",
          "type": "address"
        },
        {
          "indexed": false,
          "internalType": "uint256",
          "name": "value",
          "type": "uint256"
        },
        {
          "indexed": false,
          "internalType": "uint256",
          "name": "number",
          "type": "uint256"
        }
      ],
      "name": "SendBalance",
      "type": "event"
    },
    {
      "anonymous": false,
      "inputs": [
        {
          "indexed": true,
          "internalType": "address",
          "name": "from",
          "type": "address"
        },
        {
          "indexed": true,
          "internalType": "address",
          "name": "to",
          "type": "address"
        },
        {
          "indexed": false,
          "internalType": "uint256",
          "name": "value",
          "type": "uint256"
        }
      ],
      "name": "Transfer",
      "type": "event"
    },
    {
      "stateMutability": "payable",
      "type": "fallback"
    },
    {
      "inputs": [
        {
          "internalType": "address",
          "name": "owner",
          "type": "address"
        },
        {
          "internalType": "address",
          "name": "spender",
          "type": "address"
        }
      ],
      "name": "allowance",
      "outputs": [
        {
          "internalType": "uint256",
          "name": "",
          "type": "uint256"
        }
      ],
      "stateMutability": "view",
      "type": "function"
    },
    {
      "inputs": [
        {
          "internalType": "address",
          "name": "spender",
          "type": "address"
        },
        {
          "internalType": "uint256",
          "name": "amount",
          "type": "uint256"
        }
      ],
      "name": "approve",
      "outputs": [
        {
          "internalType": "bool",
          "name": "",
          "type": "bool"
        }
      ],
      "stateMutability": "nonpayable",
      "type": "function"
    },
    {
      "inputs": [
        {
          "internalType": "address",
          "name": "account",
          "type": "address"
        }
      ],
      "name": "balanceOf",
      "outputs": [
        {
          "internalType": "uint256",
          "name": "",
          "type": "uint256"
        }
      ],
      "stateMutability": "view",
      "type": "function"
    },
    {
      "inputs": [],
      "name": "decimals",
      "outputs": [
        {
          "internalType": "uint8",
          "name": "",
          "type": "uint8"
        }
      ],
      "stateMutability": "view",
      "type": "function"
    },
    {
      "inputs": [
        {
          "internalType": "address",
          "name": "spender",
          "type": "address"
        },
        {
          "internalType": "uint256",
          "name": "subtractedValue",
          "type": "uint256"
        }
      ],
      "name": "decreaseAllowance",
      "outputs": [
        {
          "internalType": "bool",
          "name": "",
          "type": "bool"
        }
      ],
      "stateMutability": "nonpayable",
      "type": "function"
    },
    {
      "inputs": [],
      "name": "depositMiningByEndDate",
      "outputs": [],
      "stateMutability": "payable",
      "type": "function"
    },
    {
      "inputs": [],
      "name": "exchangeToken",
      "outputs": [],
      "stateMutability": "payable",
      "type": "function"
    },
    {
      "inputs": [
        {
          "internalType": "address",
          "name": "spender",
          "type": "address"
        },
        {
          "internalType": "uint256",
          "name": "addedValue",
          "type": "uint256"
        }
      ],
      "name": "increaseAllowance",
      "outputs": [
        {
          "internalType": "bool",
          "name": "",
          "type": "bool"
        }
      ],
      "stateMutability": "nonpayable",
      "type": "function"
    },
    {
      "inputs": [],
      "name": "name",
      "outputs": [
        {
          "internalType": "string",
          "name": "",
          "type": "string"
        }
      ],
      "stateMutability": "view",
      "type": "function"
    },
    {
      "inputs": [],
      "name": "symbol",
      "outputs": [
        {
          "internalType": "string",
          "name": "",
          "type": "string"
        }
      ],
      "stateMutability": "view",
      "type": "function"
    },
    {
      "inputs": [],
      "name": "totalSupply",
      "outputs": [
        {
          "internalType": "uint256",
          "name": "",
          "type": "uint256"
        }
      ],
      "stateMutability": "view",
      "type": "function"
    },
    {
      "inputs": [
        {
          "internalType": "address",
          "name": "recipient",
          "type": "address"
        },
        {
          "internalType": "uint256",
          "name": "amount",
          "type": "uint256"
        }
      ],
      "name": "transfer",
      "outputs": [
        {
          "internalType": "bool",
          "name": "",
          "type": "bool"
        }
      ],
      "stateMutability": "nonpayable",
      "type": "function"
    },
    {
      "inputs": [
        {
          "internalType": "address",
          "name": "sender",
          "type": "address"
        },
        {
          "internalType": "address",
          "name": "recipient",
          "type": "address"
        },
        {
          "internalType": "uint256",
          "name": "amount",
          "type": "uint256"
        }
      ],
      "name": "transferFrom",
      "outputs": [
        {
          "internalType": "bool",
          "name": "",
          "type": "bool"
        }
      ],
      "stateMutability": "nonpayable",
      "type": "function"
    },
    {
      "stateMutability": "payable",
      "type": "receive"
    }
  ],
  "bytecode": "0x60806040523480156200001157600080fd5b5060405162001bbb38038062001bbb833981810160405281019062000037919062000393565b6040518060400160405280600c81526020017f597554656e6720546f6b656e00000000000000000000000000000000000000008152506040518060400160405280600381526020017f59544300000000000000000000000000000000000000000000000000000000008152508160039080519060200190620000bb929190620002b5565b508060049080519060200190620000d4929190620002b5565b505050620000e930826200013260201b60201c565b81600560006101000a81548173ffffffffffffffffffffffffffffffffffffffff021916908373ffffffffffffffffffffffffffffffffffffffff1602179055505050620005e8565b600073ffffffffffffffffffffffffffffffffffffffff168273ffffffffffffffffffffffffffffffffffffffff161415620001a5576040517f08c379a00000000000000000000000000000000000000000000000000000000081526004016200019c906200040c565b60405180910390fd5b620001b960008383620002ab60201b60201c565b8060026000828254620001cd91906200045c565b92505081905550806000808473ffffffffffffffffffffffffffffffffffffffff1673ffffffffffffffffffffffffffffffffffffffff16815260200190815260200160002060008282546200022491906200045c565b925050819055508173ffffffffffffffffffffffffffffffffffffffff16600073ffffffffffffffffffffffffffffffffffffffff167fddf252ad1be2c89b69c2b068fc378daa952ba7f163c4a11628f55a4df523b3ef836040516200028b91906200042e565b60405180910390a3620002a760008383620002b060201b60201c565b5050565b505050565b505050565b828054620002c390620004f7565b90600052602060002090601f016020900481019282620002e7576000855562000333565b82601f106200030257805160ff191683800117855562000333565b8280016001018555821562000333579182015b828111156200033257825182559160200191906001019062000315565b5b50905062000342919062000346565b5090565b5b808211156200036157600081600090555060010162000347565b5090565b6000815190506200037681620005b4565b92915050565b6000815190506200038d81620005ce565b92915050565b60008060408385031215620003a757600080fd5b6000620003b78582860162000365565b9250506020620003ca858286016200037c565b9150509250929050565b6000620003e3601f836200044b565b9150620003f0826200058b565b602082019050919050565b6200040681620004ed565b82525050565b600060208201905081810360008301526200042781620003d4565b9050919050565b6000602082019050620004456000830184620003fb565b92915050565b600082825260208201905092915050565b60006200046982620004ed565b91506200047683620004ed565b9250827fffffffffffffffffffffffffffffffffffffffffffffffffffffffffffffffff03821115620004ae57620004ad6200052d565b5b828201905092915050565b6000620004c682620004cd565b9050919050565b600073ffffffffffffffffffffffffffffffffffffffff82169050919050565b6000819050919050565b600060028204905060018216806200051057607f821691505b602082108114156200052757620005266200055c565b5b50919050565b7f4e487b7100000000000000000000000000000000000000000000000000000000600052601160045260246000fd5b7f4e487b7100000000000000000000000000000000000000000000000000000000600052602260045260246000fd5b7f45524332303a206d696e7420746f20746865207a65726f206164647265737300600082015250565b620005bf81620004b9565b8114620005cb57600080fd5b50565b620005d981620004ed565b8114620005e557600080fd5b50565b6115c380620005f86000396000f3fe6080604052600436106100c65760003560e01c8063395093511161007f578063a25eb5d911610059578063a25eb5d9146102a3578063a457c2d7146102ad578063a9059cbb146102ea578063dd62ed3e14610327576100e2565b806339509351146101fe57806370a082311461023b57806395d89b4114610278576100e2565b8063031b4189146100f957806306fdde0314610103578063095ea7b31461012e57806318160ddd1461016b57806323b872dd14610196578063313ce567146101d3576100e2565b366100e25760003411156100e0576100df346066610364565b5b005b60003411156100f7576100f6346065610364565b5b005b6101016103bf565b005b34801561010f57600080fd5b50610118610421565b6040516101259190611063565b60405180910390f35b34801561013a57600080fd5b5061015560048036038101906101509190610e5d565b6104b3565b6040516101629190611048565b60405180910390f35b34801561017757600080fd5b506101806104d1565b60405161018d9190611165565b60405180910390f35b3480156101a257600080fd5b506101bd60048036038101906101b89190610e0e565b6104db565b6040516101ca9190611048565b60405180910390f35b3480156101df57600080fd5b506101e86105d3565b6040516101f59190611180565b60405180910390f35b34801561020a57600080fd5b5061022560048036038101906102209190610e5d565b6105dc565b6040516102329190611048565b60405180910390f35b34801561024757600080fd5b50610262600480360381019061025d9190610da9565b610688565b60405161026f9190611165565b60405180910390f35b34801561028457600080fd5b5061028d6106d0565b60405161029a9190611063565b60405180910390f35b6102ab610762565b005b3480156102b957600080fd5b506102d460048036038101906102cf9190610e5d565b610779565b6040516102e19190611048565b60405180910390f35b3480156102f657600080fd5b50610311600480360381019061030c9190610e5d565b610864565b60405161031e9190611048565b60405180910390f35b34801561033357600080fd5b5061034e60048036038101906103499190610dd2565b610882565b60405161035b9190611165565b60405180910390f35b61037630610370610909565b84610911565b507f70ee46485b987eaf472c55908dc22ab5db176b6125c52401cb86bbfc91cb5c5f6103a0610909565b3084846040516103b39493929190611003565b60405180910390a15050565b600034111561041f5734600660003373ffffffffffffffffffffffffffffffffffffffff1673ffffffffffffffffffffffffffffffffffffffff168152602001908152602001600020600082825461041791906111b7565b925050819055505b565b60606003805461043090611295565b80601f016020809104026020016040519081016040528092919081815260200182805461045c90611295565b80156104a95780601f1061047e576101008083540402835291602001916104a9565b820191906000526020600020905b81548152906001019060200180831161048c57829003601f168201915b5050505050905090565b60006104c76104c0610909565b8484610929565b6001905092915050565b6000600254905090565b60006104e8848484610af4565b6000600160008673ffffffffffffffffffffffffffffffffffffffff1673ffffffffffffffffffffffffffffffffffffffff1681526020019081526020016000206000610533610909565b73ffffffffffffffffffffffffffffffffffffffff1673ffffffffffffffffffffffffffffffffffffffff168152602001908152602001600020549050828110156105b3576040517f08c379a00000000000000000000000000000000000000000000000000000000081526004016105aa906110e5565b60405180910390fd5b6105c7856105bf610909565b858403610929565b60019150509392505050565b60006012905090565b600061067e6105e9610909565b8484600160006105f7610909565b73ffffffffffffffffffffffffffffffffffffffff1673ffffffffffffffffffffffffffffffffffffffff16815260200190815260200160002060008873ffffffffffffffffffffffffffffffffffffffff1673ffffffffffffffffffffffffffffffffffffffff1681526020019081526020016000205461067991906111b7565b610929565b6001905092915050565b60008060008373ffffffffffffffffffffffffffffffffffffffff1673ffffffffffffffffffffffffffffffffffffffff168152602001908152602001600020549050919050565b6060600480546106df90611295565b80601f016020809104026020016040519081016040528092919081815260200182805461070b90611295565b80156107585780601f1061072d57610100808354040283529160200191610758565b820191906000526020600020905b81548152906001019060200180831161073b57829003601f168201915b5050505050905090565b600034111561077757610776346067610364565b5b565b60008060016000610788610909565b73ffffffffffffffffffffffffffffffffffffffff1673ffffffffffffffffffffffffffffffffffffffff16815260200190815260200160002060008573ffffffffffffffffffffffffffffffffffffffff1673ffffffffffffffffffffffffffffffffffffffff16815260200190815260200160002054905082811015610845576040517f08c379a000000000000000000000000000000000000000000000000000000000815260040161083c90611145565b60405180910390fd5b610859610850610909565b85858403610929565b600191505092915050565b6000610878610871610909565b8484610af4565b6001905092915050565b6000600160008473ffffffffffffffffffffffffffffffffffffffff1673ffffffffffffffffffffffffffffffffffffffff16815260200190815260200160002060008373ffffffffffffffffffffffffffffffffffffffff1673ffffffffffffffffffffffffffffffffffffffff16815260200190815260200160002054905092915050565b600033905090565b600061091e848484610af4565b600190509392505050565b600073ffffffffffffffffffffffffffffffffffffffff168373ffffffffffffffffffffffffffffffffffffffff161415610999576040517f08c379a000000000000000000000000000000000000000000000000000000000815260040161099090611125565b60405180910390fd5b600073ffffffffffffffffffffffffffffffffffffffff168273ffffffffffffffffffffffffffffffffffffffff161415610a09576040517f08c379a0000000000000000000000000000000000000000000000000000000008152600401610a00906110a5565b60405180910390fd5b80600160008573ffffffffffffffffffffffffffffffffffffffff1673ffffffffffffffffffffffffffffffffffffffff16815260200190815260200160002060008473ffffffffffffffffffffffffffffffffffffffff1673ffffffffffffffffffffffffffffffffffffffff168152602001908152602001600020819055508173ffffffffffffffffffffffffffffffffffffffff168373ffffffffffffffffffffffffffffffffffffffff167f8c5be1e5ebec7d5bd14f71427d1e84f3dd0314c0f7b2291e5b200ac8c7c3b92583604051610ae79190611165565b60405180910390a3505050565b600073ffffffffffffffffffffffffffffffffffffffff168373ffffffffffffffffffffffffffffffffffffffff161415610b64576040517f08c379a0000000000000000000000000000000000000000000000000000000008152600401610b5b90611105565b60405180910390fd5b600073ffffffffffffffffffffffffffffffffffffffff168273ffffffffffffffffffffffffffffffffffffffff161415610bd4576040517f08c379a0000000000000000000000000000000000000000000000000000000008152600401610bcb90611085565b60405180910390fd5b610bdf838383610d75565b60008060008573ffffffffffffffffffffffffffffffffffffffff1673ffffffffffffffffffffffffffffffffffffffff16815260200190815260200160002054905081811015610c65576040517f08c379a0000000000000000000000000000000000000000000000000000000008152600401610c5c906110c5565b60405180910390fd5b8181036000808673ffffffffffffffffffffffffffffffffffffffff1673ffffffffffffffffffffffffffffffffffffffff16815260200190815260200160002081905550816000808573ffffffffffffffffffffffffffffffffffffffff1673ffffffffffffffffffffffffffffffffffffffff1681526020019081526020016000206000828254610cf891906111b7565b925050819055508273ffffffffffffffffffffffffffffffffffffffff168473ffffffffffffffffffffffffffffffffffffffff167fddf252ad1be2c89b69c2b068fc378daa952ba7f163c4a11628f55a4df523b3ef84604051610d5c9190611165565b60405180910390a3610d6f848484610d7a565b50505050565b505050565b505050565b600081359050610d8e8161155f565b92915050565b600081359050610da381611576565b92915050565b600060208284031215610dbb57600080fd5b6000610dc984828501610d7f565b91505092915050565b60008060408385031215610de557600080fd5b6000610df385828601610d7f565b9250506020610e0485828601610d7f565b9150509250929050565b600080600060608486031215610e2357600080fd5b6000610e3186828701610d7f565b9350506020610e4286828701610d7f565b9250506040610e5386828701610d94565b9150509250925092565b60008060408385031215610e7057600080fd5b6000610e7e85828601610d7f565b9250506020610e8f85828601610d94565b9150509250929050565b610ea28161120d565b82525050565b610eb18161121f565b82525050565b6000610ec28261119b565b610ecc81856111a6565b9350610edc818560208601611262565b610ee581611325565b840191505092915050565b6000610efd6023836111a6565b9150610f0882611336565b604082019050919050565b6000610f206022836111a6565b9150610f2b82611385565b604082019050919050565b6000610f436026836111a6565b9150610f4e826113d4565b604082019050919050565b6000610f666028836111a6565b9150610f7182611423565b604082019050919050565b6000610f896025836111a6565b9150610f9482611472565b604082019050919050565b6000610fac6024836111a6565b9150610fb7826114c1565b604082019050919050565b6000610fcf6025836111a6565b9150610fda82611510565b604082019050919050565b610fee8161124b565b82525050565b610ffd81611255565b82525050565b60006080820190506110186000830187610e99565b6110256020830186610e99565b6110326040830185610fe5565b61103f6060830184610fe5565b95945050505050565b600060208201905061105d6000830184610ea8565b92915050565b6000602082019050818103600083015261107d8184610eb7565b905092915050565b6000602082019050818103600083015261109e81610ef0565b9050919050565b600060208201905081810360008301526110be81610f13565b9050919050565b600060208201905081810360008301526110de81610f36565b9050919050565b600060208201905081810360008301526110fe81610f59565b9050919050565b6000602082019050818103600083015261111e81610f7c565b9050919050565b6000602082019050818103600083015261113e81610f9f565b9050919050565b6000602082019050818103600083015261115e81610fc2565b9050919050565b600060208201905061117a6000830184610fe5565b92915050565b60006020820190506111956000830184610ff4565b92915050565b600081519050919050565b600082825260208201905092915050565b60006111c28261124b565b91506111cd8361124b565b9250827fffffffffffffffffffffffffffffffffffffffffffffffffffffffffffffffff03821115611202576112016112c7565b5b828201905092915050565b60006112188261122b565b9050919050565b60008115159050919050565b600073ffffffffffffffffffffffffffffffffffffffff82169050919050565b6000819050919050565b600060ff82169050919050565b60005b83811015611280578082015181840152602081019050611265565b8381111561128f576000848401525b50505050565b600060028204905060018216806112ad57607f821691505b602082108114156112c1576112c06112f6565b5b50919050565b7f4e487b7100000000000000000000000000000000000000000000000000000000600052601160045260246000fd5b7f4e487b7100000000000000000000000000000000000000000000000000000000600052602260045260246000fd5b6000601f19601f8301169050919050565b7f45524332303a207472616e7366657220746f20746865207a65726f206164647260008201527f6573730000000000000000000000000000000000000000000000000000000000602082015250565b7f45524332303a20617070726f766520746f20746865207a65726f20616464726560008201527f7373000000000000000000000000000000000000000000000000000000000000602082015250565b7f45524332303a207472616e7366657220616d6f756e742065786365656473206260008201527f616c616e63650000000000000000000000000000000000000000000000000000602082015250565b7f45524332303a207472616e7366657220616d6f756e742065786365656473206160008201527f6c6c6f77616e6365000000000000000000000000000000000000000000000000602082015250565b7f45524332303a207472616e736665722066726f6d20746865207a65726f20616460008201527f6472657373000000000000000000000000000000000000000000000000000000602082015250565b7f45524332303a20617070726f76652066726f6d20746865207a65726f2061646460008201527f7265737300000000000000000000000000000000000000000000000000000000602082015250565b7f45524332303a2064656372656173656420616c6c6f77616e63652062656c6f7760008201527f207a65726f000000000000000000000000000000000000000000000000000000602082015250565b6115688161120d565b811461157357600080fd5b50565b61157f8161124b565b811461158a57600080fd5b5056fea26469706673582212203c494beee2165b15985ed366838f5e3483be3aa57db3ca657424d08793f1adca64736f6c63430008040033",
  "linkReferences": {},
  "deployedLinkReferences": {}
}