{
  "_format": "hh-sol-artifact-1",
  "contractName": "Yuteng",
  "sourceName": "contracts/Yuteng.sol",
  "abi": [
    {
      "inputs": [
        {
          "internalType": "address",
          "name": "owner",
          "type": "address"
        },
        {
          "internalType": "uint256",
          "name": "initTotalSupply",
          "type": "uint256"
        }
      ],
      "stateMutability": "payable",
      "type": "constructor"
    },
    {
      "anonymous": false,
      "inputs": [
        {
          "indexed": true,
          "internalType": "address",
          "name": "owner",
          "type": "address"
        },
        {
          "indexed": true,
          "internalType": "address",
          "name": "spender",
          "type": "address"
        },
        {
          "indexed": false,
          "internalType": "uint256",
          "name": "value",
          "type": "uint256"
        }
      ],
      "name": "Approval",
      "type": "event"
    },
    {
      "anonymous": false,
      "inputs": [
        {
          "indexed": false,
          "internalType": "address",
          "name": "from",
          "type": "address"
        },
        {
          "indexed": false,
          "internalType": "address",
          "name": "to",
          "type": "address"
        },
        {
          "indexed": false,
          "internalType": "uint256",
          "name": "value",
          "type": "uint256"
        },
        {
          "indexed": false,
          "internalType": "uint256",
          "name": "number",
          "type": "uint256"
        }
      ],
      "name": "SendBalance",
      "type": "event"
    },
    {
      "anonymous": false,
      "inputs": [
        {
          "indexed": true,
          "internalType": "address",
          "name": "from",
          "type": "address"
        },
        {
          "indexed": true,
          "internalType": "address",
          "name": "to",
          "type": "address"
        },
        {
          "indexed": false,
          "internalType": "uint256",
          "name": "value",
          "type": "uint256"
        }
      ],
      "name": "Transfer",
      "type": "event"
    },
    {
      "stateMutability": "payable",
      "type": "fallback"
    },
    {
      "inputs": [
        {
          "internalType": "address",
          "name": "owner",
          "type": "address"
        },
        {
          "internalType": "address",
          "name": "spender",
          "type": "address"
        }
      ],
      "name": "allowance",
      "outputs": [
        {
          "internalType": "uint256",
          "name": "",
          "type": "uint256"
        }
      ],
      "stateMutability": "view",
      "type": "function"
    },
    {
      "inputs": [
        {
          "internalType": "address",
          "name": "spender",
          "type": "address"
        },
        {
          "internalType": "uint256",
          "name": "amount",
          "type": "uint256"
        }
      ],
      "name": "approve",
      "outputs": [
        {
          "internalType": "bool",
          "name": "",
          "type": "bool"
        }
      ],
      "stateMutability": "nonpayable",
      "type": "function"
    },
    {
      "inputs": [
        {
          "internalType": "address",
          "name": "_spender",
          "type": "address"
        },
        {
          "internalType": "uint256",
          "name": "_amount",
          "type": "uint256"
        },
        {
          "internalType": "bytes",
          "name": "_extraData",
          "type": "bytes"
        }
      ],
      "name": "approveAndCall",
      "outputs": [
        {
          "internalType": "bool",
          "name": "success",
          "type": "bool"
        }
      ],
      "stateMutability": "nonpayable",
      "type": "function"
    },
    {
      "inputs": [
        {
          "internalType": "address",
          "name": "account",
          "type": "address"
        }
      ],
      "name": "balanceOf",
      "outputs": [
        {
          "internalType": "uint256",
          "name": "",
          "type": "uint256"
        }
      ],
      "stateMutability": "view",
      "type": "function"
    },
    {
      "inputs": [],
      "name": "decimals",
      "outputs": [
        {
          "internalType": "uint8",
          "name": "",
          "type": "uint8"
        }
      ],
      "stateMutability": "view",
      "type": "function"
    },
    {
      "inputs": [
        {
          "internalType": "address",
          "name": "spender",
          "type": "address"
        },
        {
          "internalType": "uint256",
          "name": "subtractedValue",
          "type": "uint256"
        }
      ],
      "name": "decreaseAllowance",
      "outputs": [
        {
          "internalType": "bool",
          "name": "",
          "type": "bool"
        }
      ],
      "stateMutability": "nonpayable",
      "type": "function"
    },
    {
      "inputs": [],
      "name": "exchangeToken",
      "outputs": [],
      "stateMutability": "payable",
      "type": "function"
    },
    {
      "inputs": [
        {
          "internalType": "address",
          "name": "spender",
          "type": "address"
        },
        {
          "internalType": "uint256",
          "name": "addedValue",
          "type": "uint256"
        }
      ],
      "name": "increaseAllowance",
      "outputs": [
        {
          "internalType": "bool",
          "name": "",
          "type": "bool"
        }
      ],
      "stateMutability": "nonpayable",
      "type": "function"
    },
    {
      "inputs": [],
      "name": "name",
      "outputs": [
        {
          "internalType": "string",
          "name": "",
          "type": "string"
        }
      ],
      "stateMutability": "view",
      "type": "function"
    },
    {
      "inputs": [],
      "name": "symbol",
      "outputs": [
        {
          "internalType": "string",
          "name": "",
          "type": "string"
        }
      ],
      "stateMutability": "view",
      "type": "function"
    },
    {
      "inputs": [],
      "name": "totalSupply",
      "outputs": [
        {
          "internalType": "uint256",
          "name": "",
          "type": "uint256"
        }
      ],
      "stateMutability": "view",
      "type": "function"
    },
    {
      "inputs": [
        {
          "internalType": "address",
          "name": "recipient",
          "type": "address"
        },
        {
          "internalType": "uint256",
          "name": "amount",
          "type": "uint256"
        }
      ],
      "name": "transfer",
      "outputs": [
        {
          "internalType": "bool",
          "name": "",
          "type": "bool"
        }
      ],
      "stateMutability": "nonpayable",
      "type": "function"
    },
    {
      "inputs": [
        {
          "internalType": "address",
          "name": "_recipient",
          "type": "address"
        },
        {
          "internalType": "uint256",
          "name": "_amount",
          "type": "uint256"
        },
        {
          "internalType": "bytes",
          "name": "_extraData",
          "type": "bytes"
        }
      ],
      "name": "transferAndCall",
      "outputs": [
        {
          "internalType": "bool",
          "name": "",
          "type": "bool"
        }
      ],
      "stateMutability": "nonpayable",
      "type": "function"
    },
    {
      "inputs": [
        {
          "internalType": "address",
          "name": "sender",
          "type": "address"
        },
        {
          "internalType": "address",
          "name": "recipient",
          "type": "address"
        },
        {
          "internalType": "uint256",
          "name": "amount",
          "type": "uint256"
        }
      ],
      "name": "transferFrom",
      "outputs": [
        {
          "internalType": "bool",
          "name": "",
          "type": "bool"
        }
      ],
      "stateMutability": "nonpayable",
      "type": "function"
    },
    {
      "stateMutability": "payable",
      "type": "receive"
    }
  ],
  "bytecode": "0x60806040526040516200217238038062002172833981810160405281019062000029919062000385565b6040518060400160405280600c81526020017f597554656e6720546f6b656e00000000000000000000000000000000000000008152506040518060400160405280600381526020017f59544300000000000000000000000000000000000000000000000000000000008152508160039080519060200190620000ad929190620002a7565b508060049080519060200190620000c6929190620002a7565b505050620000db82826200012460201b60201c565b81600560006101000a81548173ffffffffffffffffffffffffffffffffffffffff021916908373ffffffffffffffffffffffffffffffffffffffff1602179055505050620005e5565b600073ffffffffffffffffffffffffffffffffffffffff168273ffffffffffffffffffffffffffffffffffffffff16141562000197576040517f08c379a00000000000000000000000000000000000000000000000000000000081526004016200018e9062000404565b60405180910390fd5b620001ab600083836200029d60201b60201c565b8060026000828254620001bf919062000454565b92505081905550806000808473ffffffffffffffffffffffffffffffffffffffff1673ffffffffffffffffffffffffffffffffffffffff168152602001908152602001600020600082825462000216919062000454565b925050819055508173ffffffffffffffffffffffffffffffffffffffff16600073ffffffffffffffffffffffffffffffffffffffff167fddf252ad1be2c89b69c2b068fc378daa952ba7f163c4a11628f55a4df523b3ef836040516200027d919062000426565b60405180910390a36200029960008383620002a260201b60201c565b5050565b505050565b505050565b828054620002b590620004ef565b90600052602060002090601f016020900481019282620002d9576000855562000325565b82601f10620002f457805160ff191683800117855562000325565b8280016001018555821562000325579182015b828111156200032457825182559160200191906001019062000307565b5b50905062000334919062000338565b5090565b5b808211156200035357600081600090555060010162000339565b5090565b6000815190506200036881620005b1565b92915050565b6000815190506200037f81620005cb565b92915050565b600080604083850312156200039f576200039e62000583565b5b6000620003af8582860162000357565b9250506020620003c2858286016200036e565b9150509250929050565b6000620003db601f8362000443565b9150620003e88262000588565b602082019050919050565b620003fe81620004e5565b82525050565b600060208201905081810360008301526200041f81620003cc565b9050919050565b60006020820190506200043d6000830184620003f3565b92915050565b600082825260208201905092915050565b60006200046182620004e5565b91506200046e83620004e5565b9250827fffffffffffffffffffffffffffffffffffffffffffffffffffffffffffffffff03821115620004a657620004a562000525565b5b828201905092915050565b6000620004be82620004c5565b9050919050565b600073ffffffffffffffffffffffffffffffffffffffff82169050919050565b6000819050919050565b600060028204905060018216806200050857607f821691505b602082108114156200051f576200051e62000554565b5b50919050565b7f4e487b7100000000000000000000000000000000000000000000000000000000600052601160045260246000fd5b7f4e487b7100000000000000000000000000000000000000000000000000000000600052602260045260246000fd5b600080fd5b7f45524332303a206d696e7420746f20746865207a65726f206164647265737300600082015250565b620005bc81620004b1565b8114620005c857600080fd5b50565b620005d681620004e5565b8114620005e257600080fd5b50565b611b7d80620005f56000396000f3fe6080604052600436106100e15760003560e01c806370a082311161007f578063a457c2d711610059578063a457c2d714610325578063a9059cbb14610362578063cae9ca511461039f578063dd62ed3e146103dc576100f3565b806370a08231146102b357806395d89b41146102f0578063a25eb5d91461031b576100f3565b806323b872dd116100bb57806323b872dd146101d1578063313ce5671461020e57806339509351146102395780634000aea014610276576100f3565b806306fdde031461013e578063095ea7b31461016957806318160ddd146101a6576100f3565b366100f3576100f1346066610419565b005b6101316040518060400160405280601c81526020017f597574656e672066616c6c6261636b20737563636573732063616c6c000000008152506104b8565b61013c346065610419565b005b34801561014a57600080fd5b50610153610551565b60405161016091906114df565b60405180910390f35b34801561017557600080fd5b50610190600480360381019061018b9190611180565b6105e3565b60405161019d91906114c4565b60405180910390f35b3480156101b257600080fd5b506101bb610601565b6040516101c89190611601565b60405180910390f35b3480156101dd57600080fd5b506101f860048036038101906101f3919061112d565b61060b565b60405161020591906114c4565b60405180910390f35b34801561021a57600080fd5b50610223610703565b604051610230919061161c565b60405180910390f35b34801561024557600080fd5b50610260600480360381019061025b9190611180565b61070c565b60405161026d91906114c4565b60405180910390f35b34801561028257600080fd5b5061029d600480360381019061029891906111c0565b6107b8565b6040516102aa91906114c4565b60405180910390f35b3480156102bf57600080fd5b506102da60048036038101906102d591906110c0565b610848565b6040516102e79190611601565b60405180910390f35b3480156102fc57600080fd5b50610305610890565b60405161031291906114df565b60405180910390f35b610323610922565b005b34801561033157600080fd5b5061034c60048036038101906103479190611180565b61092f565b60405161035991906114c4565b60405180910390f35b34801561036e57600080fd5b5061038960048036038101906103849190611180565b610a1a565b60405161039691906114c4565b60405180910390f35b3480156103ab57600080fd5b506103c660048036038101906103c191906111c0565b610a38565b6040516103d391906114c4565b60405180910390f35b3480156103e857600080fd5b5061040360048036038101906103fe91906110ed565b610b00565b6040516104109190611601565b60405180910390f35b61044d600560009054906101000a900473ffffffffffffffffffffffffffffffffffffffff16610447610b87565b84610b8f565b507f70ee46485b987eaf472c55908dc22ab5db176b6125c52401cb86bbfc91cb5c5f610477610b87565b600560009054906101000a900473ffffffffffffffffffffffffffffffffffffffff1684846040516104ac94939291906113f5565b60405180910390a15050565b61054e816040516024016104cc91906114df565b6040516020818303038152906040527f41304fac000000000000000000000000000000000000000000000000000000007bffffffffffffffffffffffffffffffffffffffffffffffffffffffff19166020820180517bffffffffffffffffffffffffffffffffffffffffffffffffffffffff8381831617835250505050610ba7565b50565b606060038054610560906117b2565b80601f016020809104026020016040519081016040528092919081815260200182805461058c906117b2565b80156105d95780601f106105ae576101008083540402835291602001916105d9565b820191906000526020600020905b8154815290600101906020018083116105bc57829003601f168201915b5050505050905090565b60006105f76105f0610b87565b8484610bd0565b6001905092915050565b6000600254905090565b6000610618848484610d9b565b6000600160008673ffffffffffffffffffffffffffffffffffffffff1673ffffffffffffffffffffffffffffffffffffffff1681526020019081526020016000206000610663610b87565b73ffffffffffffffffffffffffffffffffffffffff1673ffffffffffffffffffffffffffffffffffffffff168152602001908152602001600020549050828110156106e3576040517f08c379a00000000000000000000000000000000000000000000000000000000081526004016106da90611561565b60405180910390fd5b6106f7856106ef610b87565b858403610bd0565b60019150509392505050565b60006012905090565b60006107ae610719610b87565b848460016000610727610b87565b73ffffffffffffffffffffffffffffffffffffffff1673ffffffffffffffffffffffffffffffffffffffff16815260200190815260200160002060008873ffffffffffffffffffffffffffffffffffffffff1673ffffffffffffffffffffffffffffffffffffffff168152602001908152602001600020546107a991906116c5565b610bd0565b6001905092915050565b60006107c48484610a1a565b156107ce57600080fd5b8373ffffffffffffffffffffffffffffffffffffffff1663e418f5923385856040518463ffffffff1660e01b815260040161080b93929190611486565b600060405180830381600087803b15801561082557600080fd5b505af1158015610839573d6000803e3d6000fd5b50505050600190509392505050565b60008060008373ffffffffffffffffffffffffffffffffffffffff1673ffffffffffffffffffffffffffffffffffffffff168152602001908152602001600020549050919050565b60606004805461089f906117b2565b80601f01602080910402602001604051908101604052809291908181526020018280546108cb906117b2565b80156109185780601f106108ed57610100808354040283529160200191610918565b820191906000526020600020905b8154815290600101906020018083116108fb57829003601f168201915b5050505050905090565b61092d346067610419565b565b6000806001600061093e610b87565b73ffffffffffffffffffffffffffffffffffffffff1673ffffffffffffffffffffffffffffffffffffffff16815260200190815260200160002060008573ffffffffffffffffffffffffffffffffffffffff1673ffffffffffffffffffffffffffffffffffffffff168152602001908152602001600020549050828110156109fb576040517f08c379a00000000000000000000000000000000000000000000000000000000081526004016109f2906115e1565b60405180910390fd5b610a0f610a06610b87565b85858403610bd0565b600191505092915050565b6000610a2e610a27610b87565b8484610d9b565b6001905092915050565b6000610a4484846105e3565b15610a84576040517f08c379a0000000000000000000000000000000000000000000000000000000008152600401610a7b906115a1565b60405180910390fd5b8373ffffffffffffffffffffffffffffffffffffffff16638f4ffcb1338530866040518563ffffffff1660e01b8152600401610ac3949392919061143a565b600060405180830381600087803b158015610add57600080fd5b505af1158015610af1573d6000803e3d6000fd5b50505050600190509392505050565b6000600160008473ffffffffffffffffffffffffffffffffffffffff1673ffffffffffffffffffffffffffffffffffffffff16815260200190815260200160002060008373ffffffffffffffffffffffffffffffffffffffff1673ffffffffffffffffffffffffffffffffffffffff16815260200190815260200160002054905092915050565b600033905090565b6000610b9c848484610d9b565b600190509392505050565b60008151905060006a636f6e736f6c652e6c6f679050602083016000808483855afa5050505050565b600073ffffffffffffffffffffffffffffffffffffffff168373ffffffffffffffffffffffffffffffffffffffff161415610c40576040517f08c379a0000000000000000000000000000000000000000000000000000000008152600401610c37906115c1565b60405180910390fd5b600073ffffffffffffffffffffffffffffffffffffffff168273ffffffffffffffffffffffffffffffffffffffff161415610cb0576040517f08c379a0000000000000000000000000000000000000000000000000000000008152600401610ca790611521565b60405180910390fd5b80600160008573ffffffffffffffffffffffffffffffffffffffff1673ffffffffffffffffffffffffffffffffffffffff16815260200190815260200160002060008473ffffffffffffffffffffffffffffffffffffffff1673ffffffffffffffffffffffffffffffffffffffff168152602001908152602001600020819055508173ffffffffffffffffffffffffffffffffffffffff168373ffffffffffffffffffffffffffffffffffffffff167f8c5be1e5ebec7d5bd14f71427d1e84f3dd0314c0f7b2291e5b200ac8c7c3b92583604051610d8e9190611601565b60405180910390a3505050565b600073ffffffffffffffffffffffffffffffffffffffff168373ffffffffffffffffffffffffffffffffffffffff161415610e0b576040517f08c379a0000000000000000000000000000000000000000000000000000000008152600401610e0290611581565b60405180910390fd5b600073ffffffffffffffffffffffffffffffffffffffff168273ffffffffffffffffffffffffffffffffffffffff161415610e7b576040517f08c379a0000000000000000000000000000000000000000000000000000000008152600401610e7290611501565b60405180910390fd5b610e8683838361101c565b60008060008573ffffffffffffffffffffffffffffffffffffffff1673ffffffffffffffffffffffffffffffffffffffff16815260200190815260200160002054905081811015610f0c576040517f08c379a0000000000000000000000000000000000000000000000000000000008152600401610f0390611541565b60405180910390fd5b8181036000808673ffffffffffffffffffffffffffffffffffffffff1673ffffffffffffffffffffffffffffffffffffffff16815260200190815260200160002081905550816000808573ffffffffffffffffffffffffffffffffffffffff1673ffffffffffffffffffffffffffffffffffffffff1681526020019081526020016000206000828254610f9f91906116c5565b925050819055508273ffffffffffffffffffffffffffffffffffffffff168473ffffffffffffffffffffffffffffffffffffffff167fddf252ad1be2c89b69c2b068fc378daa952ba7f163c4a11628f55a4df523b3ef846040516110039190611601565b60405180910390a3611016848484611021565b50505050565b505050565b505050565b60006110396110348461165c565b611637565b905082815260208101848484011115611055576110546118a7565b5b611060848285611770565b509392505050565b60008135905061107781611b19565b92915050565b600082601f830112611092576110916118a2565b5b81356110a2848260208601611026565b91505092915050565b6000813590506110ba81611b30565b92915050565b6000602082840312156110d6576110d56118b1565b5b60006110e484828501611068565b91505092915050565b60008060408385031215611104576111036118b1565b5b600061111285828601611068565b925050602061112385828601611068565b9150509250929050565b600080600060608486031215611146576111456118b1565b5b600061115486828701611068565b935050602061116586828701611068565b9250506040611176868287016110ab565b9150509250925092565b60008060408385031215611197576111966118b1565b5b60006111a585828601611068565b92505060206111b6858286016110ab565b9150509250929050565b6000806000606084860312156111d9576111d86118b1565b5b60006111e786828701611068565b93505060206111f8868287016110ab565b925050604084013567ffffffffffffffff811115611219576112186118ac565b5b6112258682870161107d565b9150509250925092565b6112388161171b565b82525050565b6112478161172d565b82525050565b60006112588261168d565b61126281856116a3565b935061127281856020860161177f565b61127b816118b6565b840191505092915050565b600061129182611698565b61129b81856116b4565b93506112ab81856020860161177f565b6112b4816118b6565b840191505092915050565b60006112cc6023836116b4565b91506112d7826118c7565b604082019050919050565b60006112ef6022836116b4565b91506112fa82611916565b604082019050919050565b60006113126026836116b4565b915061131d82611965565b604082019050919050565b60006113356028836116b4565b9150611340826119b4565b604082019050919050565b60006113586025836116b4565b915061136382611a03565b604082019050919050565b600061137b6013836116b4565b915061138682611a52565b602082019050919050565b600061139e6024836116b4565b91506113a982611a7b565b604082019050919050565b60006113c16025836116b4565b91506113cc82611aca565b604082019050919050565b6113e081611759565b82525050565b6113ef81611763565b82525050565b600060808201905061140a600083018761122f565b611417602083018661122f565b61142460408301856113d7565b61143160608301846113d7565b95945050505050565b600060808201905061144f600083018761122f565b61145c60208301866113d7565b611469604083018561122f565b818103606083015261147b818461124d565b905095945050505050565b600060608201905061149b600083018661122f565b6114a860208301856113d7565b81810360408301526114ba818461124d565b9050949350505050565b60006020820190506114d9600083018461123e565b92915050565b600060208201905081810360008301526114f98184611286565b905092915050565b6000602082019050818103600083015261151a816112bf565b9050919050565b6000602082019050818103600083015261153a816112e2565b9050919050565b6000602082019050818103600083015261155a81611305565b9050919050565b6000602082019050818103600083015261157a81611328565b9050919050565b6000602082019050818103600083015261159a8161134b565b9050919050565b600060208201905081810360008301526115ba8161136e565b9050919050565b600060208201905081810360008301526115da81611391565b9050919050565b600060208201905081810360008301526115fa816113b4565b9050919050565b600060208201905061161660008301846113d7565b92915050565b600060208201905061163160008301846113e6565b92915050565b6000611641611652565b905061164d82826117e4565b919050565b6000604051905090565b600067ffffffffffffffff82111561167757611676611873565b5b611680826118b6565b9050602081019050919050565b600081519050919050565b600081519050919050565b600082825260208201905092915050565b600082825260208201905092915050565b60006116d082611759565b91506116db83611759565b9250827fffffffffffffffffffffffffffffffffffffffffffffffffffffffffffffffff038211156117105761170f611815565b5b828201905092915050565b600061172682611739565b9050919050565b60008115159050919050565b600073ffffffffffffffffffffffffffffffffffffffff82169050919050565b6000819050919050565b600060ff82169050919050565b82818337600083830152505050565b60005b8381101561179d578082015181840152602081019050611782565b838111156117ac576000848401525b50505050565b600060028204905060018216806117ca57607f821691505b602082108114156117de576117dd611844565b5b50919050565b6117ed826118b6565b810181811067ffffffffffffffff8211171561180c5761180b611873565b5b80604052505050565b7f4e487b7100000000000000000000000000000000000000000000000000000000600052601160045260246000fd5b7f4e487b7100000000000000000000000000000000000000000000000000000000600052602260045260246000fd5b7f4e487b7100000000000000000000000000000000000000000000000000000000600052604160045260246000fd5b600080fd5b600080fd5b600080fd5b600080fd5b6000601f19601f8301169050919050565b7f45524332303a207472616e7366657220746f20746865207a65726f206164647260008201527f6573730000000000000000000000000000000000000000000000000000000000602082015250565b7f45524332303a20617070726f766520746f20746865207a65726f20616464726560008201527f7373000000000000000000000000000000000000000000000000000000000000602082015250565b7f45524332303a207472616e7366657220616d6f756e742065786365656473206260008201527f616c616e63650000000000000000000000000000000000000000000000000000602082015250565b7f45524332303a207472616e7366657220616d6f756e742065786365656473206160008201527f6c6c6f77616e6365000000000000000000000000000000000000000000000000602082015250565b7f45524332303a207472616e736665722066726f6d20746865207a65726f20616460008201527f6472657373000000000000000000000000000000000000000000000000000000602082015250565b7f617070726f7665416e6443616c6c206661696c00000000000000000000000000600082015250565b7f45524332303a20617070726f76652066726f6d20746865207a65726f2061646460008201527f7265737300000000000000000000000000000000000000000000000000000000602082015250565b7f45524332303a2064656372656173656420616c6c6f77616e63652062656c6f7760008201527f207a65726f000000000000000000000000000000000000000000000000000000602082015250565b611b228161171b565b8114611b2d57600080fd5b50565b611b3981611759565b8114611b4457600080fd5b5056fea264697066735822122049dc95837719737a8c57110d2b0a2a81da1b78a09fa6eac520fa1d2e4b668f0e64736f6c63430008070033",
  "linkReferences": {},
  "deployedLinkReferences": {}
}