{
  "_format": "hh-sol-artifact-1",
  "contractName": "Yuteng",
  "sourceName": "contracts/Yuteng.sol",
  "abi": [
    {
      "inputs": [
        {
          "internalType": "address",
          "name": "owner",
          "type": "address"
        },
        {
          "internalType": "uint256",
          "name": "initTotalSupply",
          "type": "uint256"
        }
      ],
      "stateMutability": "payable",
      "type": "constructor"
    },
    {
      "anonymous": false,
      "inputs": [
        {
          "indexed": true,
          "internalType": "address",
          "name": "owner",
          "type": "address"
        },
        {
          "indexed": true,
          "internalType": "address",
          "name": "spender",
          "type": "address"
        },
        {
          "indexed": false,
          "internalType": "uint256",
          "name": "value",
          "type": "uint256"
        }
      ],
      "name": "Approval",
      "type": "event"
    },
    {
      "anonymous": false,
      "inputs": [
        {
          "indexed": false,
          "internalType": "address",
          "name": "from",
          "type": "address"
        },
        {
          "indexed": false,
          "internalType": "address",
          "name": "to",
          "type": "address"
        },
        {
          "indexed": false,
          "internalType": "uint256",
          "name": "value",
          "type": "uint256"
        },
        {
          "indexed": false,
          "internalType": "uint256",
          "name": "number",
          "type": "uint256"
        }
      ],
      "name": "SendBalance",
      "type": "event"
    },
    {
      "anonymous": false,
      "inputs": [
        {
          "indexed": true,
          "internalType": "address",
          "name": "from",
          "type": "address"
        },
        {
          "indexed": true,
          "internalType": "address",
          "name": "to",
          "type": "address"
        },
        {
          "indexed": false,
          "internalType": "uint256",
          "name": "value",
          "type": "uint256"
        }
      ],
      "name": "Transfer",
      "type": "event"
    },
    {
      "stateMutability": "payable",
      "type": "fallback"
    },
    {
      "inputs": [
        {
          "internalType": "uint256",
          "name": "newAge",
          "type": "uint256"
        }
      ],
      "name": "age",
      "outputs": [
        {
          "internalType": "uint256",
          "name": "",
          "type": "uint256"
        }
      ],
      "stateMutability": "pure",
      "type": "function"
    },
    {
      "inputs": [
        {
          "internalType": "address",
          "name": "owner",
          "type": "address"
        },
        {
          "internalType": "address",
          "name": "spender",
          "type": "address"
        }
      ],
      "name": "allowance",
      "outputs": [
        {
          "internalType": "uint256",
          "name": "",
          "type": "uint256"
        }
      ],
      "stateMutability": "view",
      "type": "function"
    },
    {
      "inputs": [
        {
          "internalType": "address",
          "name": "spender",
          "type": "address"
        },
        {
          "internalType": "uint256",
          "name": "amount",
          "type": "uint256"
        }
      ],
      "name": "approve",
      "outputs": [
        {
          "internalType": "bool",
          "name": "",
          "type": "bool"
        }
      ],
      "stateMutability": "nonpayable",
      "type": "function"
    },
    {
      "inputs": [
        {
          "internalType": "address",
          "name": "account",
          "type": "address"
        }
      ],
      "name": "balanceOf",
      "outputs": [
        {
          "internalType": "uint256",
          "name": "",
          "type": "uint256"
        }
      ],
      "stateMutability": "view",
      "type": "function"
    },
    {
      "inputs": [],
      "name": "decimals",
      "outputs": [
        {
          "internalType": "uint8",
          "name": "",
          "type": "uint8"
        }
      ],
      "stateMutability": "view",
      "type": "function"
    },
    {
      "inputs": [
        {
          "internalType": "address",
          "name": "spender",
          "type": "address"
        },
        {
          "internalType": "uint256",
          "name": "subtractedValue",
          "type": "uint256"
        }
      ],
      "name": "decreaseAllowance",
      "outputs": [
        {
          "internalType": "bool",
          "name": "",
          "type": "bool"
        }
      ],
      "stateMutability": "nonpayable",
      "type": "function"
    },
    {
      "inputs": [],
      "name": "exchangeToken",
      "outputs": [],
      "stateMutability": "payable",
      "type": "function"
    },
    {
      "inputs": [
        {
          "internalType": "address",
          "name": "spender",
          "type": "address"
        },
        {
          "internalType": "uint256",
          "name": "addedValue",
          "type": "uint256"
        }
      ],
      "name": "increaseAllowance",
      "outputs": [
        {
          "internalType": "bool",
          "name": "",
          "type": "bool"
        }
      ],
      "stateMutability": "nonpayable",
      "type": "function"
    },
    {
      "inputs": [],
      "name": "name",
      "outputs": [
        {
          "internalType": "string",
          "name": "",
          "type": "string"
        }
      ],
      "stateMutability": "view",
      "type": "function"
    },
    {
      "inputs": [],
      "name": "symbol",
      "outputs": [
        {
          "internalType": "string",
          "name": "",
          "type": "string"
        }
      ],
      "stateMutability": "view",
      "type": "function"
    },
    {
      "inputs": [],
      "name": "test",
      "outputs": [
        {
          "internalType": "address",
          "name": "",
          "type": "address"
        }
      ],
      "stateMutability": "view",
      "type": "function"
    },
    {
      "inputs": [],
      "name": "totalSupply",
      "outputs": [
        {
          "internalType": "uint256",
          "name": "",
          "type": "uint256"
        }
      ],
      "stateMutability": "view",
      "type": "function"
    },
    {
      "inputs": [
        {
          "internalType": "address",
          "name": "recipient",
          "type": "address"
        },
        {
          "internalType": "uint256",
          "name": "amount",
          "type": "uint256"
        }
      ],
      "name": "transfer",
      "outputs": [
        {
          "internalType": "bool",
          "name": "",
          "type": "bool"
        }
      ],
      "stateMutability": "nonpayable",
      "type": "function"
    },
    {
      "inputs": [
        {
          "internalType": "address",
          "name": "sender",
          "type": "address"
        },
        {
          "internalType": "address",
          "name": "recipient",
          "type": "address"
        },
        {
          "internalType": "uint256",
          "name": "amount",
          "type": "uint256"
        }
      ],
      "name": "transferFrom",
      "outputs": [
        {
          "internalType": "bool",
          "name": "",
          "type": "bool"
        }
      ],
      "stateMutability": "nonpayable",
      "type": "function"
    },
    {
      "stateMutability": "payable",
      "type": "receive"
    }
  ],
  "bytecode": "0x608060405260405162001ca038038062001ca0833981810160405281019062000029919062000344565b6040518060400160405280600c81526020017f597554656e6720546f6b656e00000000000000000000000000000000000000008152506040518060400160405280600381526020017f59544300000000000000000000000000000000000000000000000000000000008152508160039080519060200190620000ad92919062000266565b508060049080519060200190620000c692919062000266565b505050620000db8282620000e360201b60201c565b505062000599565b600073ffffffffffffffffffffffffffffffffffffffff168273ffffffffffffffffffffffffffffffffffffffff16141562000156576040517f08c379a00000000000000000000000000000000000000000000000000000000081526004016200014d90620003bd565b60405180910390fd5b6200016a600083836200025c60201b60201c565b80600260008282546200017e91906200040d565b92505081905550806000808473ffffffffffffffffffffffffffffffffffffffff1673ffffffffffffffffffffffffffffffffffffffff1681526020019081526020016000206000828254620001d591906200040d565b925050819055508173ffffffffffffffffffffffffffffffffffffffff16600073ffffffffffffffffffffffffffffffffffffffff167fddf252ad1be2c89b69c2b068fc378daa952ba7f163c4a11628f55a4df523b3ef836040516200023c9190620003df565b60405180910390a362000258600083836200026160201b60201c565b5050565b505050565b505050565b8280546200027490620004a8565b90600052602060002090601f016020900481019282620002985760008555620002e4565b82601f10620002b357805160ff1916838001178555620002e4565b82800160010185558215620002e4579182015b82811115620002e3578251825591602001919060010190620002c6565b5b509050620002f39190620002f7565b5090565b5b8082111562000312576000816000905550600101620002f8565b5090565b600081519050620003278162000565565b92915050565b6000815190506200033e816200057f565b92915050565b600080604083850312156200035857600080fd5b6000620003688582860162000316565b92505060206200037b858286016200032d565b9150509250929050565b600062000394601f83620003fc565b9150620003a1826200053c565b602082019050919050565b620003b7816200049e565b82525050565b60006020820190508181036000830152620003d88162000385565b9050919050565b6000602082019050620003f66000830184620003ac565b92915050565b600082825260208201905092915050565b60006200041a826200049e565b915062000427836200049e565b9250827fffffffffffffffffffffffffffffffffffffffffffffffffffffffffffffffff038211156200045f576200045e620004de565b5b828201905092915050565b600062000477826200047e565b9050919050565b600073ffffffffffffffffffffffffffffffffffffffff82169050919050565b6000819050919050565b60006002820490506001821680620004c157607f821691505b60208210811415620004d857620004d76200050d565b5b50919050565b7f4e487b7100000000000000000000000000000000000000000000000000000000600052601160045260246000fd5b7f4e487b7100000000000000000000000000000000000000000000000000000000600052602260045260246000fd5b7f45524332303a206d696e7420746f20746865207a65726f206164647265737300600082015250565b62000570816200046a565b81146200057c57600080fd5b50565b6200058a816200049e565b81146200059657600080fd5b50565b6116f780620005a96000396000f3fe6080604052600436106100e15760003560e01c806370a082311161007f578063a457c2d711610059578063a457c2d7146102e7578063a9059cbb14610324578063dd62ed3e14610361578063f8a8fd6d1461039e576100f3565b806370a082311461027557806395d89b41146102b2578063a25eb5d9146102dd576100f3565b806323b872dd116100bb57806323b872dd14610193578063313ce567146101d057806339509351146101fb5780636ba6178214610238576100f3565b806306fdde0314610100578063095ea7b31461012b57806318160ddd14610168576100f3565b366100f3576100f13460666103c9565b005b6100fe3460656103c9565b005b34801561010c57600080fd5b50610115610424565b6040516101229190611197565b60405180910390f35b34801561013757600080fd5b50610152600480360381019061014d9190610f4d565b6104b6565b60405161015f919061117c565b60405180910390f35b34801561017457600080fd5b5061017d6104d4565b60405161018a9190611299565b60405180910390f35b34801561019f57600080fd5b506101ba60048036038101906101b59190610efe565b6104de565b6040516101c7919061117c565b60405180910390f35b3480156101dc57600080fd5b506101e56105d6565b6040516101f291906112b4565b60405180910390f35b34801561020757600080fd5b50610222600480360381019061021d9190610f4d565b6105df565b60405161022f919061117c565b60405180910390f35b34801561024457600080fd5b5061025f600480360381019061025a9190610f89565b61068b565b60405161026c9190611299565b60405180910390f35b34801561028157600080fd5b5061029c60048036038101906102979190610e99565b6106a1565b6040516102a99190611299565b60405180910390f35b3480156102be57600080fd5b506102c76106e9565b6040516102d49190611197565b60405180910390f35b6102e561077b565b005b3480156102f357600080fd5b5061030e60048036038101906103099190610f4d565b610788565b60405161031b919061117c565b60405180910390f35b34801561033057600080fd5b5061034b60048036038101906103469190610f4d565b610873565b604051610358919061117c565b60405180910390f35b34801561036d57600080fd5b5061038860048036038101906103839190610ec2565b610891565b6040516103959190611299565b60405180910390f35b3480156103aa57600080fd5b506103b3610918565b6040516103c0919061111c565b60405180910390f35b6103db306103d5610937565b8461093f565b507f70ee46485b987eaf472c55908dc22ab5db176b6125c52401cb86bbfc91cb5c5f610405610937565b3084846040516104189493929190611137565b60405180910390a15050565b606060038054610433906113c9565b80601f016020809104026020016040519081016040528092919081815260200182805461045f906113c9565b80156104ac5780601f10610481576101008083540402835291602001916104ac565b820191906000526020600020905b81548152906001019060200180831161048f57829003601f168201915b5050505050905090565b60006104ca6104c3610937565b8484610957565b6001905092915050565b6000600254905090565b60006104eb848484610b22565b6000600160008673ffffffffffffffffffffffffffffffffffffffff1673ffffffffffffffffffffffffffffffffffffffff1681526020019081526020016000206000610536610937565b73ffffffffffffffffffffffffffffffffffffffff1673ffffffffffffffffffffffffffffffffffffffff168152602001908152602001600020549050828110156105b6576040517f08c379a00000000000000000000000000000000000000000000000000000000081526004016105ad90611219565b60405180910390fd5b6105ca856105c2610937565b858403610957565b60019150509392505050565b60006012905090565b60006106816105ec610937565b8484600160006105fa610937565b73ffffffffffffffffffffffffffffffffffffffff1673ffffffffffffffffffffffffffffffffffffffff16815260200190815260200160002060008873ffffffffffffffffffffffffffffffffffffffff1673ffffffffffffffffffffffffffffffffffffffff1681526020019081526020016000205461067c91906112eb565b610957565b6001905092915050565b600060148261069a91906112eb565b9050919050565b60008060008373ffffffffffffffffffffffffffffffffffffffff1673ffffffffffffffffffffffffffffffffffffffff168152602001908152602001600020549050919050565b6060600480546106f8906113c9565b80601f0160208091040260200160405190810160405280929190818152602001828054610724906113c9565b80156107715780601f1061074657610100808354040283529160200191610771565b820191906000526020600020905b81548152906001019060200180831161075457829003601f168201915b5050505050905090565b6107863460676103c9565b565b60008060016000610797610937565b73ffffffffffffffffffffffffffffffffffffffff1673ffffffffffffffffffffffffffffffffffffffff16815260200190815260200160002060008573ffffffffffffffffffffffffffffffffffffffff1673ffffffffffffffffffffffffffffffffffffffff16815260200190815260200160002054905082811015610854576040517f08c379a000000000000000000000000000000000000000000000000000000000815260040161084b90611279565b60405180910390fd5b61086861085f610937565b85858403610957565b600191505092915050565b6000610887610880610937565b8484610b22565b6001905092915050565b6000600160008473ffffffffffffffffffffffffffffffffffffffff1673ffffffffffffffffffffffffffffffffffffffff16815260200190815260200160002060008373ffffffffffffffffffffffffffffffffffffffff1673ffffffffffffffffffffffffffffffffffffffff16815260200190815260200160002054905092915050565b600061092a610925610937565b610da3565b610932610937565b905090565b600033905090565b600061094c848484610b22565b600190509392505050565b600073ffffffffffffffffffffffffffffffffffffffff168373ffffffffffffffffffffffffffffffffffffffff1614156109c7576040517f08c379a00000000000000000000000000000000000000000000000000000000081526004016109be90611259565b60405180910390fd5b600073ffffffffffffffffffffffffffffffffffffffff168273ffffffffffffffffffffffffffffffffffffffff161415610a37576040517f08c379a0000000000000000000000000000000000000000000000000000000008152600401610a2e906111d9565b60405180910390fd5b80600160008573ffffffffffffffffffffffffffffffffffffffff1673ffffffffffffffffffffffffffffffffffffffff16815260200190815260200160002060008473ffffffffffffffffffffffffffffffffffffffff1673ffffffffffffffffffffffffffffffffffffffff168152602001908152602001600020819055508173ffffffffffffffffffffffffffffffffffffffff168373ffffffffffffffffffffffffffffffffffffffff167f8c5be1e5ebec7d5bd14f71427d1e84f3dd0314c0f7b2291e5b200ac8c7c3b92583604051610b159190611299565b60405180910390a3505050565b600073ffffffffffffffffffffffffffffffffffffffff168373ffffffffffffffffffffffffffffffffffffffff161415610b92576040517f08c379a0000000000000000000000000000000000000000000000000000000008152600401610b8990611239565b60405180910390fd5b600073ffffffffffffffffffffffffffffffffffffffff168273ffffffffffffffffffffffffffffffffffffffff161415610c02576040517f08c379a0000000000000000000000000000000000000000000000000000000008152600401610bf9906111b9565b60405180910390fd5b610c0d838383610e3c565b60008060008573ffffffffffffffffffffffffffffffffffffffff1673ffffffffffffffffffffffffffffffffffffffff16815260200190815260200160002054905081811015610c93576040517f08c379a0000000000000000000000000000000000000000000000000000000008152600401610c8a906111f9565b60405180910390fd5b8181036000808673ffffffffffffffffffffffffffffffffffffffff1673ffffffffffffffffffffffffffffffffffffffff16815260200190815260200160002081905550816000808573ffffffffffffffffffffffffffffffffffffffff1673ffffffffffffffffffffffffffffffffffffffff1681526020019081526020016000206000828254610d2691906112eb565b925050819055508273ffffffffffffffffffffffffffffffffffffffff168473ffffffffffffffffffffffffffffffffffffffff167fddf252ad1be2c89b69c2b068fc378daa952ba7f163c4a11628f55a4df523b3ef84604051610d8a9190611299565b60405180910390a3610d9d848484610e41565b50505050565b610e3981604051602401610db7919061111c565b6040516020818303038152906040527f2c2ecbc2000000000000000000000000000000000000000000000000000000007bffffffffffffffffffffffffffffffffffffffffffffffffffffffff19166020820180517bffffffffffffffffffffffffffffffffffffffffffffffffffffffff8381831617835250505050610e46565b50565b505050565b505050565b60008151905060006a636f6e736f6c652e6c6f679050602083016000808483855afa5050505050565b600081359050610e7e81611693565b92915050565b600081359050610e93816116aa565b92915050565b600060208284031215610eab57600080fd5b6000610eb984828501610e6f565b91505092915050565b60008060408385031215610ed557600080fd5b6000610ee385828601610e6f565b9250506020610ef485828601610e6f565b9150509250929050565b600080600060608486031215610f1357600080fd5b6000610f2186828701610e6f565b9350506020610f3286828701610e6f565b9250506040610f4386828701610e84565b9150509250925092565b60008060408385031215610f6057600080fd5b6000610f6e85828601610e6f565b9250506020610f7f85828601610e84565b9150509250929050565b600060208284031215610f9b57600080fd5b6000610fa984828501610e84565b91505092915050565b610fbb81611341565b82525050565b610fca81611353565b82525050565b6000610fdb826112cf565b610fe581856112da565b9350610ff5818560208601611396565b610ffe81611459565b840191505092915050565b60006110166023836112da565b91506110218261146a565b604082019050919050565b60006110396022836112da565b9150611044826114b9565b604082019050919050565b600061105c6026836112da565b915061106782611508565b604082019050919050565b600061107f6028836112da565b915061108a82611557565b604082019050919050565b60006110a26025836112da565b91506110ad826115a6565b604082019050919050565b60006110c56024836112da565b91506110d0826115f5565b604082019050919050565b60006110e86025836112da565b91506110f382611644565b604082019050919050565b6111078161137f565b82525050565b61111681611389565b82525050565b60006020820190506111316000830184610fb2565b92915050565b600060808201905061114c6000830187610fb2565b6111596020830186610fb2565b61116660408301856110fe565b61117360608301846110fe565b95945050505050565b60006020820190506111916000830184610fc1565b92915050565b600060208201905081810360008301526111b18184610fd0565b905092915050565b600060208201905081810360008301526111d281611009565b9050919050565b600060208201905081810360008301526111f28161102c565b9050919050565b600060208201905081810360008301526112128161104f565b9050919050565b6000602082019050818103600083015261123281611072565b9050919050565b6000602082019050818103600083015261125281611095565b9050919050565b60006020820190508181036000830152611272816110b8565b9050919050565b60006020820190508181036000830152611292816110db565b9050919050565b60006020820190506112ae60008301846110fe565b92915050565b60006020820190506112c9600083018461110d565b92915050565b600081519050919050565b600082825260208201905092915050565b60006112f68261137f565b91506113018361137f565b9250827fffffffffffffffffffffffffffffffffffffffffffffffffffffffffffffffff03821115611336576113356113fb565b5b828201905092915050565b600061134c8261135f565b9050919050565b60008115159050919050565b600073ffffffffffffffffffffffffffffffffffffffff82169050919050565b6000819050919050565b600060ff82169050919050565b60005b838110156113b4578082015181840152602081019050611399565b838111156113c3576000848401525b50505050565b600060028204905060018216806113e157607f821691505b602082108114156113f5576113f461142a565b5b50919050565b7f4e487b7100000000000000000000000000000000000000000000000000000000600052601160045260246000fd5b7f4e487b7100000000000000000000000000000000000000000000000000000000600052602260045260246000fd5b6000601f19601f8301169050919050565b7f45524332303a207472616e7366657220746f20746865207a65726f206164647260008201527f6573730000000000000000000000000000000000000000000000000000000000602082015250565b7f45524332303a20617070726f766520746f20746865207a65726f20616464726560008201527f7373000000000000000000000000000000000000000000000000000000000000602082015250565b7f45524332303a207472616e7366657220616d6f756e742065786365656473206260008201527f616c616e63650000000000000000000000000000000000000000000000000000602082015250565b7f45524332303a207472616e7366657220616d6f756e742065786365656473206160008201527f6c6c6f77616e6365000000000000000000000000000000000000000000000000602082015250565b7f45524332303a207472616e736665722066726f6d20746865207a65726f20616460008201527f6472657373000000000000000000000000000000000000000000000000000000602082015250565b7f45524332303a20617070726f76652066726f6d20746865207a65726f2061646460008201527f7265737300000000000000000000000000000000000000000000000000000000602082015250565b7f45524332303a2064656372656173656420616c6c6f77616e63652062656c6f7760008201527f207a65726f000000000000000000000000000000000000000000000000000000602082015250565b61169c81611341565b81146116a757600080fd5b50565b6116b38161137f565b81146116be57600080fd5b5056fea26469706673582212204618a2fd4f26d6919d2dabc5d922279389ad63044351dba5e6ab0d55b73877e964736f6c63430008040033",
  "linkReferences": {},
  "deployedLinkReferences": {}
}