{
  "_format": "hh-sol-artifact-1",
  "contractName": "Yuteng",
  "sourceName": "contracts/Yuteng.sol",
  "abi": [
    {
      "inputs": [
        {
          "internalType": "address",
          "name": "owner",
          "type": "address"
        },
        {
          "internalType": "uint256",
          "name": "initTotalSupply",
          "type": "uint256"
        }
      ],
      "stateMutability": "payable",
      "type": "constructor"
    },
    {
      "anonymous": false,
      "inputs": [
        {
          "indexed": true,
          "internalType": "address",
          "name": "owner",
          "type": "address"
        },
        {
          "indexed": true,
          "internalType": "address",
          "name": "spender",
          "type": "address"
        },
        {
          "indexed": false,
          "internalType": "uint256",
          "name": "value",
          "type": "uint256"
        }
      ],
      "name": "Approval",
      "type": "event"
    },
    {
      "anonymous": false,
      "inputs": [
        {
          "indexed": false,
          "internalType": "address",
          "name": "from",
          "type": "address"
        },
        {
          "indexed": false,
          "internalType": "address",
          "name": "to",
          "type": "address"
        },
        {
          "indexed": false,
          "internalType": "uint256",
          "name": "value",
          "type": "uint256"
        },
        {
          "indexed": false,
          "internalType": "uint256",
          "name": "number",
          "type": "uint256"
        }
      ],
      "name": "SendBalance",
      "type": "event"
    },
    {
      "anonymous": false,
      "inputs": [
        {
          "indexed": true,
          "internalType": "address",
          "name": "from",
          "type": "address"
        },
        {
          "indexed": true,
          "internalType": "address",
          "name": "to",
          "type": "address"
        },
        {
          "indexed": false,
          "internalType": "uint256",
          "name": "value",
          "type": "uint256"
        }
      ],
      "name": "Transfer",
      "type": "event"
    },
    {
      "stateMutability": "payable",
      "type": "fallback"
    },
    {
      "inputs": [
        {
          "internalType": "address",
          "name": "owner",
          "type": "address"
        },
        {
          "internalType": "address",
          "name": "spender",
          "type": "address"
        }
      ],
      "name": "allowance",
      "outputs": [
        {
          "internalType": "uint256",
          "name": "",
          "type": "uint256"
        }
      ],
      "stateMutability": "view",
      "type": "function"
    },
    {
      "inputs": [
        {
          "internalType": "address",
          "name": "spender",
          "type": "address"
        },
        {
          "internalType": "uint256",
          "name": "amount",
          "type": "uint256"
        }
      ],
      "name": "approve",
      "outputs": [
        {
          "internalType": "bool",
          "name": "",
          "type": "bool"
        }
      ],
      "stateMutability": "nonpayable",
      "type": "function"
    },
    {
      "inputs": [
        {
          "internalType": "address",
          "name": "account",
          "type": "address"
        }
      ],
      "name": "balanceOf",
      "outputs": [
        {
          "internalType": "uint256",
          "name": "",
          "type": "uint256"
        }
      ],
      "stateMutability": "view",
      "type": "function"
    },
    {
      "inputs": [],
      "name": "decimals",
      "outputs": [
        {
          "internalType": "uint8",
          "name": "",
          "type": "uint8"
        }
      ],
      "stateMutability": "view",
      "type": "function"
    },
    {
      "inputs": [
        {
          "internalType": "address",
          "name": "spender",
          "type": "address"
        },
        {
          "internalType": "uint256",
          "name": "subtractedValue",
          "type": "uint256"
        }
      ],
      "name": "decreaseAllowance",
      "outputs": [
        {
          "internalType": "bool",
          "name": "",
          "type": "bool"
        }
      ],
      "stateMutability": "nonpayable",
      "type": "function"
    },
    {
      "inputs": [],
      "name": "exchangeToken",
      "outputs": [],
      "stateMutability": "payable",
      "type": "function"
    },
    {
      "inputs": [
        {
          "internalType": "address",
          "name": "spender",
          "type": "address"
        },
        {
          "internalType": "uint256",
          "name": "addedValue",
          "type": "uint256"
        }
      ],
      "name": "increaseAllowance",
      "outputs": [
        {
          "internalType": "bool",
          "name": "",
          "type": "bool"
        }
      ],
      "stateMutability": "nonpayable",
      "type": "function"
    },
    {
      "inputs": [],
      "name": "name",
      "outputs": [
        {
          "internalType": "string",
          "name": "",
          "type": "string"
        }
      ],
      "stateMutability": "view",
      "type": "function"
    },
    {
      "inputs": [],
      "name": "symbol",
      "outputs": [
        {
          "internalType": "string",
          "name": "",
          "type": "string"
        }
      ],
      "stateMutability": "view",
      "type": "function"
    },
    {
      "inputs": [],
      "name": "totalSupply",
      "outputs": [
        {
          "internalType": "uint256",
          "name": "",
          "type": "uint256"
        }
      ],
      "stateMutability": "view",
      "type": "function"
    },
    {
      "inputs": [
        {
          "internalType": "address",
          "name": "recipient",
          "type": "address"
        },
        {
          "internalType": "uint256",
          "name": "amount",
          "type": "uint256"
        }
      ],
      "name": "transfer",
      "outputs": [
        {
          "internalType": "bool",
          "name": "",
          "type": "bool"
        }
      ],
      "stateMutability": "nonpayable",
      "type": "function"
    },
    {
      "inputs": [
        {
          "internalType": "address",
          "name": "sender",
          "type": "address"
        },
        {
          "internalType": "address",
          "name": "recipient",
          "type": "address"
        },
        {
          "internalType": "uint256",
          "name": "amount",
          "type": "uint256"
        }
      ],
      "name": "transferFrom",
      "outputs": [
        {
          "internalType": "bool",
          "name": "",
          "type": "bool"
        }
      ],
      "stateMutability": "nonpayable",
      "type": "function"
    },
    {
      "stateMutability": "payable",
      "type": "receive"
    }
  ],
  "bytecode": "0x608060405260405162001b4c38038062001b4c833981810160405281019062000029919062000385565b6040518060400160405280600c81526020017f597554656e6720546f6b656e00000000000000000000000000000000000000008152506040518060400160405280600381526020017f59544300000000000000000000000000000000000000000000000000000000008152508160039080519060200190620000ad929190620002a7565b508060049080519060200190620000c6929190620002a7565b505050620000db82826200012460201b60201c565b81600560006101000a81548173ffffffffffffffffffffffffffffffffffffffff021916908373ffffffffffffffffffffffffffffffffffffffff1602179055505050620005da565b600073ffffffffffffffffffffffffffffffffffffffff168273ffffffffffffffffffffffffffffffffffffffff16141562000197576040517f08c379a00000000000000000000000000000000000000000000000000000000081526004016200018e90620003fe565b60405180910390fd5b620001ab600083836200029d60201b60201c565b8060026000828254620001bf91906200044e565b92505081905550806000808473ffffffffffffffffffffffffffffffffffffffff1673ffffffffffffffffffffffffffffffffffffffff16815260200190815260200160002060008282546200021691906200044e565b925050819055508173ffffffffffffffffffffffffffffffffffffffff16600073ffffffffffffffffffffffffffffffffffffffff167fddf252ad1be2c89b69c2b068fc378daa952ba7f163c4a11628f55a4df523b3ef836040516200027d919062000420565b60405180910390a36200029960008383620002a260201b60201c565b5050565b505050565b505050565b828054620002b590620004e9565b90600052602060002090601f016020900481019282620002d9576000855562000325565b82601f10620002f457805160ff191683800117855562000325565b8280016001018555821562000325579182015b828111156200032457825182559160200191906001019062000307565b5b50905062000334919062000338565b5090565b5b808211156200035357600081600090555060010162000339565b5090565b6000815190506200036881620005a6565b92915050565b6000815190506200037f81620005c0565b92915050565b600080604083850312156200039957600080fd5b6000620003a98582860162000357565b9250506020620003bc858286016200036e565b9150509250929050565b6000620003d5601f836200043d565b9150620003e2826200057d565b602082019050919050565b620003f881620004df565b82525050565b600060208201905081810360008301526200041981620003c6565b9050919050565b6000602082019050620004376000830184620003ed565b92915050565b600082825260208201905092915050565b60006200045b82620004df565b91506200046883620004df565b9250827fffffffffffffffffffffffffffffffffffffffffffffffffffffffffffffffff03821115620004a0576200049f6200051f565b5b828201905092915050565b6000620004b882620004bf565b9050919050565b600073ffffffffffffffffffffffffffffffffffffffff82169050919050565b6000819050919050565b600060028204905060018216806200050257607f821691505b602082108114156200051957620005186200054e565b5b50919050565b7f4e487b7100000000000000000000000000000000000000000000000000000000600052601160045260246000fd5b7f4e487b7100000000000000000000000000000000000000000000000000000000600052602260045260246000fd5b7f45524332303a206d696e7420746f20746865207a65726f206164647265737300600082015250565b620005b181620004ab565b8114620005bd57600080fd5b50565b620005cb81620004df565b8114620005d757600080fd5b50565b61156280620005ea6000396000f3fe6080604052600436106100ab5760003560e01c806370a082311161006457806370a082311461020257806395d89b411461023f578063a25eb5d91461026a578063a457c2d714610274578063a9059cbb146102b1578063dd62ed3e146102ee576100bd565b806306fdde03146100ca578063095ea7b3146100f557806318160ddd1461013257806323b872dd1461015d578063313ce5671461019a57806339509351146101c5576100bd565b366100bd576100bb34606661032b565b005b6100c834606561032b565b005b3480156100d657600080fd5b506100df6103ca565b6040516100ec9190611002565b60405180910390f35b34801561010157600080fd5b5061011c60048036038101906101179190610dfc565b61045c565b6040516101299190610fe7565b60405180910390f35b34801561013e57600080fd5b5061014761047a565b6040516101549190611104565b60405180910390f35b34801561016957600080fd5b50610184600480360381019061017f9190610dad565b610484565b6040516101919190610fe7565b60405180910390f35b3480156101a657600080fd5b506101af61057c565b6040516101bc919061111f565b60405180910390f35b3480156101d157600080fd5b506101ec60048036038101906101e79190610dfc565b610585565b6040516101f99190610fe7565b60405180910390f35b34801561020e57600080fd5b5061022960048036038101906102249190610d48565b610631565b6040516102369190611104565b60405180910390f35b34801561024b57600080fd5b50610254610679565b6040516102619190611002565b60405180910390f35b61027261070b565b005b34801561028057600080fd5b5061029b60048036038101906102969190610dfc565b610718565b6040516102a89190610fe7565b60405180910390f35b3480156102bd57600080fd5b506102d860048036038101906102d39190610dfc565b610803565b6040516102e59190610fe7565b60405180910390f35b3480156102fa57600080fd5b5061031560048036038101906103109190610d71565b610821565b6040516103229190611104565b60405180910390f35b61035f600560009054906101000a900473ffffffffffffffffffffffffffffffffffffffff166103596108a8565b846108b0565b507f70ee46485b987eaf472c55908dc22ab5db176b6125c52401cb86bbfc91cb5c5f6103896108a8565b600560009054906101000a900473ffffffffffffffffffffffffffffffffffffffff1684846040516103be9493929190610fa2565b60405180910390a15050565b6060600380546103d990611234565b80601f016020809104026020016040519081016040528092919081815260200182805461040590611234565b80156104525780601f1061042757610100808354040283529160200191610452565b820191906000526020600020905b81548152906001019060200180831161043557829003601f168201915b5050505050905090565b60006104706104696108a8565b84846108c8565b6001905092915050565b6000600254905090565b6000610491848484610a93565b6000600160008673ffffffffffffffffffffffffffffffffffffffff1673ffffffffffffffffffffffffffffffffffffffff16815260200190815260200160002060006104dc6108a8565b73ffffffffffffffffffffffffffffffffffffffff1673ffffffffffffffffffffffffffffffffffffffff1681526020019081526020016000205490508281101561055c576040517f08c379a000000000000000000000000000000000000000000000000000000000815260040161055390611084565b60405180910390fd5b610570856105686108a8565b8584036108c8565b60019150509392505050565b60006012905090565b60006106276105926108a8565b8484600160006105a06108a8565b73ffffffffffffffffffffffffffffffffffffffff1673ffffffffffffffffffffffffffffffffffffffff16815260200190815260200160002060008873ffffffffffffffffffffffffffffffffffffffff1673ffffffffffffffffffffffffffffffffffffffff168152602001908152602001600020546106229190611156565b6108c8565b6001905092915050565b60008060008373ffffffffffffffffffffffffffffffffffffffff1673ffffffffffffffffffffffffffffffffffffffff168152602001908152602001600020549050919050565b60606004805461068890611234565b80601f01602080910402602001604051908101604052809291908181526020018280546106b490611234565b80156107015780601f106106d657610100808354040283529160200191610701565b820191906000526020600020905b8154815290600101906020018083116106e457829003601f168201915b5050505050905090565b61071634606761032b565b565b600080600160006107276108a8565b73ffffffffffffffffffffffffffffffffffffffff1673ffffffffffffffffffffffffffffffffffffffff16815260200190815260200160002060008573ffffffffffffffffffffffffffffffffffffffff1673ffffffffffffffffffffffffffffffffffffffff168152602001908152602001600020549050828110156107e4576040517f08c379a00000000000000000000000000000000000000000000000000000000081526004016107db906110e4565b60405180910390fd5b6107f86107ef6108a8565b858584036108c8565b600191505092915050565b60006108176108106108a8565b8484610a93565b6001905092915050565b6000600160008473ffffffffffffffffffffffffffffffffffffffff1673ffffffffffffffffffffffffffffffffffffffff16815260200190815260200160002060008373ffffffffffffffffffffffffffffffffffffffff1673ffffffffffffffffffffffffffffffffffffffff16815260200190815260200160002054905092915050565b600033905090565b60006108bd848484610a93565b600190509392505050565b600073ffffffffffffffffffffffffffffffffffffffff168373ffffffffffffffffffffffffffffffffffffffff161415610938576040517f08c379a000000000000000000000000000000000000000000000000000000000815260040161092f906110c4565b60405180910390fd5b600073ffffffffffffffffffffffffffffffffffffffff168273ffffffffffffffffffffffffffffffffffffffff1614156109a8576040517f08c379a000000000000000000000000000000000000000000000000000000000815260040161099f90611044565b60405180910390fd5b80600160008573ffffffffffffffffffffffffffffffffffffffff1673ffffffffffffffffffffffffffffffffffffffff16815260200190815260200160002060008473ffffffffffffffffffffffffffffffffffffffff1673ffffffffffffffffffffffffffffffffffffffff168152602001908152602001600020819055508173ffffffffffffffffffffffffffffffffffffffff168373ffffffffffffffffffffffffffffffffffffffff167f8c5be1e5ebec7d5bd14f71427d1e84f3dd0314c0f7b2291e5b200ac8c7c3b92583604051610a869190611104565b60405180910390a3505050565b600073ffffffffffffffffffffffffffffffffffffffff168373ffffffffffffffffffffffffffffffffffffffff161415610b03576040517f08c379a0000000000000000000000000000000000000000000000000000000008152600401610afa906110a4565b60405180910390fd5b600073ffffffffffffffffffffffffffffffffffffffff168273ffffffffffffffffffffffffffffffffffffffff161415610b73576040517f08c379a0000000000000000000000000000000000000000000000000000000008152600401610b6a90611024565b60405180910390fd5b610b7e838383610d14565b60008060008573ffffffffffffffffffffffffffffffffffffffff1673ffffffffffffffffffffffffffffffffffffffff16815260200190815260200160002054905081811015610c04576040517f08c379a0000000000000000000000000000000000000000000000000000000008152600401610bfb90611064565b60405180910390fd5b8181036000808673ffffffffffffffffffffffffffffffffffffffff1673ffffffffffffffffffffffffffffffffffffffff16815260200190815260200160002081905550816000808573ffffffffffffffffffffffffffffffffffffffff1673ffffffffffffffffffffffffffffffffffffffff1681526020019081526020016000206000828254610c979190611156565b925050819055508273ffffffffffffffffffffffffffffffffffffffff168473ffffffffffffffffffffffffffffffffffffffff167fddf252ad1be2c89b69c2b068fc378daa952ba7f163c4a11628f55a4df523b3ef84604051610cfb9190611104565b60405180910390a3610d0e848484610d19565b50505050565b505050565b505050565b600081359050610d2d816114fe565b92915050565b600081359050610d4281611515565b92915050565b600060208284031215610d5a57600080fd5b6000610d6884828501610d1e565b91505092915050565b60008060408385031215610d8457600080fd5b6000610d9285828601610d1e565b9250506020610da385828601610d1e565b9150509250929050565b600080600060608486031215610dc257600080fd5b6000610dd086828701610d1e565b9350506020610de186828701610d1e565b9250506040610df286828701610d33565b9150509250925092565b60008060408385031215610e0f57600080fd5b6000610e1d85828601610d1e565b9250506020610e2e85828601610d33565b9150509250929050565b610e41816111ac565b82525050565b610e50816111be565b82525050565b6000610e618261113a565b610e6b8185611145565b9350610e7b818560208601611201565b610e84816112c4565b840191505092915050565b6000610e9c602383611145565b9150610ea7826112d5565b604082019050919050565b6000610ebf602283611145565b9150610eca82611324565b604082019050919050565b6000610ee2602683611145565b9150610eed82611373565b604082019050919050565b6000610f05602883611145565b9150610f10826113c2565b604082019050919050565b6000610f28602583611145565b9150610f3382611411565b604082019050919050565b6000610f4b602483611145565b9150610f5682611460565b604082019050919050565b6000610f6e602583611145565b9150610f79826114af565b604082019050919050565b610f8d816111ea565b82525050565b610f9c816111f4565b82525050565b6000608082019050610fb76000830187610e38565b610fc46020830186610e38565b610fd16040830185610f84565b610fde6060830184610f84565b95945050505050565b6000602082019050610ffc6000830184610e47565b92915050565b6000602082019050818103600083015261101c8184610e56565b905092915050565b6000602082019050818103600083015261103d81610e8f565b9050919050565b6000602082019050818103600083015261105d81610eb2565b9050919050565b6000602082019050818103600083015261107d81610ed5565b9050919050565b6000602082019050818103600083015261109d81610ef8565b9050919050565b600060208201905081810360008301526110bd81610f1b565b9050919050565b600060208201905081810360008301526110dd81610f3e565b9050919050565b600060208201905081810360008301526110fd81610f61565b9050919050565b60006020820190506111196000830184610f84565b92915050565b60006020820190506111346000830184610f93565b92915050565b600081519050919050565b600082825260208201905092915050565b6000611161826111ea565b915061116c836111ea565b9250827fffffffffffffffffffffffffffffffffffffffffffffffffffffffffffffffff038211156111a1576111a0611266565b5b828201905092915050565b60006111b7826111ca565b9050919050565b60008115159050919050565b600073ffffffffffffffffffffffffffffffffffffffff82169050919050565b6000819050919050565b600060ff82169050919050565b60005b8381101561121f578082015181840152602081019050611204565b8381111561122e576000848401525b50505050565b6000600282049050600182168061124c57607f821691505b602082108114156112605761125f611295565b5b50919050565b7f4e487b7100000000000000000000000000000000000000000000000000000000600052601160045260246000fd5b7f4e487b7100000000000000000000000000000000000000000000000000000000600052602260045260246000fd5b6000601f19601f8301169050919050565b7f45524332303a207472616e7366657220746f20746865207a65726f206164647260008201527f6573730000000000000000000000000000000000000000000000000000000000602082015250565b7f45524332303a20617070726f766520746f20746865207a65726f20616464726560008201527f7373000000000000000000000000000000000000000000000000000000000000602082015250565b7f45524332303a207472616e7366657220616d6f756e742065786365656473206260008201527f616c616e63650000000000000000000000000000000000000000000000000000602082015250565b7f45524332303a207472616e7366657220616d6f756e742065786365656473206160008201527f6c6c6f77616e6365000000000000000000000000000000000000000000000000602082015250565b7f45524332303a207472616e736665722066726f6d20746865207a65726f20616460008201527f6472657373000000000000000000000000000000000000000000000000000000602082015250565b7f45524332303a20617070726f76652066726f6d20746865207a65726f2061646460008201527f7265737300000000000000000000000000000000000000000000000000000000602082015250565b7f45524332303a2064656372656173656420616c6c6f77616e63652062656c6f7760008201527f207a65726f000000000000000000000000000000000000000000000000000000602082015250565b611507816111ac565b811461151257600080fd5b50565b61151e816111ea565b811461152957600080fd5b5056fea2646970667358221220408627b41ba1eafacda5af6b132105f578720fcc8512540be63a2be99df829ff64736f6c63430008040033",
  "linkReferences": {},
  "deployedLinkReferences": {}
}