{
  "_format": "hh-sol-artifact-1",
  "contractName": "Yuteng",
  "sourceName": "contracts/Yuteng.sol",
  "abi": [
    {
      "inputs": [
        {
          "internalType": "address",
          "name": "owner",
          "type": "address"
        },
        {
          "internalType": "uint256",
          "name": "initTotalSupply",
          "type": "uint256"
        }
      ],
      "stateMutability": "payable",
      "type": "constructor"
    },
    {
      "anonymous": false,
      "inputs": [
        {
          "indexed": true,
          "internalType": "address",
          "name": "owner",
          "type": "address"
        },
        {
          "indexed": true,
          "internalType": "address",
          "name": "spender",
          "type": "address"
        },
        {
          "indexed": false,
          "internalType": "uint256",
          "name": "value",
          "type": "uint256"
        }
      ],
      "name": "Approval",
      "type": "event"
    },
    {
      "anonymous": false,
      "inputs": [
        {
          "indexed": false,
          "internalType": "address",
          "name": "from",
          "type": "address"
        },
        {
          "indexed": false,
          "internalType": "address",
          "name": "to",
          "type": "address"
        },
        {
          "indexed": false,
          "internalType": "uint256",
          "name": "value",
          "type": "uint256"
        },
        {
          "indexed": false,
          "internalType": "uint256",
          "name": "number",
          "type": "uint256"
        }
      ],
      "name": "SendBalance",
      "type": "event"
    },
    {
      "anonymous": false,
      "inputs": [
        {
          "indexed": true,
          "internalType": "address",
          "name": "from",
          "type": "address"
        },
        {
          "indexed": true,
          "internalType": "address",
          "name": "to",
          "type": "address"
        },
        {
          "indexed": false,
          "internalType": "uint256",
          "name": "value",
          "type": "uint256"
        }
      ],
      "name": "Transfer",
      "type": "event"
    },
    {
      "stateMutability": "payable",
      "type": "fallback"
    },
    {
      "inputs": [
        {
          "internalType": "address",
          "name": "owner",
          "type": "address"
        },
        {
          "internalType": "address",
          "name": "spender",
          "type": "address"
        }
      ],
      "name": "allowance",
      "outputs": [
        {
          "internalType": "uint256",
          "name": "",
          "type": "uint256"
        }
      ],
      "stateMutability": "view",
      "type": "function"
    },
    {
      "inputs": [
        {
          "internalType": "address",
          "name": "spender",
          "type": "address"
        },
        {
          "internalType": "uint256",
          "name": "amount",
          "type": "uint256"
        }
      ],
      "name": "approve",
      "outputs": [
        {
          "internalType": "bool",
          "name": "",
          "type": "bool"
        }
      ],
      "stateMutability": "nonpayable",
      "type": "function"
    },
    {
      "inputs": [
        {
          "internalType": "address",
          "name": "_spender",
          "type": "address"
        },
        {
          "internalType": "uint256",
          "name": "_amount",
          "type": "uint256"
        },
        {
          "internalType": "bytes",
          "name": "_extraData",
          "type": "bytes"
        }
      ],
      "name": "approveAndCall",
      "outputs": [
        {
          "internalType": "bool",
          "name": "success",
          "type": "bool"
        }
      ],
      "stateMutability": "nonpayable",
      "type": "function"
    },
    {
      "inputs": [
        {
          "internalType": "address",
          "name": "account",
          "type": "address"
        }
      ],
      "name": "balanceOf",
      "outputs": [
        {
          "internalType": "uint256",
          "name": "",
          "type": "uint256"
        }
      ],
      "stateMutability": "view",
      "type": "function"
    },
    {
      "inputs": [],
      "name": "decimals",
      "outputs": [
        {
          "internalType": "uint8",
          "name": "",
          "type": "uint8"
        }
      ],
      "stateMutability": "view",
      "type": "function"
    },
    {
      "inputs": [
        {
          "internalType": "address",
          "name": "spender",
          "type": "address"
        },
        {
          "internalType": "uint256",
          "name": "subtractedValue",
          "type": "uint256"
        }
      ],
      "name": "decreaseAllowance",
      "outputs": [
        {
          "internalType": "bool",
          "name": "",
          "type": "bool"
        }
      ],
      "stateMutability": "nonpayable",
      "type": "function"
    },
    {
      "inputs": [],
      "name": "exchangeToken",
      "outputs": [],
      "stateMutability": "payable",
      "type": "function"
    },
    {
      "inputs": [
        {
          "internalType": "address",
          "name": "spender",
          "type": "address"
        },
        {
          "internalType": "uint256",
          "name": "addedValue",
          "type": "uint256"
        }
      ],
      "name": "increaseAllowance",
      "outputs": [
        {
          "internalType": "bool",
          "name": "",
          "type": "bool"
        }
      ],
      "stateMutability": "nonpayable",
      "type": "function"
    },
    {
      "inputs": [],
      "name": "name",
      "outputs": [
        {
          "internalType": "string",
          "name": "",
          "type": "string"
        }
      ],
      "stateMutability": "view",
      "type": "function"
    },
    {
      "inputs": [],
      "name": "symbol",
      "outputs": [
        {
          "internalType": "string",
          "name": "",
          "type": "string"
        }
      ],
      "stateMutability": "view",
      "type": "function"
    },
    {
      "inputs": [],
      "name": "totalSupply",
      "outputs": [
        {
          "internalType": "uint256",
          "name": "",
          "type": "uint256"
        }
      ],
      "stateMutability": "view",
      "type": "function"
    },
    {
      "inputs": [
        {
          "internalType": "address",
          "name": "recipient",
          "type": "address"
        },
        {
          "internalType": "uint256",
          "name": "amount",
          "type": "uint256"
        }
      ],
      "name": "transfer",
      "outputs": [
        {
          "internalType": "bool",
          "name": "",
          "type": "bool"
        }
      ],
      "stateMutability": "nonpayable",
      "type": "function"
    },
    {
      "inputs": [
        {
          "internalType": "address",
          "name": "_recipient",
          "type": "address"
        },
        {
          "internalType": "uint256",
          "name": "_amount",
          "type": "uint256"
        },
        {
          "internalType": "bytes",
          "name": "_extraData",
          "type": "bytes"
        }
      ],
      "name": "transferAndCall",
      "outputs": [
        {
          "internalType": "bool",
          "name": "",
          "type": "bool"
        }
      ],
      "stateMutability": "nonpayable",
      "type": "function"
    },
    {
      "inputs": [
        {
          "internalType": "address",
          "name": "sender",
          "type": "address"
        },
        {
          "internalType": "address",
          "name": "recipient",
          "type": "address"
        },
        {
          "internalType": "uint256",
          "name": "amount",
          "type": "uint256"
        }
      ],
      "name": "transferFrom",
      "outputs": [
        {
          "internalType": "bool",
          "name": "",
          "type": "bool"
        }
      ],
      "stateMutability": "nonpayable",
      "type": "function"
    },
    {
      "stateMutability": "payable",
      "type": "receive"
    }
  ],
  "bytecode": "0x60806040526040516200212438038062002124833981810160405281019062000029919062000385565b6040518060400160405280600c81526020017f597554656e6720546f6b656e00000000000000000000000000000000000000008152506040518060400160405280600381526020017f59544300000000000000000000000000000000000000000000000000000000008152508160039080519060200190620000ad929190620002a7565b508060049080519060200190620000c6929190620002a7565b505050620000db82826200012460201b60201c565b81600560006101000a81548173ffffffffffffffffffffffffffffffffffffffff021916908373ffffffffffffffffffffffffffffffffffffffff1602179055505050620005e5565b600073ffffffffffffffffffffffffffffffffffffffff168273ffffffffffffffffffffffffffffffffffffffff16141562000197576040517f08c379a00000000000000000000000000000000000000000000000000000000081526004016200018e9062000404565b60405180910390fd5b620001ab600083836200029d60201b60201c565b8060026000828254620001bf919062000454565b92505081905550806000808473ffffffffffffffffffffffffffffffffffffffff1673ffffffffffffffffffffffffffffffffffffffff168152602001908152602001600020600082825462000216919062000454565b925050819055508173ffffffffffffffffffffffffffffffffffffffff16600073ffffffffffffffffffffffffffffffffffffffff167fddf252ad1be2c89b69c2b068fc378daa952ba7f163c4a11628f55a4df523b3ef836040516200027d919062000426565b60405180910390a36200029960008383620002a260201b60201c565b5050565b505050565b505050565b828054620002b590620004ef565b90600052602060002090601f016020900481019282620002d9576000855562000325565b82601f10620002f457805160ff191683800117855562000325565b8280016001018555821562000325579182015b828111156200032457825182559160200191906001019062000307565b5b50905062000334919062000338565b5090565b5b808211156200035357600081600090555060010162000339565b5090565b6000815190506200036881620005b1565b92915050565b6000815190506200037f81620005cb565b92915050565b600080604083850312156200039f576200039e62000583565b5b6000620003af8582860162000357565b9250506020620003c2858286016200036e565b9150509250929050565b6000620003db601f8362000443565b9150620003e88262000588565b602082019050919050565b620003fe81620004e5565b82525050565b600060208201905081810360008301526200041f81620003cc565b9050919050565b60006020820190506200043d6000830184620003f3565b92915050565b600082825260208201905092915050565b60006200046182620004e5565b91506200046e83620004e5565b9250827fffffffffffffffffffffffffffffffffffffffffffffffffffffffffffffffff03821115620004a657620004a562000525565b5b828201905092915050565b6000620004be82620004c5565b9050919050565b600073ffffffffffffffffffffffffffffffffffffffff82169050919050565b6000819050919050565b600060028204905060018216806200050857607f821691505b602082108114156200051f576200051e62000554565b5b50919050565b7f4e487b7100000000000000000000000000000000000000000000000000000000600052601160045260246000fd5b7f4e487b7100000000000000000000000000000000000000000000000000000000600052602260045260246000fd5b600080fd5b7f45524332303a206d696e7420746f20746865207a65726f206164647265737300600082015250565b620005bc81620004b1565b8114620005c857600080fd5b50565b620005d681620004e5565b8114620005e257600080fd5b50565b611b2f80620005f56000396000f3fe6080604052600436106100e15760003560e01c806370a082311161007f578063a457c2d711610059578063a457c2d714610325578063a9059cbb14610362578063cae9ca511461039f578063dd62ed3e146103dc576100f3565b806370a08231146102b357806395d89b41146102f0578063a25eb5d91461031b576100f3565b806323b872dd116100bb57806323b872dd146101d1578063313ce5671461020e57806339509351146102395780634000aea014610276576100f3565b806306fdde031461013e578063095ea7b31461016957806318160ddd146101a6576100f3565b366100f3576100f1346066610419565b005b6101316040518060400160405280601c81526020017f597574656e672066616c6c6261636b20737563636573732063616c6c000000008152506104b8565b61013c346065610419565b005b34801561014a57600080fd5b50610153610551565b6040516101609190611491565b60405180910390f35b34801561017557600080fd5b50610190600480360381019061018b919061117e565b6105e3565b60405161019d9190611476565b60405180910390f35b3480156101b257600080fd5b506101bb610601565b6040516101c891906115b3565b60405180910390f35b3480156101dd57600080fd5b506101f860048036038101906101f3919061112b565b61060b565b6040516102059190611476565b60405180910390f35b34801561021a57600080fd5b50610223610703565b60405161023091906115ce565b60405180910390f35b34801561024557600080fd5b50610260600480360381019061025b919061117e565b61070c565b60405161026d9190611476565b60405180910390f35b34801561028257600080fd5b5061029d600480360381019061029891906111be565b6107b8565b6040516102aa9190611476565b60405180910390f35b3480156102bf57600080fd5b506102da60048036038101906102d591906110be565b610848565b6040516102e791906115b3565b60405180910390f35b3480156102fc57600080fd5b50610305610890565b6040516103129190611491565b60405180910390f35b610323610922565b005b34801561033157600080fd5b5061034c6004803603810190610347919061117e565b61092f565b6040516103599190611476565b60405180910390f35b34801561036e57600080fd5b506103896004803603810190610384919061117e565b610a1a565b6040516103969190611476565b60405180910390f35b3480156103ab57600080fd5b506103c660048036038101906103c191906111be565b610a38565b6040516103d39190611476565b60405180910390f35b3480156103e857600080fd5b5061040360048036038101906103fe91906110eb565b610afe565b60405161041091906115b3565b60405180910390f35b61044d600560009054906101000a900473ffffffffffffffffffffffffffffffffffffffff16610447610b85565b84610b8d565b507f70ee46485b987eaf472c55908dc22ab5db176b6125c52401cb86bbfc91cb5c5f610477610b85565b600560009054906101000a900473ffffffffffffffffffffffffffffffffffffffff1684846040516104ac94939291906113f3565b60405180910390a15050565b61054e816040516024016104cc9190611491565b6040516020818303038152906040527f41304fac000000000000000000000000000000000000000000000000000000007bffffffffffffffffffffffffffffffffffffffffffffffffffffffff19166020820180517bffffffffffffffffffffffffffffffffffffffffffffffffffffffff8381831617835250505050610ba5565b50565b60606003805461056090611764565b80601f016020809104026020016040519081016040528092919081815260200182805461058c90611764565b80156105d95780601f106105ae576101008083540402835291602001916105d9565b820191906000526020600020905b8154815290600101906020018083116105bc57829003601f168201915b5050505050905090565b60006105f76105f0610b85565b8484610bce565b6001905092915050565b6000600254905090565b6000610618848484610d99565b6000600160008673ffffffffffffffffffffffffffffffffffffffff1673ffffffffffffffffffffffffffffffffffffffff1681526020019081526020016000206000610663610b85565b73ffffffffffffffffffffffffffffffffffffffff1673ffffffffffffffffffffffffffffffffffffffff168152602001908152602001600020549050828110156106e3576040517f08c379a00000000000000000000000000000000000000000000000000000000081526004016106da90611513565b60405180910390fd5b6106f7856106ef610b85565b858403610bce565b60019150509392505050565b60006012905090565b60006107ae610719610b85565b848460016000610727610b85565b73ffffffffffffffffffffffffffffffffffffffff1673ffffffffffffffffffffffffffffffffffffffff16815260200190815260200160002060008873ffffffffffffffffffffffffffffffffffffffff1673ffffffffffffffffffffffffffffffffffffffff168152602001908152602001600020546107a99190611677565b610bce565b6001905092915050565b60006107c48484610a1a565b156107ce57600080fd5b8373ffffffffffffffffffffffffffffffffffffffff1663e418f5923385856040518463ffffffff1660e01b815260040161080b93929190611438565b600060405180830381600087803b15801561082557600080fd5b505af1158015610839573d6000803e3d6000fd5b50505050600190509392505050565b60008060008373ffffffffffffffffffffffffffffffffffffffff1673ffffffffffffffffffffffffffffffffffffffff168152602001908152602001600020549050919050565b60606004805461089f90611764565b80601f01602080910402602001604051908101604052809291908181526020018280546108cb90611764565b80156109185780601f106108ed57610100808354040283529160200191610918565b820191906000526020600020905b8154815290600101906020018083116108fb57829003601f168201915b5050505050905090565b61092d346067610419565b565b6000806001600061093e610b85565b73ffffffffffffffffffffffffffffffffffffffff1673ffffffffffffffffffffffffffffffffffffffff16815260200190815260200160002060008573ffffffffffffffffffffffffffffffffffffffff1673ffffffffffffffffffffffffffffffffffffffff168152602001908152602001600020549050828110156109fb576040517f08c379a00000000000000000000000000000000000000000000000000000000081526004016109f290611593565b60405180910390fd5b610a0f610a06610b85565b85858403610bce565b600191505092915050565b6000610a2e610a27610b85565b8484610d99565b6001905092915050565b6000610a4484846105e3565b15610a84576040517f08c379a0000000000000000000000000000000000000000000000000000000008152600401610a7b90611553565b60405180910390fd5b8373ffffffffffffffffffffffffffffffffffffffff1663a2d578533385856040518463ffffffff1660e01b8152600401610ac193929190611438565b600060405180830381600087803b158015610adb57600080fd5b505af1158015610aef573d6000803e3d6000fd5b50505050600190509392505050565b6000600160008473ffffffffffffffffffffffffffffffffffffffff1673ffffffffffffffffffffffffffffffffffffffff16815260200190815260200160002060008373ffffffffffffffffffffffffffffffffffffffff1673ffffffffffffffffffffffffffffffffffffffff16815260200190815260200160002054905092915050565b600033905090565b6000610b9a848484610d99565b600190509392505050565b60008151905060006a636f6e736f6c652e6c6f679050602083016000808483855afa5050505050565b600073ffffffffffffffffffffffffffffffffffffffff168373ffffffffffffffffffffffffffffffffffffffff161415610c3e576040517f08c379a0000000000000000000000000000000000000000000000000000000008152600401610c3590611573565b60405180910390fd5b600073ffffffffffffffffffffffffffffffffffffffff168273ffffffffffffffffffffffffffffffffffffffff161415610cae576040517f08c379a0000000000000000000000000000000000000000000000000000000008152600401610ca5906114d3565b60405180910390fd5b80600160008573ffffffffffffffffffffffffffffffffffffffff1673ffffffffffffffffffffffffffffffffffffffff16815260200190815260200160002060008473ffffffffffffffffffffffffffffffffffffffff1673ffffffffffffffffffffffffffffffffffffffff168152602001908152602001600020819055508173ffffffffffffffffffffffffffffffffffffffff168373ffffffffffffffffffffffffffffffffffffffff167f8c5be1e5ebec7d5bd14f71427d1e84f3dd0314c0f7b2291e5b200ac8c7c3b92583604051610d8c91906115b3565b60405180910390a3505050565b600073ffffffffffffffffffffffffffffffffffffffff168373ffffffffffffffffffffffffffffffffffffffff161415610e09576040517f08c379a0000000000000000000000000000000000000000000000000000000008152600401610e0090611533565b60405180910390fd5b600073ffffffffffffffffffffffffffffffffffffffff168273ffffffffffffffffffffffffffffffffffffffff161415610e79576040517f08c379a0000000000000000000000000000000000000000000000000000000008152600401610e70906114b3565b60405180910390fd5b610e8483838361101a565b60008060008573ffffffffffffffffffffffffffffffffffffffff1673ffffffffffffffffffffffffffffffffffffffff16815260200190815260200160002054905081811015610f0a576040517f08c379a0000000000000000000000000000000000000000000000000000000008152600401610f01906114f3565b60405180910390fd5b8181036000808673ffffffffffffffffffffffffffffffffffffffff1673ffffffffffffffffffffffffffffffffffffffff16815260200190815260200160002081905550816000808573ffffffffffffffffffffffffffffffffffffffff1673ffffffffffffffffffffffffffffffffffffffff1681526020019081526020016000206000828254610f9d9190611677565b925050819055508273ffffffffffffffffffffffffffffffffffffffff168473ffffffffffffffffffffffffffffffffffffffff167fddf252ad1be2c89b69c2b068fc378daa952ba7f163c4a11628f55a4df523b3ef8460405161100191906115b3565b60405180910390a361101484848461101f565b50505050565b505050565b505050565b60006110376110328461160e565b6115e9565b90508281526020810184848401111561105357611052611859565b5b61105e848285611722565b509392505050565b60008135905061107581611acb565b92915050565b600082601f8301126110905761108f611854565b5b81356110a0848260208601611024565b91505092915050565b6000813590506110b881611ae2565b92915050565b6000602082840312156110d4576110d3611863565b5b60006110e284828501611066565b91505092915050565b6000806040838503121561110257611101611863565b5b600061111085828601611066565b925050602061112185828601611066565b9150509250929050565b60008060006060848603121561114457611143611863565b5b600061115286828701611066565b935050602061116386828701611066565b9250506040611174868287016110a9565b9150509250925092565b6000806040838503121561119557611194611863565b5b60006111a385828601611066565b92505060206111b4858286016110a9565b9150509250929050565b6000806000606084860312156111d7576111d6611863565b5b60006111e586828701611066565b93505060206111f6868287016110a9565b925050604084013567ffffffffffffffff8111156112175761121661185e565b5b6112238682870161107b565b9150509250925092565b611236816116cd565b82525050565b611245816116df565b82525050565b60006112568261163f565b6112608185611655565b9350611270818560208601611731565b61127981611868565b840191505092915050565b600061128f8261164a565b6112998185611666565b93506112a9818560208601611731565b6112b281611868565b840191505092915050565b60006112ca602383611666565b91506112d582611879565b604082019050919050565b60006112ed602283611666565b91506112f8826118c8565b604082019050919050565b6000611310602683611666565b915061131b82611917565b604082019050919050565b6000611333602883611666565b915061133e82611966565b604082019050919050565b6000611356602583611666565b9150611361826119b5565b604082019050919050565b6000611379601383611666565b915061138482611a04565b602082019050919050565b600061139c602483611666565b91506113a782611a2d565b604082019050919050565b60006113bf602583611666565b91506113ca82611a7c565b604082019050919050565b6113de8161170b565b82525050565b6113ed81611715565b82525050565b6000608082019050611408600083018761122d565b611415602083018661122d565b61142260408301856113d5565b61142f60608301846113d5565b95945050505050565b600060608201905061144d600083018661122d565b61145a60208301856113d5565b818103604083015261146c818461124b565b9050949350505050565b600060208201905061148b600083018461123c565b92915050565b600060208201905081810360008301526114ab8184611284565b905092915050565b600060208201905081810360008301526114cc816112bd565b9050919050565b600060208201905081810360008301526114ec816112e0565b9050919050565b6000602082019050818103600083015261150c81611303565b9050919050565b6000602082019050818103600083015261152c81611326565b9050919050565b6000602082019050818103600083015261154c81611349565b9050919050565b6000602082019050818103600083015261156c8161136c565b9050919050565b6000602082019050818103600083015261158c8161138f565b9050919050565b600060208201905081810360008301526115ac816113b2565b9050919050565b60006020820190506115c860008301846113d5565b92915050565b60006020820190506115e360008301846113e4565b92915050565b60006115f3611604565b90506115ff8282611796565b919050565b6000604051905090565b600067ffffffffffffffff82111561162957611628611825565b5b61163282611868565b9050602081019050919050565b600081519050919050565b600081519050919050565b600082825260208201905092915050565b600082825260208201905092915050565b60006116828261170b565b915061168d8361170b565b9250827fffffffffffffffffffffffffffffffffffffffffffffffffffffffffffffffff038211156116c2576116c16117c7565b5b828201905092915050565b60006116d8826116eb565b9050919050565b60008115159050919050565b600073ffffffffffffffffffffffffffffffffffffffff82169050919050565b6000819050919050565b600060ff82169050919050565b82818337600083830152505050565b60005b8381101561174f578082015181840152602081019050611734565b8381111561175e576000848401525b50505050565b6000600282049050600182168061177c57607f821691505b602082108114156117905761178f6117f6565b5b50919050565b61179f82611868565b810181811067ffffffffffffffff821117156117be576117bd611825565b5b80604052505050565b7f4e487b7100000000000000000000000000000000000000000000000000000000600052601160045260246000fd5b7f4e487b7100000000000000000000000000000000000000000000000000000000600052602260045260246000fd5b7f4e487b7100000000000000000000000000000000000000000000000000000000600052604160045260246000fd5b600080fd5b600080fd5b600080fd5b600080fd5b6000601f19601f8301169050919050565b7f45524332303a207472616e7366657220746f20746865207a65726f206164647260008201527f6573730000000000000000000000000000000000000000000000000000000000602082015250565b7f45524332303a20617070726f766520746f20746865207a65726f20616464726560008201527f7373000000000000000000000000000000000000000000000000000000000000602082015250565b7f45524332303a207472616e7366657220616d6f756e742065786365656473206260008201527f616c616e63650000000000000000000000000000000000000000000000000000602082015250565b7f45524332303a207472616e7366657220616d6f756e742065786365656473206160008201527f6c6c6f77616e6365000000000000000000000000000000000000000000000000602082015250565b7f45524332303a207472616e736665722066726f6d20746865207a65726f20616460008201527f6472657373000000000000000000000000000000000000000000000000000000602082015250565b7f617070726f7665416e6443616c6c206661696c00000000000000000000000000600082015250565b7f45524332303a20617070726f76652066726f6d20746865207a65726f2061646460008201527f7265737300000000000000000000000000000000000000000000000000000000602082015250565b7f45524332303a2064656372656173656420616c6c6f77616e63652062656c6f7760008201527f207a65726f000000000000000000000000000000000000000000000000000000602082015250565b611ad4816116cd565b8114611adf57600080fd5b50565b611aeb8161170b565b8114611af657600080fd5b5056fea264697066735822122002a513e59e30df59af0097a84645739f8737f534f9fcc2d946eb979b580eb39964736f6c63430008070033",
  "linkReferences": {},
  "deployedLinkReferences": {}
}