{
  "_format": "hh-sol-artifact-1",
  "contractName": "YuToken",
  "sourceName": "contracts/YuToken.sol",
  "abi": [
    {
      "inputs": [
        {
          "internalType": "address",
          "name": "owner",
          "type": "address"
        },
        {
          "internalType": "uint256",
          "name": "initTotalSupply",
          "type": "uint256"
        }
      ],
      "stateMutability": "payable",
      "type": "constructor"
    },
    {
      "anonymous": false,
      "inputs": [
        {
          "indexed": true,
          "internalType": "address",
          "name": "owner",
          "type": "address"
        },
        {
          "indexed": true,
          "internalType": "address",
          "name": "spender",
          "type": "address"
        },
        {
          "indexed": false,
          "internalType": "uint256",
          "name": "value",
          "type": "uint256"
        }
      ],
      "name": "Approval",
      "type": "event"
    },
    {
      "anonymous": false,
      "inputs": [
        {
          "indexed": true,
          "internalType": "address",
          "name": "previousOwner",
          "type": "address"
        },
        {
          "indexed": true,
          "internalType": "address",
          "name": "newOwner",
          "type": "address"
        }
      ],
      "name": "OwnershipTransferred",
      "type": "event"
    },
    {
      "anonymous": false,
      "inputs": [
        {
          "indexed": false,
          "internalType": "address",
          "name": "from",
          "type": "address"
        },
        {
          "indexed": false,
          "internalType": "address",
          "name": "to",
          "type": "address"
        },
        {
          "indexed": false,
          "internalType": "uint256",
          "name": "value",
          "type": "uint256"
        },
        {
          "indexed": false,
          "internalType": "uint256",
          "name": "number",
          "type": "uint256"
        }
      ],
      "name": "SendBalance",
      "type": "event"
    },
    {
      "anonymous": false,
      "inputs": [
        {
          "indexed": true,
          "internalType": "address",
          "name": "from",
          "type": "address"
        },
        {
          "indexed": true,
          "internalType": "address",
          "name": "to",
          "type": "address"
        },
        {
          "indexed": false,
          "internalType": "uint256",
          "name": "value",
          "type": "uint256"
        }
      ],
      "name": "Transfer",
      "type": "event"
    },
    {
      "stateMutability": "payable",
      "type": "fallback"
    },
    {
      "inputs": [
        {
          "internalType": "address",
          "name": "recipient",
          "type": "address"
        },
        {
          "internalType": "uint256",
          "name": "amount",
          "type": "uint256"
        }
      ],
      "name": "Withdrawal",
      "outputs": [
        {
          "internalType": "bool",
          "name": "",
          "type": "bool"
        }
      ],
      "stateMutability": "nonpayable",
      "type": "function"
    },
    {
      "inputs": [
        {
          "internalType": "address",
          "name": "owner",
          "type": "address"
        },
        {
          "internalType": "address",
          "name": "spender",
          "type": "address"
        }
      ],
      "name": "allowance",
      "outputs": [
        {
          "internalType": "uint256",
          "name": "",
          "type": "uint256"
        }
      ],
      "stateMutability": "view",
      "type": "function"
    },
    {
      "inputs": [
        {
          "internalType": "address",
          "name": "spender",
          "type": "address"
        },
        {
          "internalType": "uint256",
          "name": "amount",
          "type": "uint256"
        }
      ],
      "name": "approve",
      "outputs": [
        {
          "internalType": "bool",
          "name": "",
          "type": "bool"
        }
      ],
      "stateMutability": "nonpayable",
      "type": "function"
    },
    {
      "inputs": [
        {
          "internalType": "address",
          "name": "spender",
          "type": "address"
        },
        {
          "internalType": "uint256",
          "name": "amount",
          "type": "uint256"
        },
        {
          "internalType": "bytes",
          "name": "data",
          "type": "bytes"
        }
      ],
      "name": "approveAndCall",
      "outputs": [
        {
          "internalType": "bool",
          "name": "success",
          "type": "bool"
        }
      ],
      "stateMutability": "nonpayable",
      "type": "function"
    },
    {
      "inputs": [
        {
          "internalType": "address",
          "name": "account",
          "type": "address"
        }
      ],
      "name": "balanceOf",
      "outputs": [
        {
          "internalType": "uint256",
          "name": "",
          "type": "uint256"
        }
      ],
      "stateMutability": "view",
      "type": "function"
    },
    {
      "inputs": [],
      "name": "decimals",
      "outputs": [
        {
          "internalType": "uint8",
          "name": "",
          "type": "uint8"
        }
      ],
      "stateMutability": "view",
      "type": "function"
    },
    {
      "inputs": [
        {
          "internalType": "address",
          "name": "spender",
          "type": "address"
        },
        {
          "internalType": "uint256",
          "name": "subtractedValue",
          "type": "uint256"
        }
      ],
      "name": "decreaseAllowance",
      "outputs": [
        {
          "internalType": "bool",
          "name": "",
          "type": "bool"
        }
      ],
      "stateMutability": "nonpayable",
      "type": "function"
    },
    {
      "inputs": [
        {
          "internalType": "address",
          "name": "spender",
          "type": "address"
        },
        {
          "internalType": "uint256",
          "name": "addedValue",
          "type": "uint256"
        }
      ],
      "name": "increaseAllowance",
      "outputs": [
        {
          "internalType": "bool",
          "name": "",
          "type": "bool"
        }
      ],
      "stateMutability": "nonpayable",
      "type": "function"
    },
    {
      "inputs": [],
      "name": "name",
      "outputs": [
        {
          "internalType": "string",
          "name": "",
          "type": "string"
        }
      ],
      "stateMutability": "view",
      "type": "function"
    },
    {
      "inputs": [],
      "name": "owner",
      "outputs": [
        {
          "internalType": "address",
          "name": "",
          "type": "address"
        }
      ],
      "stateMutability": "view",
      "type": "function"
    },
    {
      "inputs": [],
      "name": "renounceOwnership",
      "outputs": [],
      "stateMutability": "nonpayable",
      "type": "function"
    },
    {
      "inputs": [],
      "name": "symbol",
      "outputs": [
        {
          "internalType": "string",
          "name": "",
          "type": "string"
        }
      ],
      "stateMutability": "view",
      "type": "function"
    },
    {
      "inputs": [],
      "name": "totalSupply",
      "outputs": [
        {
          "internalType": "uint256",
          "name": "",
          "type": "uint256"
        }
      ],
      "stateMutability": "view",
      "type": "function"
    },
    {
      "inputs": [
        {
          "internalType": "address",
          "name": "recipient",
          "type": "address"
        },
        {
          "internalType": "uint256",
          "name": "amount",
          "type": "uint256"
        }
      ],
      "name": "transfer",
      "outputs": [
        {
          "internalType": "bool",
          "name": "",
          "type": "bool"
        }
      ],
      "stateMutability": "nonpayable",
      "type": "function"
    },
    {
      "inputs": [
        {
          "internalType": "address",
          "name": "recipient",
          "type": "address"
        },
        {
          "internalType": "uint256",
          "name": "amount",
          "type": "uint256"
        },
        {
          "internalType": "bytes",
          "name": "data",
          "type": "bytes"
        }
      ],
      "name": "transferAndCall",
      "outputs": [
        {
          "internalType": "bool",
          "name": "",
          "type": "bool"
        }
      ],
      "stateMutability": "nonpayable",
      "type": "function"
    },
    {
      "inputs": [
        {
          "internalType": "address",
          "name": "sender",
          "type": "address"
        },
        {
          "internalType": "address",
          "name": "recipient",
          "type": "address"
        },
        {
          "internalType": "uint256",
          "name": "amount",
          "type": "uint256"
        }
      ],
      "name": "transferFrom",
      "outputs": [
        {
          "internalType": "bool",
          "name": "",
          "type": "bool"
        }
      ],
      "stateMutability": "nonpayable",
      "type": "function"
    },
    {
      "inputs": [
        {
          "internalType": "address",
          "name": "newOwner",
          "type": "address"
        }
      ],
      "name": "transferOwnership",
      "outputs": [],
      "stateMutability": "nonpayable",
      "type": "function"
    },
    {
      "stateMutability": "payable",
      "type": "receive"
    }
  ],
  "bytecode": "0x60806040526040516200298638038062002986833981810160405281019062000029919062000583565b6040518060400160405280600881526020017f597520546f6b656e0000000000000000000000000000000000000000000000008152506040518060400160405280600381526020017f59544300000000000000000000000000000000000000000000000000000000008152508160039080519060200190620000ad929190620004a5565b508060049080519060200190620000c6929190620004a5565b505050620000e9620000dd6200011460201b60201c565b6200011c60201b60201c565b620000fa82620001e260201b60201c565b6200010c8282620002f860201b60201c565b5050620008ed565b600033905090565b6000600560009054906101000a900473ffffffffffffffffffffffffffffffffffffffff16905081600560006101000a81548173ffffffffffffffffffffffffffffffffffffffff021916908373ffffffffffffffffffffffffffffffffffffffff1602179055508173ffffffffffffffffffffffffffffffffffffffff168173ffffffffffffffffffffffffffffffffffffffff167f8be0079c531659141344cd1fd0a4f28419497f9722a3daafe3b4186f6b6457e060405160405180910390a35050565b620001f26200011460201b60201c565b73ffffffffffffffffffffffffffffffffffffffff16620002186200047160201b60201c565b73ffffffffffffffffffffffffffffffffffffffff161462000271576040517f08c379a0000000000000000000000000000000000000000000000000000000008152600401620002689062000672565b60405180910390fd5b600073ffffffffffffffffffffffffffffffffffffffff168173ffffffffffffffffffffffffffffffffffffffff161415620002e4576040517f08c379a0000000000000000000000000000000000000000000000000000000008152600401620002db9062000650565b60405180910390fd5b620002f5816200011c60201b60201c565b50565b600073ffffffffffffffffffffffffffffffffffffffff168273ffffffffffffffffffffffffffffffffffffffff1614156200036b576040517f08c379a0000000000000000000000000000000000000000000000000000000008152600401620003629062000694565b60405180910390fd5b6200037f600083836200049b60201b60201c565b8060026000828254620003939190620006e4565b92505081905550806000808473ffffffffffffffffffffffffffffffffffffffff1673ffffffffffffffffffffffffffffffffffffffff1681526020019081526020016000206000828254620003ea9190620006e4565b925050819055508173ffffffffffffffffffffffffffffffffffffffff16600073ffffffffffffffffffffffffffffffffffffffff167fddf252ad1be2c89b69c2b068fc378daa952ba7f163c4a11628f55a4df523b3ef83604051620004519190620006b6565b60405180910390a36200046d60008383620004a060201b60201c565b5050565b6000600560009054906101000a900473ffffffffffffffffffffffffffffffffffffffff16905090565b505050565b505050565b828054620004b3906200077f565b90600052602060002090601f016020900481019282620004d7576000855562000523565b82601f10620004f257805160ff191683800117855562000523565b8280016001018555821562000523579182015b828111156200052257825182559160200191906001019062000505565b5b50905062000532919062000536565b5090565b5b808211156200055157600081600090555060010162000537565b5090565b6000815190506200056681620008b9565b92915050565b6000815190506200057d81620008d3565b92915050565b600080604083850312156200059d576200059c62000813565b5b6000620005ad8582860162000555565b9250506020620005c0858286016200056c565b9150509250929050565b6000620005d9602683620006d3565b9150620005e68262000818565b604082019050919050565b600062000600602083620006d3565b91506200060d8262000867565b602082019050919050565b600062000627601f83620006d3565b9150620006348262000890565b602082019050919050565b6200064a8162000775565b82525050565b600060208201905081810360008301526200066b81620005ca565b9050919050565b600060208201905081810360008301526200068d81620005f1565b9050919050565b60006020820190508181036000830152620006af8162000618565b9050919050565b6000602082019050620006cd60008301846200063f565b92915050565b600082825260208201905092915050565b6000620006f18262000775565b9150620006fe8362000775565b9250827fffffffffffffffffffffffffffffffffffffffffffffffffffffffffffffffff03821115620007365762000735620007b5565b5b828201905092915050565b60006200074e8262000755565b9050919050565b600073ffffffffffffffffffffffffffffffffffffffff82169050919050565b6000819050919050565b600060028204905060018216806200079857607f821691505b60208210811415620007af57620007ae620007e4565b5b50919050565b7f4e487b7100000000000000000000000000000000000000000000000000000000600052601160045260246000fd5b7f4e487b7100000000000000000000000000000000000000000000000000000000600052602260045260246000fd5b600080fd5b7f4f776e61626c653a206e6577206f776e657220697320746865207a65726f206160008201527f6464726573730000000000000000000000000000000000000000000000000000602082015250565b7f4f776e61626c653a2063616c6c6572206973206e6f7420746865206f776e6572600082015250565b7f45524332303a206d696e7420746f20746865207a65726f206164647265737300600082015250565b620008c48162000741565b8114620008d057600080fd5b50565b620008de8162000775565b8114620008ea57600080fd5b50565b61208980620008fd6000396000f3fe6080604052600436106101025760003560e01c8063715018a611610095578063a457c2d711610064578063a457c2d7146104f5578063a9059cbb14610532578063cae9ca511461056f578063dd62ed3e146105ac578063f2fde38b146105e9576101d0565b8063715018a61461044b5780637fcf532c146104625780638da5cb5b1461049f57806395d89b41146104ca576101d0565b8063313ce567116100d1578063313ce5671461036957806339509351146103945780634000aea0146103d157806370a082311461040e576101d0565b806306fdde0314610299578063095ea7b3146102c457806318160ddd1461030157806323b872dd1461032c576101d0565b366101d05760011515600660003373ffffffffffffffffffffffffffffffffffffffff1673ffffffffffffffffffffffffffffffffffffffff16815260200190815260200160002060009054906101000a900460ff161515146101ce576001600660003373ffffffffffffffffffffffffffffffffffffffff1673ffffffffffffffffffffffffffffffffffffffff16815260200190815260200160002060006101000a81548160ff0219169083151502179055506101cd6a52b7d2dcc80cd2e40000006066610612565b5b005b60011515600660003373ffffffffffffffffffffffffffffffffffffffff1673ffffffffffffffffffffffffffffffffffffffff16815260200190815260200160002060009054906101000a900460ff16151514610297576001600660003373ffffffffffffffffffffffffffffffffffffffff1673ffffffffffffffffffffffffffffffffffffffff16815260200190815260200160002060006101000a81548160ff0219169083151502179055506102966a52b7d2dcc80cd2e40000006065610612565b5b005b3480156102a557600080fd5b506102ae61067b565b6040516102bb9190611933565b60405180910390f35b3480156102d057600080fd5b506102eb60048036038101906102e691906115bf565b61070d565b6040516102f89190611918565b60405180910390f35b34801561030d57600080fd5b5061031661072b565b6040516103239190611a95565b60405180910390f35b34801561033857600080fd5b50610353600480360381019061034e919061156c565b610735565b6040516103609190611918565b60405180910390f35b34801561037557600080fd5b5061037e61082d565b60405161038b9190611ab0565b60405180910390f35b3480156103a057600080fd5b506103bb60048036038101906103b691906115bf565b610836565b6040516103c89190611918565b60405180910390f35b3480156103dd57600080fd5b506103f860048036038101906103f391906115ff565b6108e2565b6040516104059190611918565b60405180910390f35b34801561041a57600080fd5b50610435600480360381019061043091906114ff565b610979565b6040516104429190611a95565b60405180910390f35b34801561045757600080fd5b506104606109c1565b005b34801561046e57600080fd5b50610489600480360381019061048491906115bf565b610a49565b6040516104969190611918565b60405180910390f35b3480156104ab57600080fd5b506104b4610b18565b6040516104c1919061187a565b60405180910390f35b3480156104d657600080fd5b506104df610b42565b6040516104ec9190611933565b60405180910390f35b34801561050157600080fd5b5061051c600480360381019061051791906115bf565b610bd4565b6040516105299190611918565b60405180910390f35b34801561053e57600080fd5b50610559600480360381019061055491906115bf565b610cbf565b6040516105669190611918565b60405180910390f35b34801561057b57600080fd5b50610596600480360381019061059191906115ff565b610cdd565b6040516105a39190611918565b60405180910390f35b3480156105b857600080fd5b506105d360048036038101906105ce919061152c565b610daa565b6040516105e09190611a95565b60405180910390f35b3480156105f557600080fd5b50610610600480360381019061060b91906114ff565b610e31565b005b61062b61061d610b18565b610625610f29565b84610f31565b507f70ee46485b987eaf472c55908dc22ab5db176b6125c52401cb86bbfc91cb5c5f610655610f29565b61065d610b18565b848460405161066f9493929190611895565b60405180910390a15050565b60606003805461068a90611c46565b80601f01602080910402602001604051908101604052809291908181526020018280546106b690611c46565b80156107035780601f106106d857610100808354040283529160200191610703565b820191906000526020600020905b8154815290600101906020018083116106e657829003601f168201915b5050505050905090565b600061072161071a610f29565b8484610f49565b6001905092915050565b6000600254905090565b6000610742848484611114565b6000600160008673ffffffffffffffffffffffffffffffffffffffff1673ffffffffffffffffffffffffffffffffffffffff168152602001908152602001600020600061078d610f29565b73ffffffffffffffffffffffffffffffffffffffff1673ffffffffffffffffffffffffffffffffffffffff1681526020019081526020016000205490508281101561080d576040517f08c379a0000000000000000000000000000000000000000000000000000000008152600401610804906119d5565b60405180910390fd5b61082185610819610f29565b858403610f49565b60019150509392505050565b60006012905090565b60006108d8610843610f29565b848460016000610851610f29565b73ffffffffffffffffffffffffffffffffffffffff1673ffffffffffffffffffffffffffffffffffffffff16815260200190815260200160002060008873ffffffffffffffffffffffffffffffffffffffff1673ffffffffffffffffffffffffffffffffffffffff168152602001908152602001600020546108d39190611b59565b610f49565b6001905092915050565b60006108ee8484610cbf565b156108f857600080fd5b8373ffffffffffffffffffffffffffffffffffffffff1663e418f59261091c610f29565b85856040518463ffffffff1660e01b815260040161093c939291906118da565b600060405180830381600087803b15801561095657600080fd5b505af115801561096a573d6000803e3d6000fd5b50505050600190509392505050565b60008060008373ffffffffffffffffffffffffffffffffffffffff1673ffffffffffffffffffffffffffffffffffffffff168152602001908152602001600020549050919050565b6109c9610f29565b73ffffffffffffffffffffffffffffffffffffffff166109e7610b18565b73ffffffffffffffffffffffffffffffffffffffff1614610a3d576040517f08c379a0000000000000000000000000000000000000000000000000000000008152600401610a34906119f5565b60405180910390fd5b610a476000611395565b565b6000610a53610f29565b73ffffffffffffffffffffffffffffffffffffffff16610a71610b18565b73ffffffffffffffffffffffffffffffffffffffff1614610ac7576040517f08c379a0000000000000000000000000000000000000000000000000000000008152600401610abe906119f5565b60405180910390fd5b8273ffffffffffffffffffffffffffffffffffffffff166108fc839081150290604051600060405180830381858888f19350505050158015610b0d573d6000803e3d6000fd5b506001905092915050565b6000600560009054906101000a900473ffffffffffffffffffffffffffffffffffffffff16905090565b606060048054610b5190611c46565b80601f0160208091040260200160405190810160405280929190818152602001828054610b7d90611c46565b8015610bca5780601f10610b9f57610100808354040283529160200191610bca565b820191906000526020600020905b815481529060010190602001808311610bad57829003601f168201915b5050505050905090565b60008060016000610be3610f29565b73ffffffffffffffffffffffffffffffffffffffff1673ffffffffffffffffffffffffffffffffffffffff16815260200190815260200160002060008573ffffffffffffffffffffffffffffffffffffffff1673ffffffffffffffffffffffffffffffffffffffff16815260200190815260200160002054905082811015610ca0576040517f08c379a0000000000000000000000000000000000000000000000000000000008152600401610c9790611a75565b60405180910390fd5b610cb4610cab610f29565b85858403610f49565b600191505092915050565b6000610cd3610ccc610f29565b8484611114565b6001905092915050565b6000610ce9848461070d565b15610d29576040517f08c379a0000000000000000000000000000000000000000000000000000000008152600401610d2090611a35565b60405180910390fd5b8373ffffffffffffffffffffffffffffffffffffffff1663a2d57853610d4d610f29565b85856040518463ffffffff1660e01b8152600401610d6d939291906118da565b600060405180830381600087803b158015610d8757600080fd5b505af1158015610d9b573d6000803e3d6000fd5b50505050600190509392505050565b6000600160008473ffffffffffffffffffffffffffffffffffffffff1673ffffffffffffffffffffffffffffffffffffffff16815260200190815260200160002060008373ffffffffffffffffffffffffffffffffffffffff1673ffffffffffffffffffffffffffffffffffffffff16815260200190815260200160002054905092915050565b610e39610f29565b73ffffffffffffffffffffffffffffffffffffffff16610e57610b18565b73ffffffffffffffffffffffffffffffffffffffff1614610ead576040517f08c379a0000000000000000000000000000000000000000000000000000000008152600401610ea4906119f5565b60405180910390fd5b600073ffffffffffffffffffffffffffffffffffffffff168173ffffffffffffffffffffffffffffffffffffffff161415610f1d576040517f08c379a0000000000000000000000000000000000000000000000000000000008152600401610f1490611975565b60405180910390fd5b610f2681611395565b50565b600033905090565b6000610f3e848484611114565b600190509392505050565b600073ffffffffffffffffffffffffffffffffffffffff168373ffffffffffffffffffffffffffffffffffffffff161415610fb9576040517f08c379a0000000000000000000000000000000000000000000000000000000008152600401610fb090611a55565b60405180910390fd5b600073ffffffffffffffffffffffffffffffffffffffff168273ffffffffffffffffffffffffffffffffffffffff161415611029576040517f08c379a000000000000000000000000000000000000000000000000000000000815260040161102090611995565b60405180910390fd5b80600160008573ffffffffffffffffffffffffffffffffffffffff1673ffffffffffffffffffffffffffffffffffffffff16815260200190815260200160002060008473ffffffffffffffffffffffffffffffffffffffff1673ffffffffffffffffffffffffffffffffffffffff168152602001908152602001600020819055508173ffffffffffffffffffffffffffffffffffffffff168373ffffffffffffffffffffffffffffffffffffffff167f8c5be1e5ebec7d5bd14f71427d1e84f3dd0314c0f7b2291e5b200ac8c7c3b925836040516111079190611a95565b60405180910390a3505050565b600073ffffffffffffffffffffffffffffffffffffffff168373ffffffffffffffffffffffffffffffffffffffff161415611184576040517f08c379a000000000000000000000000000000000000000000000000000000000815260040161117b90611a15565b60405180910390fd5b600073ffffffffffffffffffffffffffffffffffffffff168273ffffffffffffffffffffffffffffffffffffffff1614156111f4576040517f08c379a00000000000000000000000000000000000000000000000000000000081526004016111eb90611955565b60405180910390fd5b6111ff83838361145b565b60008060008573ffffffffffffffffffffffffffffffffffffffff1673ffffffffffffffffffffffffffffffffffffffff16815260200190815260200160002054905081811015611285576040517f08c379a000000000000000000000000000000000000000000000000000000000815260040161127c906119b5565b60405180910390fd5b8181036000808673ffffffffffffffffffffffffffffffffffffffff1673ffffffffffffffffffffffffffffffffffffffff16815260200190815260200160002081905550816000808573ffffffffffffffffffffffffffffffffffffffff1673ffffffffffffffffffffffffffffffffffffffff16815260200190815260200160002060008282546113189190611b59565b925050819055508273ffffffffffffffffffffffffffffffffffffffff168473ffffffffffffffffffffffffffffffffffffffff167fddf252ad1be2c89b69c2b068fc378daa952ba7f163c4a11628f55a4df523b3ef8460405161137c9190611a95565b60405180910390a361138f848484611460565b50505050565b6000600560009054906101000a900473ffffffffffffffffffffffffffffffffffffffff16905081600560006101000a81548173ffffffffffffffffffffffffffffffffffffffff021916908373ffffffffffffffffffffffffffffffffffffffff1602179055508173ffffffffffffffffffffffffffffffffffffffff168173ffffffffffffffffffffffffffffffffffffffff167f8be0079c531659141344cd1fd0a4f28419497f9722a3daafe3b4186f6b6457e060405160405180910390a35050565b505050565b505050565b600061147861147384611af0565b611acb565b90508281526020810184848401111561149457611493611d3b565b5b61149f848285611c04565b509392505050565b6000813590506114b681612025565b92915050565b600082601f8301126114d1576114d0611d36565b5b81356114e1848260208601611465565b91505092915050565b6000813590506114f98161203c565b92915050565b60006020828403121561151557611514611d45565b5b6000611523848285016114a7565b91505092915050565b6000806040838503121561154357611542611d45565b5b6000611551858286016114a7565b9250506020611562858286016114a7565b9150509250929050565b60008060006060848603121561158557611584611d45565b5b6000611593868287016114a7565b93505060206115a4868287016114a7565b92505060406115b5868287016114ea565b9150509250925092565b600080604083850312156115d6576115d5611d45565b5b60006115e4858286016114a7565b92505060206115f5858286016114ea565b9150509250929050565b60008060006060848603121561161857611617611d45565b5b6000611626868287016114a7565b9350506020611637868287016114ea565b925050604084013567ffffffffffffffff81111561165857611657611d40565b5b611664868287016114bc565b9150509250925092565b61167781611baf565b82525050565b61168681611bc1565b82525050565b600061169782611b21565b6116a18185611b37565b93506116b1818560208601611c13565b6116ba81611d4a565b840191505092915050565b60006116d082611b2c565b6116da8185611b48565b93506116ea818560208601611c13565b6116f381611d4a565b840191505092915050565b600061170b602383611b48565b915061171682611d5b565b604082019050919050565b600061172e602683611b48565b915061173982611daa565b604082019050919050565b6000611751602283611b48565b915061175c82611df9565b604082019050919050565b6000611774602683611b48565b915061177f82611e48565b604082019050919050565b6000611797602883611b48565b91506117a282611e97565b604082019050919050565b60006117ba602083611b48565b91506117c582611ee6565b602082019050919050565b60006117dd602583611b48565b91506117e882611f0f565b604082019050919050565b6000611800601383611b48565b915061180b82611f5e565b602082019050919050565b6000611823602483611b48565b915061182e82611f87565b604082019050919050565b6000611846602583611b48565b915061185182611fd6565b604082019050919050565b61186581611bed565b82525050565b61187481611bf7565b82525050565b600060208201905061188f600083018461166e565b92915050565b60006080820190506118aa600083018761166e565b6118b7602083018661166e565b6118c4604083018561185c565b6118d1606083018461185c565b95945050505050565b60006060820190506118ef600083018661166e565b6118fc602083018561185c565b818103604083015261190e818461168c565b9050949350505050565b600060208201905061192d600083018461167d565b92915050565b6000602082019050818103600083015261194d81846116c5565b905092915050565b6000602082019050818103600083015261196e816116fe565b9050919050565b6000602082019050818103600083015261198e81611721565b9050919050565b600060208201905081810360008301526119ae81611744565b9050919050565b600060208201905081810360008301526119ce81611767565b9050919050565b600060208201905081810360008301526119ee8161178a565b9050919050565b60006020820190508181036000830152611a0e816117ad565b9050919050565b60006020820190508181036000830152611a2e816117d0565b9050919050565b60006020820190508181036000830152611a4e816117f3565b9050919050565b60006020820190508181036000830152611a6e81611816565b9050919050565b60006020820190508181036000830152611a8e81611839565b9050919050565b6000602082019050611aaa600083018461185c565b92915050565b6000602082019050611ac5600083018461186b565b92915050565b6000611ad5611ae6565b9050611ae18282611c78565b919050565b6000604051905090565b600067ffffffffffffffff821115611b0b57611b0a611d07565b5b611b1482611d4a565b9050602081019050919050565b600081519050919050565b600081519050919050565b600082825260208201905092915050565b600082825260208201905092915050565b6000611b6482611bed565b9150611b6f83611bed565b9250827fffffffffffffffffffffffffffffffffffffffffffffffffffffffffffffffff03821115611ba457611ba3611ca9565b5b828201905092915050565b6000611bba82611bcd565b9050919050565b60008115159050919050565b600073ffffffffffffffffffffffffffffffffffffffff82169050919050565b6000819050919050565b600060ff82169050919050565b82818337600083830152505050565b60005b83811015611c31578082015181840152602081019050611c16565b83811115611c40576000848401525b50505050565b60006002820490506001821680611c5e57607f821691505b60208210811415611c7257611c71611cd8565b5b50919050565b611c8182611d4a565b810181811067ffffffffffffffff82111715611ca057611c9f611d07565b5b80604052505050565b7f4e487b7100000000000000000000000000000000000000000000000000000000600052601160045260246000fd5b7f4e487b7100000000000000000000000000000000000000000000000000000000600052602260045260246000fd5b7f4e487b7100000000000000000000000000000000000000000000000000000000600052604160045260246000fd5b600080fd5b600080fd5b600080fd5b600080fd5b6000601f19601f8301169050919050565b7f45524332303a207472616e7366657220746f20746865207a65726f206164647260008201527f6573730000000000000000000000000000000000000000000000000000000000602082015250565b7f4f776e61626c653a206e6577206f776e657220697320746865207a65726f206160008201527f6464726573730000000000000000000000000000000000000000000000000000602082015250565b7f45524332303a20617070726f766520746f20746865207a65726f20616464726560008201527f7373000000000000000000000000000000000000000000000000000000000000602082015250565b7f45524332303a207472616e7366657220616d6f756e742065786365656473206260008201527f616c616e63650000000000000000000000000000000000000000000000000000602082015250565b7f45524332303a207472616e7366657220616d6f756e742065786365656473206160008201527f6c6c6f77616e6365000000000000000000000000000000000000000000000000602082015250565b7f4f776e61626c653a2063616c6c6572206973206e6f7420746865206f776e6572600082015250565b7f45524332303a207472616e736665722066726f6d20746865207a65726f20616460008201527f6472657373000000000000000000000000000000000000000000000000000000602082015250565b7f617070726f7665416e6443616c6c206661696c00000000000000000000000000600082015250565b7f45524332303a20617070726f76652066726f6d20746865207a65726f2061646460008201527f7265737300000000000000000000000000000000000000000000000000000000602082015250565b7f45524332303a2064656372656173656420616c6c6f77616e63652062656c6f7760008201527f207a65726f000000000000000000000000000000000000000000000000000000602082015250565b61202e81611baf565b811461203957600080fd5b50565b61204581611bed565b811461205057600080fd5b5056fea26469706673582212200b27d3927bd02870068849831fb452f79b6d36649467f46c41f3d318f19efc2d64736f6c63430008070033",
  "linkReferences": {},
  "deployedLinkReferences": {}
}