{
  "_format": "hh-sol-artifact-1",
  "contractName": "YutengV2",
  "sourceName": "contracts/YutengV2.sol",
  "abi": [
    {
      "anonymous": false,
      "inputs": [
        {
          "indexed": false,
          "internalType": "address",
          "name": "from",
          "type": "address"
        },
        {
          "indexed": false,
          "internalType": "address",
          "name": "to",
          "type": "address"
        },
        {
          "indexed": false,
          "internalType": "uint256",
          "name": "value",
          "type": "uint256"
        },
        {
          "indexed": false,
          "internalType": "uint256",
          "name": "number",
          "type": "uint256"
        }
      ],
      "name": "SendBalance",
      "type": "event"
    },
    {
      "stateMutability": "payable",
      "type": "fallback"
    },
    {
      "inputs": [],
      "name": "score",
      "outputs": [
        {
          "internalType": "uint256",
          "name": "",
          "type": "uint256"
        }
      ],
      "stateMutability": "view",
      "type": "function"
    },
    {
      "inputs": [
        {
          "internalType": "uint256",
          "name": "newScore",
          "type": "uint256"
        }
      ],
      "name": "setsCcore",
      "outputs": [],
      "stateMutability": "nonpayable",
      "type": "function"
    },
    {
      "stateMutability": "payable",
      "type": "receive"
    }
  ],
  "bytecode": "0x608060405234801561001057600080fd5b506102e2806100206000396000f3fe60806040526004361061002d5760003560e01c806330a82a7f146100b2578063efedc669146100db57610072565b36610072577f70ee46485b987eaf472c55908dc22ab5db176b6125c52401cb86bbfc91cb5c5f333034606660405161006894939291906101d5565b60405180910390a1005b7f70ee46485b987eaf472c55908dc22ab5db176b6125c52401cb86bbfc91cb5c5f33303460656040516100a89493929190610190565b60405180910390a1005b3480156100be57600080fd5b506100d960048036038101906100d4919061012b565b610106565b005b3480156100e757600080fd5b506100f0610110565b6040516100fd919061021a565b60405180910390f35b8060008190555050565b60005481565b60008135905061012581610295565b92915050565b60006020828403121561013d57600080fd5b600061014b84828501610116565b91505092915050565b61015d81610235565b82525050565b61016c81610271565b82525050565b61017b81610283565b82525050565b61018a81610267565b82525050565b60006080820190506101a56000830187610154565b6101b26020830186610154565b6101bf6040830185610181565b6101cc6060830184610163565b95945050505050565b60006080820190506101ea6000830187610154565b6101f76020830186610154565b6102046040830185610181565b6102116060830184610172565b95945050505050565b600060208201905061022f6000830184610181565b92915050565b600061024082610247565b9050919050565b600073ffffffffffffffffffffffffffffffffffffffff82169050919050565b6000819050919050565b600061027c82610267565b9050919050565b600061028e82610267565b9050919050565b61029e81610267565b81146102a957600080fd5b5056fea2646970667358221220d5f39d1946b41fbc5c1e2b09f44f54ee40b8331054c8e035be2454fc630fbd7264736f6c63430008040033",
  "linkReferences": {},
  "deployedLinkReferences": {}
}