{
  "_format": "hh-sol-artifact-1",
  "contractName": "YutengV2",
  "sourceName": "contracts/YutengV2.sol",
  "abi": [
    {
      "anonymous": false,
      "inputs": [
        {
          "indexed": false,
          "internalType": "address",
          "name": "from",
          "type": "address"
        },
        {
          "indexed": false,
          "internalType": "address",
          "name": "to",
          "type": "address"
        },
        {
          "indexed": false,
          "internalType": "uint256",
          "name": "value",
          "type": "uint256"
        },
        {
          "indexed": false,
          "internalType": "uint256",
          "name": "number",
          "type": "uint256"
        }
      ],
      "name": "SendBalance",
      "type": "event"
    },
    {
      "stateMutability": "payable",
      "type": "fallback"
    },
    {
      "inputs": [],
      "name": "score",
      "outputs": [
        {
          "internalType": "uint256",
          "name": "",
          "type": "uint256"
        }
      ],
      "stateMutability": "view",
      "type": "function"
    },
    {
      "inputs": [
        {
          "internalType": "uint256",
          "name": "newScore",
          "type": "uint256"
        }
      ],
      "name": "setsCcore",
      "outputs": [],
      "stateMutability": "nonpayable",
      "type": "function"
    },
    {
      "stateMutability": "payable",
      "type": "receive"
    }
  ],
  "bytecode": "0x608060405234801561001057600080fd5b506102eb806100206000396000f3fe60806040526004361061002d5760003560e01c806330a82a7f146100b2578063efedc669146100db57610072565b36610072577f70ee46485b987eaf472c55908dc22ab5db176b6125c52401cb86bbfc91cb5c5f333034606660405161006894939291906101d9565b60405180910390a1005b7f70ee46485b987eaf472c55908dc22ab5db176b6125c52401cb86bbfc91cb5c5f33303460656040516100a89493929190610194565b60405180910390a1005b3480156100be57600080fd5b506100d960048036038101906100d4919061012b565b610106565b005b3480156100e757600080fd5b506100f0610110565b6040516100fd919061021e565b60405180910390f35b8060008190555050565b60005481565b6000813590506101258161029e565b92915050565b60006020828403121561014157610140610299565b5b600061014f84828501610116565b91505092915050565b61016181610239565b82525050565b61017081610275565b82525050565b61017f81610287565b82525050565b61018e8161026b565b82525050565b60006080820190506101a96000830187610158565b6101b66020830186610158565b6101c36040830185610185565b6101d06060830184610167565b95945050505050565b60006080820190506101ee6000830187610158565b6101fb6020830186610158565b6102086040830185610185565b6102156060830184610176565b95945050505050565b60006020820190506102336000830184610185565b92915050565b60006102448261024b565b9050919050565b600073ffffffffffffffffffffffffffffffffffffffff82169050919050565b6000819050919050565b60006102808261026b565b9050919050565b60006102928261026b565b9050919050565b600080fd5b6102a78161026b565b81146102b257600080fd5b5056fea2646970667358221220ff9e59538cc6e6366dd3c7eaf269ae80c2eb10e3c83ebff6910d9c2bffae5c2264736f6c63430008070033",
  "linkReferences": {},
  "deployedLinkReferences": {}
}