{
  "_format": "hh-sol-artifact-1",
  "contractName": "T4",
  "sourceName": "contracts/T4.sol",
  "abi": [
    {
      "inputs": [],
      "stateMutability": "nonpayable",
      "type": "constructor"
    },
    {
      "inputs": [],
      "name": "getCuurentAge",
      "outputs": [
        {
          "internalType": "uint256",
          "name": "",
          "type": "uint256"
        }
      ],
      "stateMutability": "view",
      "type": "function"
    }
  ],
  "bytecode": "0x608060405234801561001057600080fd5b50601260008190555060b6806100276000396000f3fe6080604052348015600f57600080fd5b506004361060285760003560e01c806305d8c7ca14602d575b600080fd5b60336047565b604051603e9190605d565b60405180910390f35b60008054905090565b6057816076565b82525050565b6000602082019050607060008301846050565b92915050565b600081905091905056fea2646970667358221220a504e02d9076cc51fbf787bbf3656fd450ce5a66294dae2280c6269fec828d5164736f6c63430008070033",
  "linkReferences": {},
  "deployedLinkReferences": {}
}