{
  "_format": "hh-sol-artifact-1",
  "contractName": "YutengV1",
  "sourceName": "contracts/YutengV1.sol",
  "abi": [
    {
      "stateMutability": "payable",
      "type": "fallback"
    },
    {
      "inputs": [],
      "name": "score",
      "outputs": [
        {
          "internalType": "uint256",
          "name": "",
          "type": "uint256"
        }
      ],
      "stateMutability": "view",
      "type": "function"
    },
    {
      "stateMutability": "payable",
      "type": "receive"
    }
  ],
  "bytecode": "0x608060405234801561001057600080fd5b5060b98061001f6000396000f3fe608060405260043610601f5760003560e01c8063efedc669146027576025565b36602557005b005b348015603257600080fd5b506039604d565b604051604491906060565b60405180910390f35b60005481565b605a816079565b82525050565b6000602082019050607360008301846053565b92915050565b600081905091905056fea26469706673582212203cc1cb734c8ada8fdf7f6a431b4f022fbb9d52f2c85b52a70759178ea23cc31564736f6c63430008040033",
  "linkReferences": {},
  "deployedLinkReferences": {}
}