{
  "_format": "hh-sol-artifact-1",
  "contractName": "T3",
  "sourceName": "contracts/T3.sol",
  "abi": [
    {
      "inputs": [],
      "stateMutability": "nonpayable",
      "type": "constructor"
    },
    {
      "inputs": [],
      "name": "getLatestPrice",
      "outputs": [
        {
          "internalType": "int256",
          "name": "",
          "type": "int256"
        }
      ],
      "stateMutability": "view",
      "type": "function"
    }
  ],
  "bytecode": "0x608060405234801561001057600080fd5b5073143db3ceefbdfe5631add3e50f7614b6ba708ba76000806101000a81548173ffffffffffffffffffffffffffffffffffffffff021916908373ffffffffffffffffffffffffffffffffffffffff16021790555060008060008060008060009054906101000a900473ffffffffffffffffffffffffffffffffffffffff1673ffffffffffffffffffffffffffffffffffffffff1663feaf968c6040518163ffffffff1660e01b815260040160a06040518083038186803b1580156100d457600080fd5b505afa1580156100e8573d6000803e3d6000fd5b505050506040513d601f19601f8201168201806040525081019061010c919061015f565b94509450945094509450505050505061024e565b60008151905061012f81610209565b92915050565b60008151905061014481610220565b92915050565b60008151905061015981610237565b92915050565b600080600080600060a0868803121561017b5761017a610204565b5b60006101898882890161014a565b955050602061019a88828901610120565b94505060406101ab88828901610135565b93505060606101bc88828901610135565b92505060806101cd8882890161014a565b9150509295509295909350565b6000819050919050565b6000819050919050565b600069ffffffffffffffffffff82169050919050565b600080fd5b610212816101da565b811461021d57600080fd5b50565b610229816101e4565b811461023457600080fd5b50565b610240816101ee565b811461024b57600080fd5b50565b6102988061025d6000396000f3fe608060405234801561001057600080fd5b506004361061002b5760003560e01c80638e15f47314610030575b600080fd5b61003861004e565b60405161004591906101d3565b60405180910390f35b60008060008060008060008054906101000a900473ffffffffffffffffffffffffffffffffffffffff1673ffffffffffffffffffffffffffffffffffffffff1663feaf968c6040518163ffffffff1660e01b815260040160a06040518083038186803b1580156100bd57600080fd5b505afa1580156100d1573d6000803e3d6000fd5b505050506040513d601f19601f820116820180604052508101906100f59190610149565b94509450945094509450839550505050505090565b6000815190506101198161021d565b92915050565b60008151905061012e81610234565b92915050565b6000815190506101438161024b565b92915050565b600080600080600060a0868803121561016557610164610218565b5b600061017388828901610134565b95505060206101848882890161010a565b94505060406101958882890161011f565b93505060606101a68882890161011f565b92505060806101b788828901610134565b9150509295509295909350565b6101cd816101ee565b82525050565b60006020820190506101e860008301846101c4565b92915050565b6000819050919050565b6000819050919050565b600069ffffffffffffffffffff82169050919050565b600080fd5b610226816101ee565b811461023157600080fd5b50565b61023d816101f8565b811461024857600080fd5b50565b61025481610202565b811461025f57600080fd5b5056fea264697066735822122065fb47efd4320f10f8a9fb44a9b74cc145ed728350fde571ab003fb6d61aac5564736f6c63430008070033",
  "linkReferences": {},
  "deployedLinkReferences": {}
}